{
  "abi": [
    {
      "inputs": [
        {
          "internalType": "address",
          "name": "_entranceFeeAddress",
          "type": "address"
        },
        {
          "internalType": "address",
          "name": "_vrfcoordinator",
          "type": "address"
        },
        {
          "internalType": "address",
          "name": "_link",
          "type": "address"
        },
        {
          "internalType": "bytes32",
          "name": "_keyhash",
          "type": "bytes32"
        },
        {
          "internalType": "uint256",
          "name": "_fee",
          "type": "uint256"
        }
      ],
      "stateMutability": "nonpayable",
      "type": "constructor"
    },
    {
      "anonymous": false,
      "inputs": [
        {
          "indexed": true,
          "internalType": "address",
          "name": "previousOwner",
          "type": "address"
        },
        {
          "indexed": true,
          "internalType": "address",
          "name": "newOwner",
          "type": "address"
        }
      ],
      "name": "OwnershipTransferred",
      "type": "event"
    },
    {
      "anonymous": false,
      "inputs": [
        {
          "indexed": false,
          "internalType": "bytes32",
          "name": "requestId",
          "type": "bytes32"
        }
      ],
      "name": "requestIdRandomness",
      "type": "event"
    },
    {
      "inputs": [],
      "name": "blastBalance",
      "outputs": [
        {
          "internalType": "uint256",
          "name": "",
          "type": "uint256"
        }
      ],
      "stateMutability": "view",
      "type": "function"
    },
    {
      "inputs": [],
      "name": "blastPayment",
      "outputs": [],
      "stateMutability": "nonpayable",
      "type": "function"
    },
    {
      "inputs": [],
      "name": "blast_status",
      "outputs": [
        {
          "internalType": "enum Blast.BLAST_STATUS",
          "name": "",
          "type": "uint8"
        }
      ],
      "stateMutability": "view",
      "type": "function"
    },
    {
      "inputs": [],
      "name": "charge",
      "outputs": [],
      "stateMutability": "payable",
      "type": "function"
    },
    {
      "inputs": [
        {
          "internalType": "uint256",
          "name": "_ratio",
          "type": "uint256"
        }
      ],
      "name": "enter",
      "outputs": [],
      "stateMutability": "payable",
      "type": "function"
    },
    {
      "inputs": [],
      "name": "entranceFee",
      "outputs": [
        {
          "internalType": "uint256",
          "name": "",
          "type": "uint256"
        }
      ],
      "stateMutability": "view",
      "type": "function"
    },
    {
      "inputs": [],
      "name": "entranceFeeAmount",
      "outputs": [
        {
          "internalType": "uint256",
          "name": "",
          "type": "uint256"
        }
      ],
      "stateMutability": "view",
      "type": "function"
    },
    {
      "inputs": [],
      "name": "fee",
      "outputs": [
        {
          "internalType": "uint256",
          "name": "",
          "type": "uint256"
        }
      ],
      "stateMutability": "view",
      "type": "function"
    },
    {
      "inputs": [],
      "name": "finish",
      "outputs": [
        {
          "internalType": "bytes32",
          "name": "requestId",
          "type": "bytes32"
        }
      ],
      "stateMutability": "nonpayable",
      "type": "function"
    },
    {
      "inputs": [],
      "name": "getRatio",
      "outputs": [],
      "stateMutability": "nonpayable",
      "type": "function"
    },
    {
      "inputs": [],
      "name": "keyHash",
      "outputs": [
        {
          "internalType": "bytes32",
          "name": "",
          "type": "bytes32"
        }
      ],
      "stateMutability": "view",
      "type": "function"
    },
    {
      "inputs": [],
      "name": "owner",
      "outputs": [
        {
          "internalType": "address",
          "name": "",
          "type": "address"
        }
      ],
      "stateMutability": "view",
      "type": "function"
    },
    {
      "inputs": [
        {
          "internalType": "uint256",
          "name": "",
          "type": "uint256"
        }
      ],
      "name": "players",
      "outputs": [
        {
          "internalType": "address payable",
          "name": "account",
          "type": "address"
        },
        {
          "internalType": "uint256",
          "name": "money",
          "type": "uint256"
        },
        {
          "internalType": "uint256",
          "name": "ratio",
          "type": "uint256"
        }
      ],
      "stateMutability": "view",
      "type": "function"
    },
    {
      "inputs": [],
      "name": "randomRatio",
      "outputs": [
        {
          "internalType": "uint256",
          "name": "",
          "type": "uint256"
        }
      ],
      "stateMutability": "view",
      "type": "function"
    },
    {
      "inputs": [],
      "name": "randomness",
      "outputs": [
        {
          "internalType": "uint256",
          "name": "",
          "type": "uint256"
        }
      ],
      "stateMutability": "view",
      "type": "function"
    },
    {
      "inputs": [
        {
          "internalType": "bytes32",
          "name": "requestId",
          "type": "bytes32"
        },
        {
          "internalType": "uint256",
          "name": "randomness",
          "type": "uint256"
        }
      ],
      "name": "rawFulfillRandomness",
      "outputs": [],
      "stateMutability": "nonpayable",
      "type": "function"
    },
    {
      "inputs": [],
      "name": "renounceOwnership",
      "outputs": [],
      "stateMutability": "nonpayable",
      "type": "function"
    },
    {
      "inputs": [],
      "name": "start",
      "outputs": [],
      "stateMutability": "nonpayable",
      "type": "function"
    },
    {
      "inputs": [
        {
          "internalType": "address",
          "name": "newOwner",
          "type": "address"
        }
      ],
      "name": "transferOwnership",
      "outputs": [],
      "stateMutability": "nonpayable",
      "type": "function"
    },
    {
      "inputs": [],
      "name": "winnerCounter",
      "outputs": [
        {
          "internalType": "uint256",
          "name": "",
          "type": "uint256"
        }
      ],
      "stateMutability": "view",
      "type": "function"
    }
  ],
  "bytecode": "60c06040523480156200001157600080fd5b506040516200168238038062001682833981016040819052620000349162000105565b8383620000413362000098565b6001600160a01b0391821660a0528116608052600880546003949094556004929092556000600755674563918244f40000600255949094166001600160a81b031990911617600160a01b1790925550620001629050565b600080546001600160a01b038381166001600160a01b0319831681178455604051919092169283917f8be0079c531659141344cd1fd0a4f28419497f9722a3daafe3b4186f6b6457e09190a35050565b80516001600160a01b03811681146200010057600080fd5b919050565b600080600080600060a086880312156200011e57600080fd5b6200012986620000e8565b94506200013960208701620000e8565b93506200014960408701620000e8565b6060870151608090970151959894975095949392505050565b60805160a0516114ec62000196600039600081816106ba015261102d0152600081816109880152610ffe01526114ec6000f3fe60806040526004361061011f5760003560e01c806394985ddd116100a0578063ddca3f4311610064578063ddca3f43146102a5578063ec1ebd7a146102bb578063f2fde38b146102d0578063f71d96cb146102f0578063f85fe6031461033557600080fd5b806394985ddd14610232578063a1e0c2c914610252578063a59f3e0c14610268578063be9a65551461027b578063d56b28891461029057600080fd5b80635a88376e116100e75780635a88376e146101b457806361728f39146101ca578063649677e1146101e0578063715018a6146101f55780638da5cb5b1461020a57600080fd5b80630e8c66fe146101245780631b06b7a71461015b5780632c41088714610172578063360131891461019657806355161913146101ac575b600080fd5b34801561013057600080fd5b5060085461014590600160a01b900460ff1681565b60405161015291906111d8565b60405180910390f35b34801561016757600080fd5b50610170610348565b005b34801561017e57600080fd5b5061018860025481565b604051908152602001610152565b3480156101a257600080fd5b5061018860055481565b61017061054a565b3480156101c057600080fd5b5061018860065481565b3480156101d657600080fd5b5061018860035481565b3480156101ec57600080fd5b506101886105bb565b34801561020157600080fd5b5061017061067b565b34801561021657600080fd5b506000546040516001600160a01b039091168152602001610152565b34801561023e57600080fd5b5061017061024d366004611200565b6106af565b34801561025e57600080fd5b5061018860075481565b610170610276366004611222565b610735565b34801561028757600080fd5b506101706108cb565b34801561029c57600080fd5b50610188610939565b3480156102b157600080fd5b5061018860045481565b3480156102c757600080fd5b50610170610a7d565b3480156102dc57600080fd5b506101706102eb36600461123b565b610e3f565b3480156102fc57600080fd5b5061031061030b366004611222565b610eda565b604080516001600160a01b039094168452602084019290925290820152606001610152565b34801561034157600080fd5b5047610188565b6000546001600160a01b0316331461037b5760405162461bcd60e51b81526004016103729061126b565b60405180910390fd5b6002600854600160a01b900460ff16600281111561039b5761039b6111c2565b146103b85760405162461bcd60e51b8152600401610372906112a0565b60005b600954811015610520576006541561050e576000600982815481106103e2576103e26112cf565b9060005260206000209060030201600201549050600654811161050c57600060098381548110610414576104146112cf565b90600052602060002090600302016002015460646009858154811061043b5761043b6112cf565b9060005260206000209060030201600101546104579190611311565b6104619190611325565b9050600060098481548110610478576104786112cf565b600091825260208220600390910201546040516001600160a01b039091169250829084156108fc0290859084818181858888f193505050509050806104f35760405162461bcd60e51b815260206004820152601160248201527073656e64696e67204661696c656421212160781b6044820152606401610372565b6007805490600061050383611344565b91905055505050505b505b8061051881611344565b9150506103bb565b5061052d60096000611175565b600880546001919060ff60a01b1916600160a01b835b0217905550565b6000546001600160a01b031633146105745760405162461bcd60e51b81526004016103729061126b565b600034116105b95760405162461bcd60e51b8152602060048201526012602482015271697473206e6f74206368617267656421212160701b6044820152606401610372565b565b600080600860009054906101000a90046001600160a01b03166001600160a01b031663feaf968c6040518163ffffffff1660e01b815260040160a060405180830381865afa158015610611573d6000803e3d6000fd5b505050506040513d601f19601f82011682018060405250810190610635919061137c565b5050509150506000816402540be40061064e9190611325565b9050600081600254670de0b6b3a76400006106699190611325565b6106739190611311565b949350505050565b6000546001600160a01b031633146106a55760405162461bcd60e51b81526004016103729061126b565b6105b96000610f17565b336001600160a01b037f000000000000000000000000000000000000000000000000000000000000000016146107275760405162461bcd60e51b815260206004820152601f60248201527f4f6e6c7920565246436f6f7264696e61746f722063616e2066756c66696c6c006044820152606401610372565b6107318282610f67565b5050565b6000600854600160a01b900460ff166002811115610755576107556111c2565b1461075f57600080fd5b6107676105bb565b3410156107b65760405162461bcd60e51b815260206004820152601d60248201527f6e6f7420656e6f756768206d6f6e657920666f7220626c6173742121210000006044820152606401610372565b6064811180156107c857506103e88111155b6108095760405162461bcd60e51b8152602060048201526012602482015271696e636f727265637420726174696f21212160701b6044820152606401610372565b6040805160608101825233815234602082019081529181019283526009805460018101825560009190915290517f6e1540171b6c0c960b71a7020d9f60077f6af931a8bbf590da0223dacf75c7af600390920291820180546001600160a01b0319166001600160a01b0390921691909117905590517f6e1540171b6c0c960b71a7020d9f60077f6af931a8bbf590da0223dacf75c7b082015590517f6e1540171b6c0c960b71a7020d9f60077f6af931a8bbf590da0223dacf75c7b190910155565b6000546001600160a01b031633146108f55760405162461bcd60e51b81526004016103729061126b565b6001600854600160a01b900460ff166002811115610915576109156111c2565b1461091f57600080fd5b600880546000919060ff60a01b1916600160a01b83610543565b600080546001600160a01b031633146109645760405162461bcd60e51b81526004016103729061126b565b600480546040516370a0823160e01b81523092810192909252906001600160a01b037f000000000000000000000000000000000000000000000000000000000000000016906370a0823190602401602060405180830381865afa1580156109cf573d6000803e3d6000fd5b505050506040513d601f19601f820116820180604052508101906109f391906113cc565b1015610a555760405162461bcd60e51b815260206004820152602b60248201527f4e6f7420656e6f756768204c494e4b202d2066696c6c20636f6e74726163742060448201526a1dda5d1a0819985d58d95d60aa1b6064820152608401610372565b6008805460ff60a01b1916600160a11b179055600354600454610a789190610ffa565b905090565b6000546001600160a01b03163314610aa75760405162461bcd60e51b81526004016103729061126b565b6002600854600160a01b900460ff166002811115610ac757610ac76111c2565b14610ae45760405162461bcd60e51b8152600401610372906112a0565b60006103e8600554610af691906113e5565b905060008060138311158015610b0a575060015b15610b19576000600655505050565b6102398311158015610b2c575060148310155b15610b75575061023a90506014610b4381836113f9565b610b4d82856113f9565b610b58906064611325565b610b629190611311565b610b6d906064611410565b600655505050565b61030b8311158015610b89575061023a8310155b15610bcb575061030c905061023a610ba181836113f9565b610bab82856113f9565b610bb6906064611325565b610bc09190611311565b610b6d9060c8611410565b61030c8310158015610bdf575061036f8311155b15610c225750610370905061030c610bf781836113f9565b610c0182856113f9565b610c0c906064611325565b610c169190611311565b610b6d9061012c611410565b6103708310158015610c3657506103a18311155b15610c7957506103a29050610370610c4e81836113f9565b610c5882856113f9565b610c63906064611325565b610c6d9190611311565b610b6d90610190611410565b6103a28310158015610c8d57506103bf8311155b15610cd057506103c090506103a2610ca581836113f9565b610caf82856113f9565b610cba906064611325565b610cc49190611311565b610b6d906101f4611410565b6103c08310158015610ce457506103d38311155b15610d26575061023a90506014610cfb81836113f9565b610d0582856113f9565b610d10906064611325565b610d1a9190611311565b610b6d90610258611410565b6103d48310158015610d3a57506103dd8311155b15610d7d57506103de90506103d4610d5281836113f9565b610d5c82856113f9565b610d67906064611325565b610d719190611311565b610b6d906102bc611410565b6103de8310158015610d9157506103e28311155b15610dd457506103e390506103de610da981836113f9565b610db382856113f9565b610dbe906064611325565b610dc89190611311565b610b6d90610320611410565b6103e38310158015610de857506103e68311155b15610e2b57506103e790506103e3610e0081836113f9565b610e0a82856113f9565b610e15906064611325565b610e1f9190611311565b610b6d90610384611410565b826103e703610e3a57600a6006555b505050565b6000546001600160a01b03163314610e695760405162461bcd60e51b81526004016103729061126b565b6001600160a01b038116610ece5760405162461bcd60e51b815260206004820152602660248201527f4f776e61626c653a206e6577206f776e657220697320746865207a65726f206160448201526564647265737360d01b6064820152608401610372565b610ed781610f17565b50565b60098181548110610eea57600080fd5b60009182526020909120600390910201805460018201546002909201546001600160a01b03909116925083565b600080546001600160a01b038381166001600160a01b0319831681178455604051919092169283917f8be0079c531659141344cd1fd0a4f28419497f9722a3daafe3b4186f6b6457e09190a35050565b6002600854600160a01b900460ff166002811115610f8757610f876111c2565b14610fa45760405162461bcd60e51b8152600401610372906112a0565b60008111610ff45760405162461bcd60e51b815260206004820181905260248201527f7468657265206973206e6f2072616e646f6d206e756d626572207965742121216044820152606401610372565b60055550565b60007f00000000000000000000000000000000000000000000000000000000000000006001600160a01b0316634000aea07f00000000000000000000000000000000000000000000000000000000000000008486600060405160200161106a929190918252602082015260400190565b6040516020818303038152906040526040518463ffffffff1660e01b815260040161109793929190611428565b6020604051808303816000875af11580156110b6573d6000803e3d6000fd5b505050506040513d601f19601f820116820180604052508101906110da9190611494565b50600083815260016020818152604080842054815180840189905280830186905230606082015260808082018390528351808303909101815260a0909101909252815191830191909120938790529082905261113591611410565b6000858152600160205260409020556106738482604080516020808201949094528082019290925280518083038201815260609092019052805191012090565b5080546000825560030290600052602060002090810190610ed791905b808211156111be5780546001600160a01b03191681556000600182018190556002820155600301611192565b5090565b634e487b7160e01b600052602160045260246000fd5b60208101600383106111fa57634e487b7160e01b600052602160045260246000fd5b91905290565b6000806040838503121561121357600080fd5b50508035926020909101359150565b60006020828403121561123457600080fd5b5035919050565b60006020828403121561124d57600080fd5b81356001600160a01b038116811461126457600080fd5b9392505050565b6020808252818101527f4f776e61626c653a2063616c6c6572206973206e6f7420746865206f776e6572604082015260600190565b602080825260159082015274626c617374206973206e6f7420656e64656421212160581b604082015260600190565b634e487b7160e01b600052603260045260246000fd5b634e487b7160e01b600052601260045260246000fd5b634e487b7160e01b600052601160045260246000fd5b600082611320576113206112e5565b500490565b600081600019048311821515161561133f5761133f6112fb565b500290565b600060018201611356576113566112fb565b5060010190565b805169ffffffffffffffffffff8116811461137757600080fd5b919050565b600080600080600060a0868803121561139457600080fd5b61139d8661135d565b94506020860151935060408601519250606086015191506113c06080870161135d565b90509295509295909350565b6000602082840312156113de57600080fd5b5051919050565b6000826113f4576113f46112e5565b500690565b60008282101561140b5761140b6112fb565b500390565b60008219821115611423576114236112fb565b500190565b60018060a01b038416815260006020848184015260606040840152835180606085015260005b8181101561146a5785810183015185820160800152820161144e565b8181111561147c576000608083870101525b50601f01601f19169290920160800195945050505050565b6000602082840312156114a657600080fd5b8151801515811461126457600080fdfea26469706673582212207a5e020679bb4d84a9e2d808efb9fe58eb93dbb5d41295dfc98ece8cb71fdee264736f6c634300080e0033",
  "bytecodeSha1": "732410a490109e1469968ce6e64133aaf108e016",
  "compiler": {
    "evm_version": "istanbul",
    "optimizer": {
      "enabled": true,
      "runs": 200
    },
    "version": "0.8.14+commit.80d49f37"
  },
  "contractName": "Blast",
  "language": "Solidity",
  "natspec": {
    "kind": "dev",
    "methods": {
      "owner()": {
        "details": "Returns the address of the current owner."
      },
      "renounceOwnership()": {
        "details": "Leaves the contract without owner. It will not be possible to call `onlyOwner` functions anymore. Can only be called by the current owner. NOTE: Renouncing ownership will leave the contract without an owner, thereby removing any functionality that is only available to the owner."
      },
      "transferOwnership(address)": {
        "details": "Transfers ownership of the contract to a new account (`newOwner`). Can only be called by the current owner."
      }
    },
    "version": 1
  },
  "opcodes": "PUSH1 0x80 PUSH1 0x40 MSTORE PUSH1 0x4 CALLDATASIZE LT PUSH2 0x11F JUMPI PUSH1 0x0 CALLDATALOAD PUSH1 0xE0 SHR DUP1 PUSH4 0x94985DDD GT PUSH2 0xA0 JUMPI DUP1 PUSH4 0xDDCA3F43 GT PUSH2 0x64 JUMPI DUP1 PUSH4 0xDDCA3F43 EQ PUSH2 0x2A5 JUMPI DUP1 PUSH4 0xEC1EBD7A EQ PUSH2 0x2BB JUMPI DUP1 PUSH4 0xF2FDE38B EQ PUSH2 0x2D0 JUMPI DUP1 PUSH4 0xF71D96CB EQ PUSH2 0x2F0 JUMPI DUP1 PUSH4 0xF85FE603 EQ PUSH2 0x335 JUMPI PUSH1 0x0 DUP1 REVERT JUMPDEST DUP1 PUSH4 0x94985DDD EQ PUSH2 0x232 JUMPI DUP1 PUSH4 0xA1E0C2C9 EQ PUSH2 0x252 JUMPI DUP1 PUSH4 0xA59F3E0C EQ PUSH2 0x268 JUMPI DUP1 PUSH4 0xBE9A6555 EQ PUSH2 0x27B JUMPI DUP1 PUSH4 0xD56B2889 EQ PUSH2 0x290 JUMPI PUSH1 0x0 DUP1 REVERT JUMPDEST DUP1 PUSH4 0x5A88376E GT PUSH2 0xE7 JUMPI DUP1 PUSH4 0x5A88376E EQ PUSH2 0x1B4 JUMPI DUP1 PUSH4 0x61728F39 EQ PUSH2 0x1CA JUMPI DUP1 PUSH4 0x649677E1 EQ PUSH2 0x1E0 JUMPI DUP1 PUSH4 0x715018A6 EQ PUSH2 0x1F5 JUMPI DUP1 PUSH4 0x8DA5CB5B EQ PUSH2 0x20A JUMPI PUSH1 0x0 DUP1 REVERT JUMPDEST DUP1 PUSH4 0xE8C66FE EQ PUSH2 0x124 JUMPI DUP1 PUSH4 0x1B06B7A7 EQ PUSH2 0x15B JUMPI DUP1 PUSH4 0x2C410887 EQ PUSH2 0x172 JUMPI DUP1 PUSH4 0x36013189 EQ PUSH2 0x196 JUMPI DUP1 PUSH4 0x55161913 EQ PUSH2 0x1AC JUMPI JUMPDEST PUSH1 0x0 DUP1 REVERT JUMPDEST CALLVALUE DUP1 ISZERO PUSH2 0x130 JUMPI PUSH1 0x0 DUP1 REVERT JUMPDEST POP PUSH1 0x8 SLOAD PUSH2 0x145 SWAP1 PUSH1 0x1 PUSH1 0xA0 SHL SWAP1 DIV PUSH1 0xFF AND DUP2 JUMP JUMPDEST PUSH1 0x40 MLOAD PUSH2 0x152 SWAP2 SWAP1 PUSH2 0x11D8 JUMP JUMPDEST PUSH1 0x40 MLOAD DUP1 SWAP2 SUB SWAP1 RETURN JUMPDEST CALLVALUE DUP1 ISZERO PUSH2 0x167 JUMPI PUSH1 0x0 DUP1 REVERT JUMPDEST POP PUSH2 0x170 PUSH2 0x348 JUMP JUMPDEST STOP JUMPDEST CALLVALUE DUP1 ISZERO PUSH2 0x17E JUMPI PUSH1 0x0 DUP1 REVERT JUMPDEST POP PUSH2 0x188 PUSH1 0x2 SLOAD DUP2 JUMP JUMPDEST PUSH1 0x40 MLOAD SWAP1 DUP2 MSTORE PUSH1 0x20 ADD PUSH2 0x152 JUMP JUMPDEST CALLVALUE DUP1 ISZERO PUSH2 0x1A2 JUMPI PUSH1 0x0 DUP1 REVERT JUMPDEST POP PUSH2 0x188 PUSH1 0x5 SLOAD DUP2 JUMP JUMPDEST PUSH2 0x170 PUSH2 0x54A JUMP JUMPDEST CALLVALUE DUP1 ISZERO PUSH2 0x1C0 JUMPI PUSH1 0x0 DUP1 REVERT JUMPDEST POP PUSH2 0x188 PUSH1 0x6 SLOAD DUP2 JUMP JUMPDEST CALLVALUE DUP1 ISZERO PUSH2 0x1D6 JUMPI PUSH1 0x0 DUP1 REVERT JUMPDEST POP PUSH2 0x188 PUSH1 0x3 SLOAD DUP2 JUMP JUMPDEST CALLVALUE DUP1 ISZERO PUSH2 0x1EC JUMPI PUSH1 0x0 DUP1 REVERT JUMPDEST POP PUSH2 0x188 PUSH2 0x5BB JUMP JUMPDEST CALLVALUE DUP1 ISZERO PUSH2 0x201 JUMPI PUSH1 0x0 DUP1 REVERT JUMPDEST POP PUSH2 0x170 PUSH2 0x67B JUMP JUMPDEST CALLVALUE DUP1 ISZERO PUSH2 0x216 JUMPI PUSH1 0x0 DUP1 REVERT JUMPDEST POP PUSH1 0x0 SLOAD PUSH1 0x40 MLOAD PUSH1 0x1 PUSH1 0x1 PUSH1 0xA0 SHL SUB SWAP1 SWAP2 AND DUP2 MSTORE PUSH1 0x20 ADD PUSH2 0x152 JUMP JUMPDEST CALLVALUE DUP1 ISZERO PUSH2 0x23E JUMPI PUSH1 0x0 DUP1 REVERT JUMPDEST POP PUSH2 0x170 PUSH2 0x24D CALLDATASIZE PUSH1 0x4 PUSH2 0x1200 JUMP JUMPDEST PUSH2 0x6AF JUMP JUMPDEST CALLVALUE DUP1 ISZERO PUSH2 0x25E JUMPI PUSH1 0x0 DUP1 REVERT JUMPDEST POP PUSH2 0x188 PUSH1 0x7 SLOAD DUP2 JUMP JUMPDEST PUSH2 0x170 PUSH2 0x276 CALLDATASIZE PUSH1 0x4 PUSH2 0x1222 JUMP JUMPDEST PUSH2 0x735 JUMP JUMPDEST CALLVALUE DUP1 ISZERO PUSH2 0x287 JUMPI PUSH1 0x0 DUP1 REVERT JUMPDEST POP PUSH2 0x170 PUSH2 0x8CB JUMP JUMPDEST CALLVALUE DUP1 ISZERO PUSH2 0x29C JUMPI PUSH1 0x0 DUP1 REVERT JUMPDEST POP PUSH2 0x188 PUSH2 0x939 JUMP JUMPDEST CALLVALUE DUP1 ISZERO PUSH2 0x2B1 JUMPI PUSH1 0x0 DUP1 REVERT JUMPDEST POP PUSH2 0x188 PUSH1 0x4 SLOAD DUP2 JUMP JUMPDEST CALLVALUE DUP1 ISZERO PUSH2 0x2C7 JUMPI PUSH1 0x0 DUP1 REVERT JUMPDEST POP PUSH2 0x170 PUSH2 0xA7D JUMP JUMPDEST CALLVALUE DUP1 ISZERO PUSH2 0x2DC JUMPI PUSH1 0x0 DUP1 REVERT JUMPDEST POP PUSH2 0x170 PUSH2 0x2EB CALLDATASIZE PUSH1 0x4 PUSH2 0x123B JUMP JUMPDEST PUSH2 0xE3F JUMP JUMPDEST CALLVALUE DUP1 ISZERO PUSH2 0x2FC JUMPI PUSH1 0x0 DUP1 REVERT JUMPDEST POP PUSH2 0x310 PUSH2 0x30B CALLDATASIZE PUSH1 0x4 PUSH2 0x1222 JUMP JUMPDEST PUSH2 0xEDA JUMP JUMPDEST PUSH1 0x40 DUP1 MLOAD PUSH1 0x1 PUSH1 0x1 PUSH1 0xA0 SHL SUB SWAP1 SWAP5 AND DUP5 MSTORE PUSH1 0x20 DUP5 ADD SWAP3 SWAP1 SWAP3 MSTORE SWAP1 DUP3 ADD MSTORE PUSH1 0x60 ADD PUSH2 0x152 JUMP JUMPDEST CALLVALUE DUP1 ISZERO PUSH2 0x341 JUMPI PUSH1 0x0 DUP1 REVERT JUMPDEST POP SELFBALANCE PUSH2 0x188 JUMP JUMPDEST PUSH1 0x0 SLOAD PUSH1 0x1 PUSH1 0x1 PUSH1 0xA0 SHL SUB AND CALLER EQ PUSH2 0x37B JUMPI PUSH1 0x40 MLOAD PUSH3 0x461BCD PUSH1 0xE5 SHL DUP2 MSTORE PUSH1 0x4 ADD PUSH2 0x372 SWAP1 PUSH2 0x126B JUMP JUMPDEST PUSH1 0x40 MLOAD DUP1 SWAP2 SUB SWAP1 REVERT JUMPDEST PUSH1 0x2 PUSH1 0x8 SLOAD PUSH1 0x1 PUSH1 0xA0 SHL SWAP1 DIV PUSH1 0xFF AND PUSH1 0x2 DUP2 GT ISZERO PUSH2 0x39B JUMPI PUSH2 0x39B PUSH2 0x11C2 JUMP JUMPDEST EQ PUSH2 0x3B8 JUMPI PUSH1 0x40 MLOAD PUSH3 0x461BCD PUSH1 0xE5 SHL DUP2 MSTORE PUSH1 0x4 ADD PUSH2 0x372 SWAP1 PUSH2 0x12A0 JUMP JUMPDEST PUSH1 0x0 JUMPDEST PUSH1 0x9 SLOAD DUP2 LT ISZERO PUSH2 0x520 JUMPI PUSH1 0x6 SLOAD ISZERO PUSH2 0x50E JUMPI PUSH1 0x0 PUSH1 0x9 DUP3 DUP2 SLOAD DUP2 LT PUSH2 0x3E2 JUMPI PUSH2 0x3E2 PUSH2 0x12CF JUMP JUMPDEST SWAP1 PUSH1 0x0 MSTORE PUSH1 0x20 PUSH1 0x0 KECCAK256 SWAP1 PUSH1 0x3 MUL ADD PUSH1 0x2 ADD SLOAD SWAP1 POP PUSH1 0x6 SLOAD DUP2 GT PUSH2 0x50C JUMPI PUSH1 0x0 PUSH1 0x9 DUP4 DUP2 SLOAD DUP2 LT PUSH2 0x414 JUMPI PUSH2 0x414 PUSH2 0x12CF JUMP JUMPDEST SWAP1 PUSH1 0x0 MSTORE PUSH1 0x20 PUSH1 0x0 KECCAK256 SWAP1 PUSH1 0x3 MUL ADD PUSH1 0x2 ADD SLOAD PUSH1 0x64 PUSH1 0x9 DUP6 DUP2 SLOAD DUP2 LT PUSH2 0x43B JUMPI PUSH2 0x43B PUSH2 0x12CF JUMP JUMPDEST SWAP1 PUSH1 0x0 MSTORE PUSH1 0x20 PUSH1 0x0 KECCAK256 SWAP1 PUSH1 0x3 MUL ADD PUSH1 0x1 ADD SLOAD PUSH2 0x457 SWAP2 SWAP1 PUSH2 0x1311 JUMP JUMPDEST PUSH2 0x461 SWAP2 SWAP1 PUSH2 0x1325 JUMP JUMPDEST SWAP1 POP PUSH1 0x0 PUSH1 0x9 DUP5 DUP2 SLOAD DUP2 LT PUSH2 0x478 JUMPI PUSH2 0x478 PUSH2 0x12CF JUMP JUMPDEST PUSH1 0x0 SWAP2 DUP3 MSTORE PUSH1 0x20 DUP3 KECCAK256 PUSH1 0x3 SWAP1 SWAP2 MUL ADD SLOAD PUSH1 0x40 MLOAD PUSH1 0x1 PUSH1 0x1 PUSH1 0xA0 SHL SUB SWAP1 SWAP2 AND SWAP3 POP DUP3 SWAP1 DUP5 ISZERO PUSH2 0x8FC MUL SWAP1 DUP6 SWAP1 DUP5 DUP2 DUP2 DUP2 DUP6 DUP9 DUP9 CALL SWAP4 POP POP POP POP SWAP1 POP DUP1 PUSH2 0x4F3 JUMPI PUSH1 0x40 MLOAD PUSH3 0x461BCD PUSH1 0xE5 SHL DUP2 MSTORE PUSH1 0x20 PUSH1 0x4 DUP3 ADD MSTORE PUSH1 0x11 PUSH1 0x24 DUP3 ADD MSTORE PUSH17 0x73656E64696E67204661696C6564212121 PUSH1 0x78 SHL PUSH1 0x44 DUP3 ADD MSTORE PUSH1 0x64 ADD PUSH2 0x372 JUMP JUMPDEST PUSH1 0x7 DUP1 SLOAD SWAP1 PUSH1 0x0 PUSH2 0x503 DUP4 PUSH2 0x1344 JUMP JUMPDEST SWAP2 SWAP1 POP SSTORE POP POP POP POP JUMPDEST POP JUMPDEST DUP1 PUSH2 0x518 DUP2 PUSH2 0x1344 JUMP JUMPDEST SWAP2 POP POP PUSH2 0x3BB JUMP JUMPDEST POP PUSH2 0x52D PUSH1 0x9 PUSH1 0x0 PUSH2 0x1175 JUMP JUMPDEST PUSH1 0x8 DUP1 SLOAD PUSH1 0x1 SWAP2 SWAP1 PUSH1 0xFF PUSH1 0xA0 SHL NOT AND PUSH1 0x1 PUSH1 0xA0 SHL DUP4 JUMPDEST MUL OR SWAP1 SSTORE POP JUMP JUMPDEST PUSH1 0x0 SLOAD PUSH1 0x1 PUSH1 0x1 PUSH1 0xA0 SHL SUB AND CALLER EQ PUSH2 0x574 JUMPI PUSH1 0x40 MLOAD PUSH3 0x461BCD PUSH1 0xE5 SHL DUP2 MSTORE PUSH1 0x4 ADD PUSH2 0x372 SWAP1 PUSH2 0x126B JUMP JUMPDEST PUSH1 0x0 CALLVALUE GT PUSH2 0x5B9 JUMPI PUSH1 0x40 MLOAD PUSH3 0x461BCD PUSH1 0xE5 SHL DUP2 MSTORE PUSH1 0x20 PUSH1 0x4 DUP3 ADD MSTORE PUSH1 0x12 PUSH1 0x24 DUP3 ADD MSTORE PUSH18 0x697473206E6F742063686172676564212121 PUSH1 0x70 SHL PUSH1 0x44 DUP3 ADD MSTORE PUSH1 0x64 ADD PUSH2 0x372 JUMP JUMPDEST JUMP JUMPDEST PUSH1 0x0 DUP1 PUSH1 0x8 PUSH1 0x0 SWAP1 SLOAD SWAP1 PUSH2 0x100 EXP SWAP1 DIV PUSH1 0x1 PUSH1 0x1 PUSH1 0xA0 SHL SUB AND PUSH1 0x1 PUSH1 0x1 PUSH1 0xA0 SHL SUB AND PUSH4 0xFEAF968C PUSH1 0x40 MLOAD DUP2 PUSH4 0xFFFFFFFF AND PUSH1 0xE0 SHL DUP2 MSTORE PUSH1 0x4 ADD PUSH1 0xA0 PUSH1 0x40 MLOAD DUP1 DUP4 SUB DUP2 DUP7 GAS STATICCALL ISZERO DUP1 ISZERO PUSH2 0x611 JUMPI RETURNDATASIZE PUSH1 0x0 DUP1 RETURNDATACOPY RETURNDATASIZE PUSH1 0x0 REVERT JUMPDEST POP POP POP POP PUSH1 0x40 MLOAD RETURNDATASIZE PUSH1 0x1F NOT PUSH1 0x1F DUP3 ADD AND DUP3 ADD DUP1 PUSH1 0x40 MSTORE POP DUP2 ADD SWAP1 PUSH2 0x635 SWAP2 SWAP1 PUSH2 0x137C JUMP JUMPDEST POP POP POP SWAP2 POP POP PUSH1 0x0 DUP2 PUSH5 0x2540BE400 PUSH2 0x64E SWAP2 SWAP1 PUSH2 0x1325 JUMP JUMPDEST SWAP1 POP PUSH1 0x0 DUP2 PUSH1 0x2 SLOAD PUSH8 0xDE0B6B3A7640000 PUSH2 0x669 SWAP2 SWAP1 PUSH2 0x1325 JUMP JUMPDEST PUSH2 0x673 SWAP2 SWAP1 PUSH2 0x1311 JUMP JUMPDEST SWAP5 SWAP4 POP POP POP POP JUMP JUMPDEST PUSH1 0x0 SLOAD PUSH1 0x1 PUSH1 0x1 PUSH1 0xA0 SHL SUB AND CALLER EQ PUSH2 0x6A5 JUMPI PUSH1 0x40 MLOAD PUSH3 0x461BCD PUSH1 0xE5 SHL DUP2 MSTORE PUSH1 0x4 ADD PUSH2 0x372 SWAP1 PUSH2 0x126B JUMP JUMPDEST PUSH2 0x5B9 PUSH1 0x0 PUSH2 0xF17 JUMP JUMPDEST CALLER PUSH1 0x1 PUSH1 0x1 PUSH1 0xA0 SHL SUB PUSH32 0x0 AND EQ PUSH2 0x727 JUMPI PUSH1 0x40 MLOAD PUSH3 0x461BCD PUSH1 0xE5 SHL DUP2 MSTORE PUSH1 0x20 PUSH1 0x4 DUP3 ADD MSTORE PUSH1 0x1F PUSH1 0x24 DUP3 ADD MSTORE PUSH32 0x4F6E6C7920565246436F6F7264696E61746F722063616E2066756C66696C6C00 PUSH1 0x44 DUP3 ADD MSTORE PUSH1 0x64 ADD PUSH2 0x372 JUMP JUMPDEST PUSH2 0x731 DUP3 DUP3 PUSH2 0xF67 JUMP JUMPDEST POP POP JUMP JUMPDEST PUSH1 0x0 PUSH1 0x8 SLOAD PUSH1 0x1 PUSH1 0xA0 SHL SWAP1 DIV PUSH1 0xFF AND PUSH1 0x2 DUP2 GT ISZERO PUSH2 0x755 JUMPI PUSH2 0x755 PUSH2 0x11C2 JUMP JUMPDEST EQ PUSH2 0x75F JUMPI PUSH1 0x0 DUP1 REVERT JUMPDEST PUSH2 0x767 PUSH2 0x5BB JUMP JUMPDEST CALLVALUE LT ISZERO PUSH2 0x7B6 JUMPI PUSH1 0x40 MLOAD PUSH3 0x461BCD PUSH1 0xE5 SHL DUP2 MSTORE PUSH1 0x20 PUSH1 0x4 DUP3 ADD MSTORE PUSH1 0x1D PUSH1 0x24 DUP3 ADD MSTORE PUSH32 0x6E6F7420656E6F756768206D6F6E657920666F7220626C617374212121000000 PUSH1 0x44 DUP3 ADD MSTORE PUSH1 0x64 ADD PUSH2 0x372 JUMP JUMPDEST PUSH1 0x64 DUP2 GT DUP1 ISZERO PUSH2 0x7C8 JUMPI POP PUSH2 0x3E8 DUP2 GT ISZERO JUMPDEST PUSH2 0x809 JUMPI PUSH1 0x40 MLOAD PUSH3 0x461BCD PUSH1 0xE5 SHL DUP2 MSTORE PUSH1 0x20 PUSH1 0x4 DUP3 ADD MSTORE PUSH1 0x12 PUSH1 0x24 DUP3 ADD MSTORE PUSH18 0x696E636F727265637420726174696F212121 PUSH1 0x70 SHL PUSH1 0x44 DUP3 ADD MSTORE PUSH1 0x64 ADD PUSH2 0x372 JUMP JUMPDEST PUSH1 0x40 DUP1 MLOAD PUSH1 0x60 DUP2 ADD DUP3 MSTORE CALLER DUP2 MSTORE CALLVALUE PUSH1 0x20 DUP3 ADD SWAP1 DUP2 MSTORE SWAP2 DUP2 ADD SWAP3 DUP4 MSTORE PUSH1 0x9 DUP1 SLOAD PUSH1 0x1 DUP2 ADD DUP3 SSTORE PUSH1 0x0 SWAP2 SWAP1 SWAP2 MSTORE SWAP1 MLOAD PUSH32 0x6E1540171B6C0C960B71A7020D9F60077F6AF931A8BBF590DA0223DACF75C7AF PUSH1 0x3 SWAP1 SWAP3 MUL SWAP2 DUP3 ADD DUP1 SLOAD PUSH1 0x1 PUSH1 0x1 PUSH1 0xA0 SHL SUB NOT AND PUSH1 0x1 PUSH1 0x1 PUSH1 0xA0 SHL SUB SWAP1 SWAP3 AND SWAP2 SWAP1 SWAP2 OR SWAP1 SSTORE SWAP1 MLOAD PUSH32 0x6E1540171B6C0C960B71A7020D9F60077F6AF931A8BBF590DA0223DACF75C7B0 DUP3 ADD SSTORE SWAP1 MLOAD PUSH32 0x6E1540171B6C0C960B71A7020D9F60077F6AF931A8BBF590DA0223DACF75C7B1 SWAP1 SWAP2 ADD SSTORE JUMP JUMPDEST PUSH1 0x0 SLOAD PUSH1 0x1 PUSH1 0x1 PUSH1 0xA0 SHL SUB AND CALLER EQ PUSH2 0x8F5 JUMPI PUSH1 0x40 MLOAD PUSH3 0x461BCD PUSH1 0xE5 SHL DUP2 MSTORE PUSH1 0x4 ADD PUSH2 0x372 SWAP1 PUSH2 0x126B JUMP JUMPDEST PUSH1 0x1 PUSH1 0x8 SLOAD PUSH1 0x1 PUSH1 0xA0 SHL SWAP1 DIV PUSH1 0xFF AND PUSH1 0x2 DUP2 GT ISZERO PUSH2 0x915 JUMPI PUSH2 0x915 PUSH2 0x11C2 JUMP JUMPDEST EQ PUSH2 0x91F JUMPI PUSH1 0x0 DUP1 REVERT JUMPDEST PUSH1 0x8 DUP1 SLOAD PUSH1 0x0 SWAP2 SWAP1 PUSH1 0xFF PUSH1 0xA0 SHL NOT AND PUSH1 0x1 PUSH1 0xA0 SHL DUP4 PUSH2 0x543 JUMP JUMPDEST PUSH1 0x0 DUP1 SLOAD PUSH1 0x1 PUSH1 0x1 PUSH1 0xA0 SHL SUB AND CALLER EQ PUSH2 0x964 JUMPI PUSH1 0x40 MLOAD PUSH3 0x461BCD PUSH1 0xE5 SHL DUP2 MSTORE PUSH1 0x4 ADD PUSH2 0x372 SWAP1 PUSH2 0x126B JUMP JUMPDEST PUSH1 0x4 DUP1 SLOAD PUSH1 0x40 MLOAD PUSH4 0x70A08231 PUSH1 0xE0 SHL DUP2 MSTORE ADDRESS SWAP3 DUP2 ADD SWAP3 SWAP1 SWAP3 MSTORE SWAP1 PUSH1 0x1 PUSH1 0x1 PUSH1 0xA0 SHL SUB PUSH32 0x0 AND SWAP1 PUSH4 0x70A08231 SWAP1 PUSH1 0x24 ADD PUSH1 0x20 PUSH1 0x40 MLOAD DUP1 DUP4 SUB DUP2 DUP7 GAS STATICCALL ISZERO DUP1 ISZERO PUSH2 0x9CF JUMPI RETURNDATASIZE PUSH1 0x0 DUP1 RETURNDATACOPY RETURNDATASIZE PUSH1 0x0 REVERT JUMPDEST POP POP POP POP PUSH1 0x40 MLOAD RETURNDATASIZE PUSH1 0x1F NOT PUSH1 0x1F DUP3 ADD AND DUP3 ADD DUP1 PUSH1 0x40 MSTORE POP DUP2 ADD SWAP1 PUSH2 0x9F3 SWAP2 SWAP1 PUSH2 0x13CC JUMP JUMPDEST LT ISZERO PUSH2 0xA55 JUMPI PUSH1 0x40 MLOAD PUSH3 0x461BCD PUSH1 0xE5 SHL DUP2 MSTORE PUSH1 0x20 PUSH1 0x4 DUP3 ADD MSTORE PUSH1 0x2B PUSH1 0x24 DUP3 ADD MSTORE PUSH32 0x4E6F7420656E6F756768204C494E4B202D2066696C6C20636F6E747261637420 PUSH1 0x44 DUP3 ADD MSTORE PUSH11 0x1DDA5D1A0819985D58D95D PUSH1 0xAA SHL PUSH1 0x64 DUP3 ADD MSTORE PUSH1 0x84 ADD PUSH2 0x372 JUMP JUMPDEST PUSH1 0x8 DUP1 SLOAD PUSH1 0xFF PUSH1 0xA0 SHL NOT AND PUSH1 0x1 PUSH1 0xA1 SHL OR SWAP1 SSTORE PUSH1 0x3 SLOAD PUSH1 0x4 SLOAD PUSH2 0xA78 SWAP2 SWAP1 PUSH2 0xFFA JUMP JUMPDEST SWAP1 POP SWAP1 JUMP JUMPDEST PUSH1 0x0 SLOAD PUSH1 0x1 PUSH1 0x1 PUSH1 0xA0 SHL SUB AND CALLER EQ PUSH2 0xAA7 JUMPI PUSH1 0x40 MLOAD PUSH3 0x461BCD PUSH1 0xE5 SHL DUP2 MSTORE PUSH1 0x4 ADD PUSH2 0x372 SWAP1 PUSH2 0x126B JUMP JUMPDEST PUSH1 0x2 PUSH1 0x8 SLOAD PUSH1 0x1 PUSH1 0xA0 SHL SWAP1 DIV PUSH1 0xFF AND PUSH1 0x2 DUP2 GT ISZERO PUSH2 0xAC7 JUMPI PUSH2 0xAC7 PUSH2 0x11C2 JUMP JUMPDEST EQ PUSH2 0xAE4 JUMPI PUSH1 0x40 MLOAD PUSH3 0x461BCD PUSH1 0xE5 SHL DUP2 MSTORE PUSH1 0x4 ADD PUSH2 0x372 SWAP1 PUSH2 0x12A0 JUMP JUMPDEST PUSH1 0x0 PUSH2 0x3E8 PUSH1 0x5 SLOAD PUSH2 0xAF6 SWAP2 SWAP1 PUSH2 0x13E5 JUMP JUMPDEST SWAP1 POP PUSH1 0x0 DUP1 PUSH1 0x13 DUP4 GT ISZERO DUP1 ISZERO PUSH2 0xB0A JUMPI POP PUSH1 0x1 JUMPDEST ISZERO PUSH2 0xB19 JUMPI PUSH1 0x0 PUSH1 0x6 SSTORE POP POP POP JUMP JUMPDEST PUSH2 0x239 DUP4 GT ISZERO DUP1 ISZERO PUSH2 0xB2C JUMPI POP PUSH1 0x14 DUP4 LT ISZERO JUMPDEST ISZERO PUSH2 0xB75 JUMPI POP PUSH2 0x23A SWAP1 POP PUSH1 0x14 PUSH2 0xB43 DUP2 DUP4 PUSH2 0x13F9 JUMP JUMPDEST PUSH2 0xB4D DUP3 DUP6 PUSH2 0x13F9 JUMP JUMPDEST PUSH2 0xB58 SWAP1 PUSH1 0x64 PUSH2 0x1325 JUMP JUMPDEST PUSH2 0xB62 SWAP2 SWAP1 PUSH2 0x1311 JUMP JUMPDEST PUSH2 0xB6D SWAP1 PUSH1 0x64 PUSH2 0x1410 JUMP JUMPDEST PUSH1 0x6 SSTORE POP POP POP JUMP JUMPDEST PUSH2 0x30B DUP4 GT ISZERO DUP1 ISZERO PUSH2 0xB89 JUMPI POP PUSH2 0x23A DUP4 LT ISZERO JUMPDEST ISZERO PUSH2 0xBCB JUMPI POP PUSH2 0x30C SWAP1 POP PUSH2 0x23A PUSH2 0xBA1 DUP2 DUP4 PUSH2 0x13F9 JUMP JUMPDEST PUSH2 0xBAB DUP3 DUP6 PUSH2 0x13F9 JUMP JUMPDEST PUSH2 0xBB6 SWAP1 PUSH1 0x64 PUSH2 0x1325 JUMP JUMPDEST PUSH2 0xBC0 SWAP2 SWAP1 PUSH2 0x1311 JUMP JUMPDEST PUSH2 0xB6D SWAP1 PUSH1 0xC8 PUSH2 0x1410 JUMP JUMPDEST PUSH2 0x30C DUP4 LT ISZERO DUP1 ISZERO PUSH2 0xBDF JUMPI POP PUSH2 0x36F DUP4 GT ISZERO JUMPDEST ISZERO PUSH2 0xC22 JUMPI POP PUSH2 0x370 SWAP1 POP PUSH2 0x30C PUSH2 0xBF7 DUP2 DUP4 PUSH2 0x13F9 JUMP JUMPDEST PUSH2 0xC01 DUP3 DUP6 PUSH2 0x13F9 JUMP JUMPDEST PUSH2 0xC0C SWAP1 PUSH1 0x64 PUSH2 0x1325 JUMP JUMPDEST PUSH2 0xC16 SWAP2 SWAP1 PUSH2 0x1311 JUMP JUMPDEST PUSH2 0xB6D SWAP1 PUSH2 0x12C PUSH2 0x1410 JUMP JUMPDEST PUSH2 0x370 DUP4 LT ISZERO DUP1 ISZERO PUSH2 0xC36 JUMPI POP PUSH2 0x3A1 DUP4 GT ISZERO JUMPDEST ISZERO PUSH2 0xC79 JUMPI POP PUSH2 0x3A2 SWAP1 POP PUSH2 0x370 PUSH2 0xC4E DUP2 DUP4 PUSH2 0x13F9 JUMP JUMPDEST PUSH2 0xC58 DUP3 DUP6 PUSH2 0x13F9 JUMP JUMPDEST PUSH2 0xC63 SWAP1 PUSH1 0x64 PUSH2 0x1325 JUMP JUMPDEST PUSH2 0xC6D SWAP2 SWAP1 PUSH2 0x1311 JUMP JUMPDEST PUSH2 0xB6D SWAP1 PUSH2 0x190 PUSH2 0x1410 JUMP JUMPDEST PUSH2 0x3A2 DUP4 LT ISZERO DUP1 ISZERO PUSH2 0xC8D JUMPI POP PUSH2 0x3BF DUP4 GT ISZERO JUMPDEST ISZERO PUSH2 0xCD0 JUMPI POP PUSH2 0x3C0 SWAP1 POP PUSH2 0x3A2 PUSH2 0xCA5 DUP2 DUP4 PUSH2 0x13F9 JUMP JUMPDEST PUSH2 0xCAF DUP3 DUP6 PUSH2 0x13F9 JUMP JUMPDEST PUSH2 0xCBA SWAP1 PUSH1 0x64 PUSH2 0x1325 JUMP JUMPDEST PUSH2 0xCC4 SWAP2 SWAP1 PUSH2 0x1311 JUMP JUMPDEST PUSH2 0xB6D SWAP1 PUSH2 0x1F4 PUSH2 0x1410 JUMP JUMPDEST PUSH2 0x3C0 DUP4 LT ISZERO DUP1 ISZERO PUSH2 0xCE4 JUMPI POP PUSH2 0x3D3 DUP4 GT ISZERO JUMPDEST ISZERO PUSH2 0xD26 JUMPI POP PUSH2 0x23A SWAP1 POP PUSH1 0x14 PUSH2 0xCFB DUP2 DUP4 PUSH2 0x13F9 JUMP JUMPDEST PUSH2 0xD05 DUP3 DUP6 PUSH2 0x13F9 JUMP JUMPDEST PUSH2 0xD10 SWAP1 PUSH1 0x64 PUSH2 0x1325 JUMP JUMPDEST PUSH2 0xD1A SWAP2 SWAP1 PUSH2 0x1311 JUMP JUMPDEST PUSH2 0xB6D SWAP1 PUSH2 0x258 PUSH2 0x1410 JUMP JUMPDEST PUSH2 0x3D4 DUP4 LT ISZERO DUP1 ISZERO PUSH2 0xD3A JUMPI POP PUSH2 0x3DD DUP4 GT ISZERO JUMPDEST ISZERO PUSH2 0xD7D JUMPI POP PUSH2 0x3DE SWAP1 POP PUSH2 0x3D4 PUSH2 0xD52 DUP2 DUP4 PUSH2 0x13F9 JUMP JUMPDEST PUSH2 0xD5C DUP3 DUP6 PUSH2 0x13F9 JUMP JUMPDEST PUSH2 0xD67 SWAP1 PUSH1 0x64 PUSH2 0x1325 JUMP JUMPDEST PUSH2 0xD71 SWAP2 SWAP1 PUSH2 0x1311 JUMP JUMPDEST PUSH2 0xB6D SWAP1 PUSH2 0x2BC PUSH2 0x1410 JUMP JUMPDEST PUSH2 0x3DE DUP4 LT ISZERO DUP1 ISZERO PUSH2 0xD91 JUMPI POP PUSH2 0x3E2 DUP4 GT ISZERO JUMPDEST ISZERO PUSH2 0xDD4 JUMPI POP PUSH2 0x3E3 SWAP1 POP PUSH2 0x3DE PUSH2 0xDA9 DUP2 DUP4 PUSH2 0x13F9 JUMP JUMPDEST PUSH2 0xDB3 DUP3 DUP6 PUSH2 0x13F9 JUMP JUMPDEST PUSH2 0xDBE SWAP1 PUSH1 0x64 PUSH2 0x1325 JUMP JUMPDEST PUSH2 0xDC8 SWAP2 SWAP1 PUSH2 0x1311 JUMP JUMPDEST PUSH2 0xB6D SWAP1 PUSH2 0x320 PUSH2 0x1410 JUMP JUMPDEST PUSH2 0x3E3 DUP4 LT ISZERO DUP1 ISZERO PUSH2 0xDE8 JUMPI POP PUSH2 0x3E6 DUP4 GT ISZERO JUMPDEST ISZERO PUSH2 0xE2B JUMPI POP PUSH2 0x3E7 SWAP1 POP PUSH2 0x3E3 PUSH2 0xE00 DUP2 DUP4 PUSH2 0x13F9 JUMP JUMPDEST PUSH2 0xE0A DUP3 DUP6 PUSH2 0x13F9 JUMP JUMPDEST PUSH2 0xE15 SWAP1 PUSH1 0x64 PUSH2 0x1325 JUMP JUMPDEST PUSH2 0xE1F SWAP2 SWAP1 PUSH2 0x1311 JUMP JUMPDEST PUSH2 0xB6D SWAP1 PUSH2 0x384 PUSH2 0x1410 JUMP JUMPDEST DUP3 PUSH2 0x3E7 SUB PUSH2 0xE3A JUMPI PUSH1 0xA PUSH1 0x6 SSTORE JUMPDEST POP POP POP JUMP JUMPDEST PUSH1 0x0 SLOAD PUSH1 0x1 PUSH1 0x1 PUSH1 0xA0 SHL SUB AND CALLER EQ PUSH2 0xE69 JUMPI PUSH1 0x40 MLOAD PUSH3 0x461BCD PUSH1 0xE5 SHL DUP2 MSTORE PUSH1 0x4 ADD PUSH2 0x372 SWAP1 PUSH2 0x126B JUMP JUMPDEST PUSH1 0x1 PUSH1 0x1 PUSH1 0xA0 SHL SUB DUP2 AND PUSH2 0xECE JUMPI PUSH1 0x40 MLOAD PUSH3 0x461BCD PUSH1 0xE5 SHL DUP2 MSTORE PUSH1 0x20 PUSH1 0x4 DUP3 ADD MSTORE PUSH1 0x26 PUSH1 0x24 DUP3 ADD MSTORE PUSH32 0x4F776E61626C653A206E6577206F776E657220697320746865207A65726F2061 PUSH1 0x44 DUP3 ADD MSTORE PUSH6 0x646472657373 PUSH1 0xD0 SHL PUSH1 0x64 DUP3 ADD MSTORE PUSH1 0x84 ADD PUSH2 0x372 JUMP JUMPDEST PUSH2 0xED7 DUP2 PUSH2 0xF17 JUMP JUMPDEST POP JUMP JUMPDEST PUSH1 0x9 DUP2 DUP2 SLOAD DUP2 LT PUSH2 0xEEA JUMPI PUSH1 0x0 DUP1 REVERT JUMPDEST PUSH1 0x0 SWAP2 DUP3 MSTORE PUSH1 0x20 SWAP1 SWAP2 KECCAK256 PUSH1 0x3 SWAP1 SWAP2 MUL ADD DUP1 SLOAD PUSH1 0x1 DUP3 ADD SLOAD PUSH1 0x2 SWAP1 SWAP3 ADD SLOAD PUSH1 0x1 PUSH1 0x1 PUSH1 0xA0 SHL SUB SWAP1 SWAP2 AND SWAP3 POP DUP4 JUMP JUMPDEST PUSH1 0x0 DUP1 SLOAD PUSH1 0x1 PUSH1 0x1 PUSH1 0xA0 SHL SUB DUP4 DUP2 AND PUSH1 0x1 PUSH1 0x1 PUSH1 0xA0 SHL SUB NOT DUP4 AND DUP2 OR DUP5 SSTORE PUSH1 0x40 MLOAD SWAP2 SWAP1 SWAP3 AND SWAP3 DUP4 SWAP2 PUSH32 0x8BE0079C531659141344CD1FD0A4F28419497F9722A3DAAFE3B4186F6B6457E0 SWAP2 SWAP1 LOG3 POP POP JUMP JUMPDEST PUSH1 0x2 PUSH1 0x8 SLOAD PUSH1 0x1 PUSH1 0xA0 SHL SWAP1 DIV PUSH1 0xFF AND PUSH1 0x2 DUP2 GT ISZERO PUSH2 0xF87 JUMPI PUSH2 0xF87 PUSH2 0x11C2 JUMP JUMPDEST EQ PUSH2 0xFA4 JUMPI PUSH1 0x40 MLOAD PUSH3 0x461BCD PUSH1 0xE5 SHL DUP2 MSTORE PUSH1 0x4 ADD PUSH2 0x372 SWAP1 PUSH2 0x12A0 JUMP JUMPDEST PUSH1 0x0 DUP2 GT PUSH2 0xFF4 JUMPI PUSH1 0x40 MLOAD PUSH3 0x461BCD PUSH1 0xE5 SHL DUP2 MSTORE PUSH1 0x20 PUSH1 0x4 DUP3 ADD DUP2 SWAP1 MSTORE PUSH1 0x24 DUP3 ADD MSTORE PUSH32 0x7468657265206973206E6F2072616E646F6D206E756D62657220796574212121 PUSH1 0x44 DUP3 ADD MSTORE PUSH1 0x64 ADD PUSH2 0x372 JUMP JUMPDEST PUSH1 0x5 SSTORE POP JUMP JUMPDEST PUSH1 0x0 PUSH32 0x0 PUSH1 0x1 PUSH1 0x1 PUSH1 0xA0 SHL SUB AND PUSH4 0x4000AEA0 PUSH32 0x0 DUP5 DUP7 PUSH1 0x0 PUSH1 0x40 MLOAD PUSH1 0x20 ADD PUSH2 0x106A SWAP3 SWAP2 SWAP1 SWAP2 DUP3 MSTORE PUSH1 0x20 DUP3 ADD MSTORE PUSH1 0x40 ADD SWAP1 JUMP JUMPDEST PUSH1 0x40 MLOAD PUSH1 0x20 DUP2 DUP4 SUB SUB DUP2 MSTORE SWAP1 PUSH1 0x40 MSTORE PUSH1 0x40 MLOAD DUP5 PUSH4 0xFFFFFFFF AND PUSH1 0xE0 SHL DUP2 MSTORE PUSH1 0x4 ADD PUSH2 0x1097 SWAP4 SWAP3 SWAP2 SWAP1 PUSH2 0x1428 JUMP JUMPDEST PUSH1 0x20 PUSH1 0x40 MLOAD DUP1 DUP4 SUB DUP2 PUSH1 0x0 DUP8 GAS CALL ISZERO DUP1 ISZERO PUSH2 0x10B6 JUMPI RETURNDATASIZE PUSH1 0x0 DUP1 RETURNDATACOPY RETURNDATASIZE PUSH1 0x0 REVERT JUMPDEST POP POP POP POP PUSH1 0x40 MLOAD RETURNDATASIZE PUSH1 0x1F NOT PUSH1 0x1F DUP3 ADD AND DUP3 ADD DUP1 PUSH1 0x40 MSTORE POP DUP2 ADD SWAP1 PUSH2 0x10DA SWAP2 SWAP1 PUSH2 0x1494 JUMP JUMPDEST POP PUSH1 0x0 DUP4 DUP2 MSTORE PUSH1 0x1 PUSH1 0x20 DUP2 DUP2 MSTORE PUSH1 0x40 DUP1 DUP5 KECCAK256 SLOAD DUP2 MLOAD DUP1 DUP5 ADD DUP10 SWAP1 MSTORE DUP1 DUP4 ADD DUP7 SWAP1 MSTORE ADDRESS PUSH1 0x60 DUP3 ADD MSTORE PUSH1 0x80 DUP1 DUP3 ADD DUP4 SWAP1 MSTORE DUP4 MLOAD DUP1 DUP4 SUB SWAP1 SWAP2 ADD DUP2 MSTORE PUSH1 0xA0 SWAP1 SWAP2 ADD SWAP1 SWAP3 MSTORE DUP2 MLOAD SWAP2 DUP4 ADD SWAP2 SWAP1 SWAP2 KECCAK256 SWAP4 DUP8 SWAP1 MSTORE SWAP1 DUP3 SWAP1 MSTORE PUSH2 0x1135 SWAP2 PUSH2 0x1410 JUMP JUMPDEST PUSH1 0x0 DUP6 DUP2 MSTORE PUSH1 0x1 PUSH1 0x20 MSTORE PUSH1 0x40 SWAP1 KECCAK256 SSTORE PUSH2 0x673 DUP5 DUP3 PUSH1 0x40 DUP1 MLOAD PUSH1 0x20 DUP1 DUP3 ADD SWAP5 SWAP1 SWAP5 MSTORE DUP1 DUP3 ADD SWAP3 SWAP1 SWAP3 MSTORE DUP1 MLOAD DUP1 DUP4 SUB DUP3 ADD DUP2 MSTORE PUSH1 0x60 SWAP1 SWAP3 ADD SWAP1 MSTORE DUP1 MLOAD SWAP2 ADD KECCAK256 SWAP1 JUMP JUMPDEST POP DUP1 SLOAD PUSH1 0x0 DUP3 SSTORE PUSH1 0x3 MUL SWAP1 PUSH1 0x0 MSTORE PUSH1 0x20 PUSH1 0x0 KECCAK256 SWAP1 DUP2 ADD SWAP1 PUSH2 0xED7 SWAP2 SWAP1 JUMPDEST DUP1 DUP3 GT ISZERO PUSH2 0x11BE JUMPI DUP1 SLOAD PUSH1 0x1 PUSH1 0x1 PUSH1 0xA0 SHL SUB NOT AND DUP2 SSTORE PUSH1 0x0 PUSH1 0x1 DUP3 ADD DUP2 SWAP1 SSTORE PUSH1 0x2 DUP3 ADD SSTORE PUSH1 0x3 ADD PUSH2 0x1192 JUMP JUMPDEST POP SWAP1 JUMP JUMPDEST PUSH4 0x4E487B71 PUSH1 0xE0 SHL PUSH1 0x0 MSTORE PUSH1 0x21 PUSH1 0x4 MSTORE PUSH1 0x24 PUSH1 0x0 REVERT JUMPDEST PUSH1 0x20 DUP2 ADD PUSH1 0x3 DUP4 LT PUSH2 0x11FA JUMPI PUSH4 0x4E487B71 PUSH1 0xE0 SHL PUSH1 0x0 MSTORE PUSH1 0x21 PUSH1 0x4 MSTORE PUSH1 0x24 PUSH1 0x0 REVERT JUMPDEST SWAP2 SWAP1 MSTORE SWAP1 JUMP JUMPDEST PUSH1 0x0 DUP1 PUSH1 0x40 DUP4 DUP6 SUB SLT ISZERO PUSH2 0x1213 JUMPI PUSH1 0x0 DUP1 REVERT JUMPDEST POP POP DUP1 CALLDATALOAD SWAP3 PUSH1 0x20 SWAP1 SWAP2 ADD CALLDATALOAD SWAP2 POP JUMP JUMPDEST PUSH1 0x0 PUSH1 0x20 DUP3 DUP5 SUB SLT ISZERO PUSH2 0x1234 JUMPI PUSH1 0x0 DUP1 REVERT JUMPDEST POP CALLDATALOAD SWAP2 SWAP1 POP JUMP JUMPDEST PUSH1 0x0 PUSH1 0x20 DUP3 DUP5 SUB SLT ISZERO PUSH2 0x124D JUMPI PUSH1 0x0 DUP1 REVERT JUMPDEST DUP2 CALLDATALOAD PUSH1 0x1 PUSH1 0x1 PUSH1 0xA0 SHL SUB DUP2 AND DUP2 EQ PUSH2 0x1264 JUMPI PUSH1 0x0 DUP1 REVERT JUMPDEST SWAP4 SWAP3 POP POP POP JUMP JUMPDEST PUSH1 0x20 DUP1 DUP3 MSTORE DUP2 DUP2 ADD MSTORE PUSH32 0x4F776E61626C653A2063616C6C6572206973206E6F7420746865206F776E6572 PUSH1 0x40 DUP3 ADD MSTORE PUSH1 0x60 ADD SWAP1 JUMP JUMPDEST PUSH1 0x20 DUP1 DUP3 MSTORE PUSH1 0x15 SWAP1 DUP3 ADD MSTORE PUSH21 0x626C617374206973206E6F7420656E646564212121 PUSH1 0x58 SHL PUSH1 0x40 DUP3 ADD MSTORE PUSH1 0x60 ADD SWAP1 JUMP JUMPDEST PUSH4 0x4E487B71 PUSH1 0xE0 SHL PUSH1 0x0 MSTORE PUSH1 0x32 PUSH1 0x4 MSTORE PUSH1 0x24 PUSH1 0x0 REVERT JUMPDEST PUSH4 0x4E487B71 PUSH1 0xE0 SHL PUSH1 0x0 MSTORE PUSH1 0x12 PUSH1 0x4 MSTORE PUSH1 0x24 PUSH1 0x0 REVERT JUMPDEST PUSH4 0x4E487B71 PUSH1 0xE0 SHL PUSH1 0x0 MSTORE PUSH1 0x11 PUSH1 0x4 MSTORE PUSH1 0x24 PUSH1 0x0 REVERT JUMPDEST PUSH1 0x0 DUP3 PUSH2 0x1320 JUMPI PUSH2 0x1320 PUSH2 0x12E5 JUMP JUMPDEST POP DIV SWAP1 JUMP JUMPDEST PUSH1 0x0 DUP2 PUSH1 0x0 NOT DIV DUP4 GT DUP3 ISZERO ISZERO AND ISZERO PUSH2 0x133F JUMPI PUSH2 0x133F PUSH2 0x12FB JUMP JUMPDEST POP MUL SWAP1 JUMP JUMPDEST PUSH1 0x0 PUSH1 0x1 DUP3 ADD PUSH2 0x1356 JUMPI PUSH2 0x1356 PUSH2 0x12FB JUMP JUMPDEST POP PUSH1 0x1 ADD SWAP1 JUMP JUMPDEST DUP1 MLOAD PUSH10 0xFFFFFFFFFFFFFFFFFFFF DUP2 AND DUP2 EQ PUSH2 0x1377 JUMPI PUSH1 0x0 DUP1 REVERT JUMPDEST SWAP2 SWAP1 POP JUMP JUMPDEST PUSH1 0x0 DUP1 PUSH1 0x0 DUP1 PUSH1 0x0 PUSH1 0xA0 DUP7 DUP9 SUB SLT ISZERO PUSH2 0x1394 JUMPI PUSH1 0x0 DUP1 REVERT JUMPDEST PUSH2 0x139D DUP7 PUSH2 0x135D JUMP JUMPDEST SWAP5 POP PUSH1 0x20 DUP7 ADD MLOAD SWAP4 POP PUSH1 0x40 DUP7 ADD MLOAD SWAP3 POP PUSH1 0x60 DUP7 ADD MLOAD SWAP2 POP PUSH2 0x13C0 PUSH1 0x80 DUP8 ADD PUSH2 0x135D JUMP JUMPDEST SWAP1 POP SWAP3 SWAP6 POP SWAP3 SWAP6 SWAP1 SWAP4 POP JUMP JUMPDEST PUSH1 0x0 PUSH1 0x20 DUP3 DUP5 SUB SLT ISZERO PUSH2 0x13DE JUMPI PUSH1 0x0 DUP1 REVERT JUMPDEST POP MLOAD SWAP2 SWAP1 POP JUMP JUMPDEST PUSH1 0x0 DUP3 PUSH2 0x13F4 JUMPI PUSH2 0x13F4 PUSH2 0x12E5 JUMP JUMPDEST POP MOD SWAP1 JUMP JUMPDEST PUSH1 0x0 DUP3 DUP3 LT ISZERO PUSH2 0x140B JUMPI PUSH2 0x140B PUSH2 0x12FB JUMP JUMPDEST POP SUB SWAP1 JUMP JUMPDEST PUSH1 0x0 DUP3 NOT DUP3 GT ISZERO PUSH2 0x1423 JUMPI PUSH2 0x1423 PUSH2 0x12FB JUMP JUMPDEST POP ADD SWAP1 JUMP JUMPDEST PUSH1 0x1 DUP1 PUSH1 0xA0 SHL SUB DUP5 AND DUP2 MSTORE PUSH1 0x0 PUSH1 0x20 DUP5 DUP2 DUP5 ADD MSTORE PUSH1 0x60 PUSH1 0x40 DUP5 ADD MSTORE DUP4 MLOAD DUP1 PUSH1 0x60 DUP6 ADD MSTORE PUSH1 0x0 JUMPDEST DUP2 DUP2 LT ISZERO PUSH2 0x146A JUMPI DUP6 DUP2 ADD DUP4 ADD MLOAD DUP6 DUP3 ADD PUSH1 0x80 ADD MSTORE DUP3 ADD PUSH2 0x144E JUMP JUMPDEST DUP2 DUP2 GT ISZERO PUSH2 0x147C JUMPI PUSH1 0x0 PUSH1 0x80 DUP4 DUP8 ADD ADD MSTORE JUMPDEST POP PUSH1 0x1F ADD PUSH1 0x1F NOT AND SWAP3 SWAP1 SWAP3 ADD PUSH1 0x80 ADD SWAP6 SWAP5 POP POP POP POP POP JUMP JUMPDEST PUSH1 0x0 PUSH1 0x20 DUP3 DUP5 SUB SLT ISZERO PUSH2 0x14A6 JUMPI PUSH1 0x0 DUP1 REVERT JUMPDEST DUP2 MLOAD DUP1 ISZERO ISZERO DUP2 EQ PUSH2 0x1264 JUMPI PUSH1 0x0 DUP1 REVERT INVALID LOG2 PUSH5 0x6970667358 0x22 SLT KECCAK256 PUSH27 0x5E020679BB4D84A9E2D808EFB9FE58EB93DBB5D41295DFC98ECE8C 0xB7 0x1F 0xDE 0xE2 PUSH5 0x736F6C6343 STOP ADDMOD 0xE STOP CALLER ",
  "sha1": "674f731837a2dd9b08271b574dc022e41704a6ad",
  "source": "// SPDX-License-Identifier: MIT\npragma solidity ^0.8.0;\n\nimport \"@chainlink/contracts/src/v0.8/interfaces/AggregatorV3Interface.sol\";\nimport \"@openzeppelin/contracts/access/Ownable.sol\";\nimport \"@chainlink/contracts/src/v0.8/VRFConsumerBase.sol\";\n\ncontract Blast is Ownable , VRFConsumerBase{\n    uint256 public entranceFeeAmount;\n    bytes32 public keyHash;\n    uint256 public fee;\n    uint256 public randomness;\n    uint256 public randomRatio; \n    uint256 public winnerCounter;\n    AggregatorV3Interface internal entranceFeeContract;\n    enum BLAST_STATUS{\n        OPEN,\n        CLOSE,\n        CALCULATING\n    }\n    BLAST_STATUS public blast_status;\n\n    event requestIdRandomness(bytes32 requestId);\n\n    constructor(address _entranceFeeAddress , address _vrfcoordinator , address _link , bytes32 _keyhash , uint256 _fee) public VRFConsumerBase(_vrfcoordinator , _link){\n        blast_status = BLAST_STATUS.CLOSE;\n        keyHash = _keyhash;\n        fee = _fee;\n        winnerCounter = 0;\n        entranceFeeAmount = 5 * (10**18);\n        entranceFeeContract = AggregatorV3Interface(_entranceFeeAddress);\n    }\n\n    struct info{\n        address payable account;\n        uint256 money;\n        uint256 ratio;\n    }\n\n    info[] public players;\n\n    function blastBalance() public view returns(uint256){\n        return address(this).balance;\n    }\n\n    function entranceFee() public view returns(uint256){\n        ( ,int price, , , ) = entranceFeeContract.latestRoundData();\n        uint256 adjustedPrice = uint256(price) * (10**10); //18 decimal,'price' 8 decimal dare\n        uint256 costToEnter = entranceFeeAmount * (10**18) / adjustedPrice; //vooroodi be wei\n        return costToEnter;\n    }\n    function enter(uint256 _ratio) payable public{\n        require(blast_status == BLAST_STATUS.OPEN);\n        require(msg.value >= entranceFee() , \"not enough money for blast!!!\");\n        require(_ratio > 100 && _ratio <= 1000 , \"incorrect ratio!!!\");\n        players.push(info(payable(msg.sender) , msg.value , _ratio));\n    }\n    function start() public onlyOwner{\n        require(blast_status == BLAST_STATUS.CLOSE);\n        blast_status = BLAST_STATUS.OPEN;\n    }\n\n    function finish() public onlyOwner returns(bytes32 requestId){\n        require(LINK.balanceOf(address(this)) >= fee, \"Not enough LINK - fill contract with faucet\");\n        blast_status = BLAST_STATUS.CALCULATING;\n        requestId = requestRandomness(keyHash, fee);\n        return requestId;\n        emit requestIdRandomness(requestId);\n    }\n\n    function fulfillRandomness(bytes32 _requestId, uint256 _randomness) internal override{\n        require(blast_status == BLAST_STATUS.CALCULATING , \"blast is not ended!!!\");\n        require(_randomness > 0 , \"there is no random number yet!!!\");\n        randomness = _randomness;\n    }\n\n    function charge() payable public onlyOwner{\n        require(msg.value > 0 , \"its not charged!!!\");\n    }\n\n    function getRatio() public onlyOwner{\n        require(blast_status == BLAST_STATUS.CALCULATING, \"blast is not ended!!!\");\n        uint256 modulus = randomness % 1000;\n        uint256 top;\n        uint256 down;\n        if (modulus <= 19 && modulus >= 0 ){\n            randomRatio = 0;\n        }\n        else if (modulus <= 569 && modulus >= 20 ){\n            top = 570;\n            down = 20;\n            randomRatio = (modulus-down)*100/(top-down) + 100;\n        }\n        else if (modulus <= 779 && modulus >= 570 ){\n            top = 780;\n            down = 570;\n            randomRatio = (modulus-down)*100/(top-down) + 200;\n        }\n        else if (modulus >= 780 && modulus <= 879 ){\n            top = 880;\n            down = 780;\n            randomRatio = (modulus-down)*100/(top-down) + 300;\n        }\n        else if (modulus >= 880 && modulus <= 929 ){\n            top = 930;\n            down = 880;\n            randomRatio = (modulus-down)*100/(top-down) + 400;\n        }\n        else if (modulus >= 930 && modulus <= 959 ){\n            top = 960;\n            down = 930;\n            randomRatio = (modulus-down)*100/(top-down) + 500;\n        }\n        else if (modulus >= 960 && modulus <= 979 ){\n            top = 570;\n            down = 20;\n            randomRatio = (modulus-down)*100/(top-down) + 600;\n        }\n        else if (modulus >= 980 && modulus <= 989 ){\n            top = 990;\n            down = 980;\n            randomRatio = (modulus-down)*100/(top-down) + 700;\n        }\n        else if (modulus >= 990 && modulus <= 994 ){\n            top = 995;\n            down = 990;\n            randomRatio = (modulus-down)*100/(top-down) + 800;\n        }\n        else if (modulus >= 995 && modulus <= 998 ){\n            top = 999;\n            down = 995;\n            randomRatio = (modulus-down)*100/(top-down) + 900;\n        }\n        else if (modulus == 999 ){\n            randomRatio = 10;\n        }\n    }\n\n        function blastPayment() public onlyOwner{\n        require(blast_status == BLAST_STATUS.CALCULATING, \"blast is not ended!!!\");\n        for (uint256 i=0 ; i < players.length ; i++){\n            if(randomRatio > 0){\n                uint256 playerRatio = players[i].ratio;\n                if (playerRatio <= randomRatio){\n                    uint256 playerValue = players[i].money / 100 * players[i].ratio;\n                    address payable playerAddress = players[i].account;\n                    bool send_status = playerAddress.send(playerValue);\n                    require(send_status , \"sending Failed!!!\");\n                    winnerCounter++;\n                }\n            }\n        }\n        delete players;\n        blast_status = BLAST_STATUS.CLOSE;\n        }\n        \n    \n}",
  "sourcePath": "contracts/Blast.sol",
  "type": "contract"
}