{"abi":[{"inputs":[{"internalType":"address","name":"_entranceFeeAddress","type":"address"},{"internalType":"address","name":"_vrfcoordinator","type":"address"},{"internalType":"address","name":"_link","type":"address"},{"internalType":"bytes32","name":"_keyhash","type":"bytes32"},{"internalType":"uint256","name":"_fee","type":"uint256"}],"stateMutability":"nonpayable","type":"constructor","name":"constructor"},{"anonymous":false,"inputs":[{"indexed":true,"internalType":"address","name":"previousOwner","type":"address"},{"indexed":true,"internalType":"address","name":"newOwner","type":"address"}],"name":"OwnershipTransferred","type":"event"},{"anonymous":false,"inputs":[{"indexed":false,"internalType":"bytes32","name":"requestId","type":"bytes32"}],"name":"requestIdRandomness","type":"event"},{"inputs":[],"name":"blastPayment","outputs":[],"stateMutability":"nonpayable","type":"function"},{"inputs":[],"name":"blast_status","outputs":[{"internalType":"enum Blast.BLAST_STATUS","name":"","type":"uint8"}],"stateMutability":"view","type":"function"},{"inputs":[{"internalType":"uint256","name":"_value","type":"uint256"}],"name":"charge","outputs":[],"stateMutability":"payable","type":"function"},{"inputs":[{"internalType":"uint256","name":"_ratio","type":"uint256"}],"name":"enter","outputs":[],"stateMutability":"payable","type":"function"},{"inputs":[],"name":"entranceFee","outputs":[{"internalType":"uint256","name":"","type":"uint256"}],"stateMutability":"view","type":"function"},{"inputs":[],"name":"entranceFeeAmount","outputs":[{"internalType":"uint256","name":"","type":"uint256"}],"stateMutability":"view","type":"function"},{"inputs":[],"name":"fee","outputs":[{"internalType":"uint256","name":"","type":"uint256"}],"stateMutability":"view","type":"function"},{"inputs":[],"name":"finish","outputs":[{"internalType":"bytes32","name":"requestId","type":"bytes32"}],"stateMutability":"nonpayable","type":"function"},{"inputs":[],"name":"getRatio","outputs":[],"stateMutability":"nonpayable","type":"function"},{"inputs":[],"name":"keyHash","outputs":[{"internalType":"bytes32","name":"","type":"bytes32"}],"stateMutability":"view","type":"function"},{"inputs":[],"name":"owner","outputs":[{"internalType":"address","name":"","type":"address"}],"stateMutability":"view","type":"function"},{"inputs":[{"internalType":"uint256","name":"","type":"uint256"}],"name":"players","outputs":[{"internalType":"address payable","name":"account","type":"address"},{"internalType":"uint256","name":"money","type":"uint256"},{"internalType":"uint256","name":"ratio","type":"uint256"}],"stateMutability":"view","type":"function"},{"inputs":[],"name":"randomRatio","outputs":[{"internalType":"uint256","name":"","type":"uint256"}],"stateMutability":"view","type":"function"},{"inputs":[],"name":"randomness","outputs":[{"internalType":"uint256","name":"","type":"uint256"}],"stateMutability":"view","type":"function"},{"inputs":[{"internalType":"bytes32","name":"requestId","type":"bytes32"},{"internalType":"uint256","name":"randomness","type":"uint256"}],"name":"rawFulfillRandomness","outputs":[],"stateMutability":"nonpayable","type":"function"},{"inputs":[],"name":"renounceOwnership","outputs":[],"stateMutability":"nonpayable","type":"function"},{"inputs":[],"name":"start","outputs":[],"stateMutability":"nonpayable","type":"function"},{"inputs":[{"internalType":"address","name":"newOwner","type":"address"}],"name":"transferOwnership","outputs":[],"stateMutability":"nonpayable","type":"function"},{"inputs":[],"name":"winnerCounter","outputs":[{"internalType":"uint256","name":"","type":"uint256"}],"stateMutability":"view","type":"function"}],"bytecode":"60c06040523480156200001157600080fd5b506040516200169738038062001697833981016040819052620000349162000105565b8383620000413362000098565b6001600160a01b0391821660a0528116608052600880546003949094556004929092556000600755674563918244f40000600255949094166001600160a81b031990911617600160a01b1790925550620001629050565b600080546001600160a01b038381166001600160a01b0319831681178455604051919092169283917f8be0079c531659141344cd1fd0a4f28419497f9722a3daafe3b4186f6b6457e09190a35050565b80516001600160a01b03811681146200010057600080fd5b919050565b600080600080600060a086880312156200011e57600080fd5b6200012986620000e8565b94506200013960208701620000e8565b93506200014960408701620000e8565b6060870151608090970151959894975095949392505050565b60805160a05161150162000196600039600081816106380152611042015260008181610906015261101301526115016000f3fe6080604052600436106101145760003560e01c806394985ddd116100a0578063ddca3f4311610064578063ddca3f4314610292578063e457e1e5146102a8578063ec1ebd7a146102bb578063f2fde38b146102d0578063f71d96cb146102f057600080fd5b806394985ddd1461021f578063a1e0c2c91461023f578063a59f3e0c14610255578063be9a655514610268578063d56b28891461027d57600080fd5b80635a88376e116100e75780635a88376e146101a157806361728f39146101b7578063649677e1146101cd578063715018a6146101e25780638da5cb5b146101f757600080fd5b80630e8c66fe146101195780631b06b7a7146101505780632c41088714610167578063360131891461018b575b600080fd5b34801561012557600080fd5b5060085461013a90600160a01b900460ff1681565b60405161014791906111ed565b60405180910390f35b34801561015c57600080fd5b50610165610335565b005b34801561017357600080fd5b5061017d60025481565b604051908152602001610147565b34801561019757600080fd5b5061017d60055481565b3480156101ad57600080fd5b5061017d60065481565b3480156101c357600080fd5b5061017d60035481565b3480156101d957600080fd5b5061017d610537565b3480156101ee57600080fd5b506101656105f7565b34801561020357600080fd5b506000546040516001600160a01b039091168152602001610147565b34801561022b57600080fd5b5061016561023a366004611215565b61062d565b34801561024b57600080fd5b5061017d60075481565b610165610263366004611237565b6106b3565b34801561027457600080fd5b50610165610849565b34801561028957600080fd5b5061017d6108b7565b34801561029e57600080fd5b5061017d60045481565b6101656102b6366004611237565b6109fb565b3480156102c757600080fd5b50610165610a92565b3480156102dc57600080fd5b506101656102eb366004611250565b610e54565b3480156102fc57600080fd5b5061031061030b366004611237565b610eef565b604080516001600160a01b039094168452602084019290925290820152606001610147565b6000546001600160a01b031633146103685760405162461bcd60e51b815260040161035f90611280565b60405180910390fd5b6002600854600160a01b900460ff166002811115610388576103886111d7565b146103a55760405162461bcd60e51b815260040161035f906112b5565b60005b60095481101561050d57600654156104fb576000600982815481106103cf576103cf6112e4565b906000526020600020906003020160020154905060065481116104f957600060098381548110610401576104016112e4565b906000526020600020906003020160020154606460098581548110610428576104286112e4565b9060005260206000209060030201600101546104449190611326565b61044e919061133a565b9050600060098481548110610465576104656112e4565b600091825260208220600390910201546040516001600160a01b039091169250829084156108fc0290859084818181858888f193505050509050806104e05760405162461bcd60e51b815260206004820152601160248201527073656e64696e67204661696c656421212160781b604482015260640161035f565b600780549060006104f083611359565b91905055505050505b505b8061050581611359565b9150506103a8565b5061051a6009600061118a565b600880546001919060ff60a01b1916600160a01b835b0217905550565b600080600860009054906101000a90046001600160a01b03166001600160a01b031663feaf968c6040518163ffffffff1660e01b815260040160a060405180830381865afa15801561058d573d6000803e3d6000fd5b505050506040513d601f19601f820116820180604052508101906105b19190611391565b5050509150506000816402540be4006105ca919061133a565b9050600081600254670de0b6b3a76400006105e5919061133a565b6105ef9190611326565b949350505050565b6000546001600160a01b031633146106215760405162461bcd60e51b815260040161035f90611280565b61062b6000610f2c565b565b336001600160a01b037f000000000000000000000000000000000000000000000000000000000000000016146106a55760405162461bcd60e51b815260206004820152601f60248201527f4f6e6c7920565246436f6f7264696e61746f722063616e2066756c66696c6c00604482015260640161035f565b6106af8282610f7c565b5050565b6000600854600160a01b900460ff1660028111156106d3576106d36111d7565b146106dd57600080fd5b6106e5610537565b3410156107345760405162461bcd60e51b815260206004820152601d60248201527f6e6f7420656e6f756768206d6f6e657920666f7220626c617374212121000000604482015260640161035f565b60648111801561074657506103e88111155b6107875760405162461bcd60e51b8152602060048201526012602482015271696e636f727265637420726174696f21212160701b604482015260640161035f565b6040805160608101825233815234602082019081529181019283526009805460018101825560009190915290517f6e1540171b6c0c960b71a7020d9f60077f6af931a8bbf590da0223dacf75c7af600390920291820180546001600160a01b0319166001600160a01b0390921691909117905590517f6e1540171b6c0c960b71a7020d9f60077f6af931a8bbf590da0223dacf75c7b082015590517f6e1540171b6c0c960b71a7020d9f60077f6af931a8bbf590da0223dacf75c7b190910155565b6000546001600160a01b031633146108735760405162461bcd60e51b815260040161035f90611280565b6001600854600160a01b900460ff166002811115610893576108936111d7565b1461089d57600080fd5b600880546000919060ff60a01b1916600160a01b83610530565b600080546001600160a01b031633146108e25760405162461bcd60e51b815260040161035f90611280565b600480546040516370a0823160e01b81523092810192909252906001600160a01b037f000000000000000000000000000000000000000000000000000000000000000016906370a0823190602401602060405180830381865afa15801561094d573d6000803e3d6000fd5b505050506040513d601f19601f8201168201806040525081019061097191906113e1565b10156109d35760405162461bcd60e51b815260206004820152602b60248201527f4e6f7420656e6f756768204c494e4b202d2066696c6c20636f6e74726163742060448201526a1dda5d1a0819985d58d95d60aa1b606482015260840161035f565b6008805460ff60a01b1916600160a11b1790556003546004546109f6919061100f565b905090565b6000546001600160a01b03163314610a255760405162461bcd60e51b815260040161035f90611280565b604051600090309083156108fc0290849084818181858888f193505050509050806106af5760405162461bcd60e51b815260206004820152601b60248201527f636f756c646e27742063686172676520636f6e74726163742121210000000000604482015260640161035f565b6000546001600160a01b03163314610abc5760405162461bcd60e51b815260040161035f90611280565b6002600854600160a01b900460ff166002811115610adc57610adc6111d7565b14610af95760405162461bcd60e51b815260040161035f906112b5565b60006103e8600554610b0b91906113fa565b905060008060138311158015610b1f575060015b15610b2e576000600655505050565b6102398311158015610b41575060148310155b15610b8a575061023a90506014610b58818361140e565b610b62828561140e565b610b6d90606461133a565b610b779190611326565b610b82906064611425565b600655505050565b61030b8311158015610b9e575061023a8310155b15610be0575061030c905061023a610bb6818361140e565b610bc0828561140e565b610bcb90606461133a565b610bd59190611326565b610b829060c8611425565b61030c8310158015610bf4575061036f8311155b15610c375750610370905061030c610c0c818361140e565b610c16828561140e565b610c2190606461133a565b610c2b9190611326565b610b829061012c611425565b6103708310158015610c4b57506103a18311155b15610c8e57506103a29050610370610c63818361140e565b610c6d828561140e565b610c7890606461133a565b610c829190611326565b610b8290610190611425565b6103a28310158015610ca257506103bf8311155b15610ce557506103c090506103a2610cba818361140e565b610cc4828561140e565b610ccf90606461133a565b610cd99190611326565b610b82906101f4611425565b6103c08310158015610cf957506103d38311155b15610d3b575061023a90506014610d10818361140e565b610d1a828561140e565b610d2590606461133a565b610d2f9190611326565b610b8290610258611425565b6103d48310158015610d4f57506103dd8311155b15610d9257506103de90506103d4610d67818361140e565b610d71828561140e565b610d7c90606461133a565b610d869190611326565b610b82906102bc611425565b6103de8310158015610da657506103e28311155b15610de957506103e390506103de610dbe818361140e565b610dc8828561140e565b610dd390606461133a565b610ddd9190611326565b610b8290610320611425565b6103e38310158015610dfd57506103e68311155b15610e4057506103e790506103e3610e15818361140e565b610e1f828561140e565b610e2a90606461133a565b610e349190611326565b610b8290610384611425565b826103e703610e4f57600a6006555b505050565b6000546001600160a01b03163314610e7e5760405162461bcd60e51b815260040161035f90611280565b6001600160a01b038116610ee35760405162461bcd60e51b815260206004820152602660248201527f4f776e61626c653a206e6577206f776e657220697320746865207a65726f206160448201526564647265737360d01b606482015260840161035f565b610eec81610f2c565b50565b60098181548110610eff57600080fd5b60009182526020909120600390910201805460018201546002909201546001600160a01b03909116925083565b600080546001600160a01b038381166001600160a01b0319831681178455604051919092169283917f8be0079c531659141344cd1fd0a4f28419497f9722a3daafe3b4186f6b6457e09190a35050565b6002600854600160a01b900460ff166002811115610f9c57610f9c6111d7565b14610fb95760405162461bcd60e51b815260040161035f906112b5565b600081116110095760405162461bcd60e51b815260206004820181905260248201527f7468657265206973206e6f2072616e646f6d206e756d62657220796574212121604482015260640161035f565b60055550565b60007f00000000000000000000000000000000000000000000000000000000000000006001600160a01b0316634000aea07f00000000000000000000000000000000000000000000000000000000000000008486600060405160200161107f929190918252602082015260400190565b6040516020818303038152906040526040518463ffffffff1660e01b81526004016110ac9392919061143d565b6020604051808303816000875af11580156110cb573d6000803e3d6000fd5b505050506040513d601f19601f820116820180604052508101906110ef91906114a9565b50600083815260016020818152604080842054815180840189905280830186905230606082015260808082018390528351808303909101815260a0909101909252815191830191909120938790529082905261114a91611425565b6000858152600160205260409020556105ef8482604080516020808201949094528082019290925280518083038201815260609092019052805191012090565b5080546000825560030290600052602060002090810190610eec91905b808211156111d35780546001600160a01b031916815560006001820181905560028201556003016111a7565b5090565b634e487b7160e01b600052602160045260246000fd5b602081016003831061120f57634e487b7160e01b600052602160045260246000fd5b91905290565b6000806040838503121561122857600080fd5b50508035926020909101359150565b60006020828403121561124957600080fd5b5035919050565b60006020828403121561126257600080fd5b81356001600160a01b038116811461127957600080fd5b9392505050565b6020808252818101527f4f776e61626c653a2063616c6c6572206973206e6f7420746865206f776e6572604082015260600190565b602080825260159082015274626c617374206973206e6f7420656e64656421212160581b604082015260600190565b634e487b7160e01b600052603260045260246000fd5b634e487b7160e01b600052601260045260246000fd5b634e487b7160e01b600052601160045260246000fd5b600082611335576113356112fa565b500490565b600081600019048311821515161561135457611354611310565b500290565b60006001820161136b5761136b611310565b5060010190565b805169ffffffffffffffffffff8116811461138c57600080fd5b919050565b600080600080600060a086880312156113a957600080fd5b6113b286611372565b94506020860151935060408601519250606086015191506113d560808701611372565b90509295509295909350565b6000602082840312156113f357600080fd5b5051919050565b600082611409576114096112fa565b500690565b60008282101561142057611420611310565b500390565b6000821982111561143857611438611310565b500190565b60018060a01b038416815260006020848184015260606040840152835180606085015260005b8181101561147f57858101830151858201608001528201611463565b81811115611491576000608083870101525b50601f01601f19169290920160800195945050505050565b6000602082840312156114bb57600080fd5b8151801515811461127957600080fdfea26469706673582212203b38b57bf3043a8d697b18faf491bf2c58b728011e323b3568a714ae7261b8cb64736f6c634300080e0033","bytecodeSha1":"5b6e999facde9871938550675afd959db81840f4","compiler":{"evm_version":"istanbul","optimizer":{"enabled":true,"runs":200},"version":"0.8.14+commit.80d49f37"},"contractName":"Blast","language":"Solidity","natspec":{"kind":"dev","methods":{"owner()":{"details":"Returns the address of the current owner."},"renounceOwnership()":{"details":"Leaves the contract without owner. It will not be possible to call `onlyOwner` functions anymore. Can only be called by the current owner. NOTE: Renouncing ownership will leave the contract without an owner, thereby removing any functionality that is only available to the owner."},"transferOwnership(address)":{"details":"Transfers ownership of the contract to a new account (`newOwner`). Can only be called by the current owner."}},"version":1},"opcodes":"PUSH1 0x80 PUSH1 0x40 MSTORE PUSH1 0x4 CALLDATASIZE LT PUSH2 0x114 JUMPI PUSH1 0x0 CALLDATALOAD PUSH1 0xE0 SHR DUP1 PUSH4 0x94985DDD GT PUSH2 0xA0 JUMPI DUP1 PUSH4 0xDDCA3F43 GT PUSH2 0x64 JUMPI DUP1 PUSH4 0xDDCA3F43 EQ PUSH2 0x292 JUMPI DUP1 PUSH4 0xE457E1E5 EQ PUSH2 0x2A8 JUMPI DUP1 PUSH4 0xEC1EBD7A EQ PUSH2 0x2BB JUMPI DUP1 PUSH4 0xF2FDE38B EQ PUSH2 0x2D0 JUMPI DUP1 PUSH4 0xF71D96CB EQ PUSH2 0x2F0 JUMPI PUSH1 0x0 DUP1 REVERT JUMPDEST DUP1 PUSH4 0x94985DDD EQ PUSH2 0x21F JUMPI DUP1 PUSH4 0xA1E0C2C9 EQ PUSH2 0x23F JUMPI DUP1 PUSH4 0xA59F3E0C EQ PUSH2 0x255 JUMPI DUP1 PUSH4 0xBE9A6555 EQ PUSH2 0x268 JUMPI DUP1 PUSH4 0xD56B2889 EQ PUSH2 0x27D JUMPI PUSH1 0x0 DUP1 REVERT JUMPDEST DUP1 PUSH4 0x5A88376E GT PUSH2 0xE7 JUMPI DUP1 PUSH4 0x5A88376E EQ PUSH2 0x1A1 JUMPI DUP1 PUSH4 0x61728F39 EQ PUSH2 0x1B7 JUMPI DUP1 PUSH4 0x649677E1 EQ PUSH2 0x1CD JUMPI DUP1 PUSH4 0x715018A6 EQ PUSH2 0x1E2 JUMPI DUP1 PUSH4 0x8DA5CB5B EQ PUSH2 0x1F7 JUMPI PUSH1 0x0 DUP1 REVERT JUMPDEST DUP1 PUSH4 0xE8C66FE EQ PUSH2 0x119 JUMPI DUP1 PUSH4 0x1B06B7A7 EQ PUSH2 0x150 JUMPI DUP1 PUSH4 0x2C410887 EQ PUSH2 0x167 JUMPI DUP1 PUSH4 0x36013189 EQ PUSH2 0x18B JUMPI JUMPDEST PUSH1 0x0 DUP1 REVERT JUMPDEST CALLVALUE DUP1 ISZERO PUSH2 0x125 JUMPI PUSH1 0x0 DUP1 REVERT JUMPDEST POP PUSH1 0x8 SLOAD PUSH2 0x13A SWAP1 PUSH1 0x1 PUSH1 0xA0 SHL SWAP1 DIV PUSH1 0xFF AND DUP2 JUMP JUMPDEST PUSH1 0x40 MLOAD PUSH2 0x147 SWAP2 SWAP1 PUSH2 0x11ED JUMP JUMPDEST PUSH1 0x40 MLOAD DUP1 SWAP2 SUB SWAP1 RETURN JUMPDEST CALLVALUE DUP1 ISZERO PUSH2 0x15C JUMPI PUSH1 0x0 DUP1 REVERT JUMPDEST POP PUSH2 0x165 PUSH2 0x335 JUMP JUMPDEST STOP JUMPDEST CALLVALUE DUP1 ISZERO PUSH2 0x173 JUMPI PUSH1 0x0 DUP1 REVERT JUMPDEST POP PUSH2 0x17D PUSH1 0x2 SLOAD DUP2 JUMP JUMPDEST PUSH1 0x40 MLOAD SWAP1 DUP2 MSTORE PUSH1 0x20 ADD PUSH2 0x147 JUMP JUMPDEST CALLVALUE DUP1 ISZERO PUSH2 0x197 JUMPI PUSH1 0x0 DUP1 REVERT JUMPDEST POP PUSH2 0x17D PUSH1 0x5 SLOAD DUP2 JUMP JUMPDEST CALLVALUE DUP1 ISZERO PUSH2 0x1AD JUMPI PUSH1 0x0 DUP1 REVERT JUMPDEST POP PUSH2 0x17D PUSH1 0x6 SLOAD DUP2 JUMP JUMPDEST CALLVALUE DUP1 ISZERO PUSH2 0x1C3 JUMPI PUSH1 0x0 DUP1 REVERT JUMPDEST POP PUSH2 0x17D PUSH1 0x3 SLOAD DUP2 JUMP JUMPDEST CALLVALUE DUP1 ISZERO PUSH2 0x1D9 JUMPI PUSH1 0x0 DUP1 REVERT JUMPDEST POP PUSH2 0x17D PUSH2 0x537 JUMP JUMPDEST CALLVALUE DUP1 ISZERO PUSH2 0x1EE JUMPI PUSH1 0x0 DUP1 REVERT JUMPDEST POP PUSH2 0x165 PUSH2 0x5F7 JUMP JUMPDEST CALLVALUE DUP1 ISZERO PUSH2 0x203 JUMPI PUSH1 0x0 DUP1 REVERT JUMPDEST POP PUSH1 0x0 SLOAD PUSH1 0x40 MLOAD PUSH1 0x1 PUSH1 0x1 PUSH1 0xA0 SHL SUB SWAP1 SWAP2 AND DUP2 MSTORE PUSH1 0x20 ADD PUSH2 0x147 JUMP JUMPDEST CALLVALUE DUP1 ISZERO PUSH2 0x22B JUMPI PUSH1 0x0 DUP1 REVERT JUMPDEST POP PUSH2 0x165 PUSH2 0x23A CALLDATASIZE PUSH1 0x4 PUSH2 0x1215 JUMP JUMPDEST PUSH2 0x62D JUMP JUMPDEST CALLVALUE DUP1 ISZERO PUSH2 0x24B JUMPI PUSH1 0x0 DUP1 REVERT JUMPDEST POP PUSH2 0x17D PUSH1 0x7 SLOAD DUP2 JUMP JUMPDEST PUSH2 0x165 PUSH2 0x263 CALLDATASIZE PUSH1 0x4 PUSH2 0x1237 JUMP JUMPDEST PUSH2 0x6B3 JUMP JUMPDEST CALLVALUE DUP1 ISZERO PUSH2 0x274 JUMPI PUSH1 0x0 DUP1 REVERT JUMPDEST POP PUSH2 0x165 PUSH2 0x849 JUMP JUMPDEST CALLVALUE DUP1 ISZERO PUSH2 0x289 JUMPI PUSH1 0x0 DUP1 REVERT JUMPDEST POP PUSH2 0x17D PUSH2 0x8B7 JUMP JUMPDEST CALLVALUE DUP1 ISZERO PUSH2 0x29E JUMPI PUSH1 0x0 DUP1 REVERT JUMPDEST POP PUSH2 0x17D PUSH1 0x4 SLOAD DUP2 JUMP JUMPDEST PUSH2 0x165 PUSH2 0x2B6 CALLDATASIZE PUSH1 0x4 PUSH2 0x1237 JUMP JUMPDEST PUSH2 0x9FB JUMP JUMPDEST CALLVALUE DUP1 ISZERO PUSH2 0x2C7 JUMPI PUSH1 0x0 DUP1 REVERT JUMPDEST POP PUSH2 0x165 PUSH2 0xA92 JUMP JUMPDEST CALLVALUE DUP1 ISZERO PUSH2 0x2DC JUMPI PUSH1 0x0 DUP1 REVERT JUMPDEST POP PUSH2 0x165 PUSH2 0x2EB CALLDATASIZE PUSH1 0x4 PUSH2 0x1250 JUMP JUMPDEST PUSH2 0xE54 JUMP JUMPDEST CALLVALUE DUP1 ISZERO PUSH2 0x2FC JUMPI PUSH1 0x0 DUP1 REVERT JUMPDEST POP PUSH2 0x310 PUSH2 0x30B CALLDATASIZE PUSH1 0x4 PUSH2 0x1237 JUMP JUMPDEST PUSH2 0xEEF JUMP JUMPDEST PUSH1 0x40 DUP1 MLOAD PUSH1 0x1 PUSH1 0x1 PUSH1 0xA0 SHL SUB SWAP1 SWAP5 AND DUP5 MSTORE PUSH1 0x20 DUP5 ADD SWAP3 SWAP1 SWAP3 MSTORE SWAP1 DUP3 ADD MSTORE PUSH1 0x60 ADD PUSH2 0x147 JUMP JUMPDEST PUSH1 0x0 SLOAD PUSH1 0x1 PUSH1 0x1 PUSH1 0xA0 SHL SUB AND CALLER EQ PUSH2 0x368 JUMPI PUSH1 0x40 MLOAD PUSH3 0x461BCD PUSH1 0xE5 SHL DUP2 MSTORE PUSH1 0x4 ADD PUSH2 0x35F SWAP1 PUSH2 0x1280 JUMP JUMPDEST PUSH1 0x40 MLOAD DUP1 SWAP2 SUB SWAP1 REVERT JUMPDEST PUSH1 0x2 PUSH1 0x8 SLOAD PUSH1 0x1 PUSH1 0xA0 SHL SWAP1 DIV PUSH1 0xFF AND PUSH1 0x2 DUP2 GT ISZERO PUSH2 0x388 JUMPI PUSH2 0x388 PUSH2 0x11D7 JUMP JUMPDEST EQ PUSH2 0x3A5 JUMPI PUSH1 0x40 MLOAD PUSH3 0x461BCD PUSH1 0xE5 SHL DUP2 MSTORE PUSH1 0x4 ADD PUSH2 0x35F SWAP1 PUSH2 0x12B5 JUMP JUMPDEST PUSH1 0x0 JUMPDEST PUSH1 0x9 SLOAD DUP2 LT ISZERO PUSH2 0x50D JUMPI PUSH1 0x6 SLOAD ISZERO PUSH2 0x4FB JUMPI PUSH1 0x0 PUSH1 0x9 DUP3 DUP2 SLOAD DUP2 LT PUSH2 0x3CF JUMPI PUSH2 0x3CF PUSH2 0x12E4 JUMP JUMPDEST SWAP1 PUSH1 0x0 MSTORE PUSH1 0x20 PUSH1 0x0 KECCAK256 SWAP1 PUSH1 0x3 MUL ADD PUSH1 0x2 ADD SLOAD SWAP1 POP PUSH1 0x6 SLOAD DUP2 GT PUSH2 0x4F9 JUMPI PUSH1 0x0 PUSH1 0x9 DUP4 DUP2 SLOAD DUP2 LT PUSH2 0x401 JUMPI PUSH2 0x401 PUSH2 0x12E4 JUMP JUMPDEST SWAP1 PUSH1 0x0 MSTORE PUSH1 0x20 PUSH1 0x0 KECCAK256 SWAP1 PUSH1 0x3 MUL ADD PUSH1 0x2 ADD SLOAD PUSH1 0x64 PUSH1 0x9 DUP6 DUP2 SLOAD DUP2 LT PUSH2 0x428 JUMPI PUSH2 0x428 PUSH2 0x12E4 JUMP JUMPDEST SWAP1 PUSH1 0x0 MSTORE PUSH1 0x20 PUSH1 0x0 KECCAK256 SWAP1 PUSH1 0x3 MUL ADD PUSH1 0x1 ADD SLOAD PUSH2 0x444 SWAP2 SWAP1 PUSH2 0x1326 JUMP JUMPDEST PUSH2 0x44E SWAP2 SWAP1 PUSH2 0x133A JUMP JUMPDEST SWAP1 POP PUSH1 0x0 PUSH1 0x9 DUP5 DUP2 SLOAD DUP2 LT PUSH2 0x465 JUMPI PUSH2 0x465 PUSH2 0x12E4 JUMP JUMPDEST PUSH1 0x0 SWAP2 DUP3 MSTORE PUSH1 0x20 DUP3 KECCAK256 PUSH1 0x3 SWAP1 SWAP2 MUL ADD SLOAD PUSH1 0x40 MLOAD PUSH1 0x1 PUSH1 0x1 PUSH1 0xA0 SHL SUB SWAP1 SWAP2 AND SWAP3 POP DUP3 SWAP1 DUP5 ISZERO PUSH2 0x8FC MUL SWAP1 DUP6 SWAP1 DUP5 DUP2 DUP2 DUP2 DUP6 DUP9 DUP9 CALL SWAP4 POP POP POP POP SWAP1 POP DUP1 PUSH2 0x4E0 JUMPI PUSH1 0x40 MLOAD PUSH3 0x461BCD PUSH1 0xE5 SHL DUP2 MSTORE PUSH1 0x20 PUSH1 0x4 DUP3 ADD MSTORE PUSH1 0x11 PUSH1 0x24 DUP3 ADD MSTORE PUSH17 0x73656E64696E67204661696C6564212121 PUSH1 0x78 SHL PUSH1 0x44 DUP3 ADD MSTORE PUSH1 0x64 ADD PUSH2 0x35F JUMP JUMPDEST PUSH1 0x7 DUP1 SLOAD SWAP1 PUSH1 0x0 PUSH2 0x4F0 DUP4 PUSH2 0x1359 JUMP JUMPDEST SWAP2 SWAP1 POP SSTORE POP POP POP POP JUMPDEST POP JUMPDEST DUP1 PUSH2 0x505 DUP2 PUSH2 0x1359 JUMP JUMPDEST SWAP2 POP POP PUSH2 0x3A8 JUMP JUMPDEST POP PUSH2 0x51A PUSH1 0x9 PUSH1 0x0 PUSH2 0x118A JUMP JUMPDEST PUSH1 0x8 DUP1 SLOAD PUSH1 0x1 SWAP2 SWAP1 PUSH1 0xFF PUSH1 0xA0 SHL NOT AND PUSH1 0x1 PUSH1 0xA0 SHL DUP4 JUMPDEST MUL OR SWAP1 SSTORE POP JUMP JUMPDEST PUSH1 0x0 DUP1 PUSH1 0x8 PUSH1 0x0 SWAP1 SLOAD SWAP1 PUSH2 0x100 EXP SWAP1 DIV PUSH1 0x1 PUSH1 0x1 PUSH1 0xA0 SHL SUB AND PUSH1 0x1 PUSH1 0x1 PUSH1 0xA0 SHL SUB AND PUSH4 0xFEAF968C PUSH1 0x40 MLOAD DUP2 PUSH4 0xFFFFFFFF AND PUSH1 0xE0 SHL DUP2 MSTORE PUSH1 0x4 ADD PUSH1 0xA0 PUSH1 0x40 MLOAD DUP1 DUP4 SUB DUP2 DUP7 GAS STATICCALL ISZERO DUP1 ISZERO PUSH2 0x58D JUMPI RETURNDATASIZE PUSH1 0x0 DUP1 RETURNDATACOPY RETURNDATASIZE PUSH1 0x0 REVERT JUMPDEST POP POP POP POP PUSH1 0x40 MLOAD RETURNDATASIZE PUSH1 0x1F NOT PUSH1 0x1F DUP3 ADD AND DUP3 ADD DUP1 PUSH1 0x40 MSTORE POP DUP2 ADD SWAP1 PUSH2 0x5B1 SWAP2 SWAP1 PUSH2 0x1391 JUMP JUMPDEST POP POP POP SWAP2 POP POP PUSH1 0x0 DUP2 PUSH5 0x2540BE400 PUSH2 0x5CA SWAP2 SWAP1 PUSH2 0x133A JUMP JUMPDEST SWAP1 POP PUSH1 0x0 DUP2 PUSH1 0x2 SLOAD PUSH8 0xDE0B6B3A7640000 PUSH2 0x5E5 SWAP2 SWAP1 PUSH2 0x133A JUMP JUMPDEST PUSH2 0x5EF SWAP2 SWAP1 PUSH2 0x1326 JUMP JUMPDEST SWAP5 SWAP4 POP POP POP POP JUMP JUMPDEST PUSH1 0x0 SLOAD PUSH1 0x1 PUSH1 0x1 PUSH1 0xA0 SHL SUB AND CALLER EQ PUSH2 0x621 JUMPI PUSH1 0x40 MLOAD PUSH3 0x461BCD PUSH1 0xE5 SHL DUP2 MSTORE PUSH1 0x4 ADD PUSH2 0x35F SWAP1 PUSH2 0x1280 JUMP JUMPDEST PUSH2 0x62B PUSH1 0x0 PUSH2 0xF2C JUMP JUMPDEST JUMP JUMPDEST CALLER PUSH1 0x1 PUSH1 0x1 PUSH1 0xA0 SHL SUB PUSH32 0x0 AND EQ PUSH2 0x6A5 JUMPI PUSH1 0x40 MLOAD PUSH3 0x461BCD PUSH1 0xE5 SHL DUP2 MSTORE PUSH1 0x20 PUSH1 0x4 DUP3 ADD MSTORE PUSH1 0x1F PUSH1 0x24 DUP3 ADD MSTORE PUSH32 0x4F6E6C7920565246436F6F7264696E61746F722063616E2066756C66696C6C00 PUSH1 0x44 DUP3 ADD MSTORE PUSH1 0x64 ADD PUSH2 0x35F JUMP JUMPDEST PUSH2 0x6AF DUP3 DUP3 PUSH2 0xF7C JUMP JUMPDEST POP POP JUMP JUMPDEST PUSH1 0x0 PUSH1 0x8 SLOAD PUSH1 0x1 PUSH1 0xA0 SHL SWAP1 DIV PUSH1 0xFF AND PUSH1 0x2 DUP2 GT ISZERO PUSH2 0x6D3 JUMPI PUSH2 0x6D3 PUSH2 0x11D7 JUMP JUMPDEST EQ PUSH2 0x6DD JUMPI PUSH1 0x0 DUP1 REVERT JUMPDEST PUSH2 0x6E5 PUSH2 0x537 JUMP JUMPDEST CALLVALUE LT ISZERO PUSH2 0x734 JUMPI PUSH1 0x40 MLOAD PUSH3 0x461BCD PUSH1 0xE5 SHL DUP2 MSTORE PUSH1 0x20 PUSH1 0x4 DUP3 ADD MSTORE PUSH1 0x1D PUSH1 0x24 DUP3 ADD MSTORE PUSH32 0x6E6F7420656E6F756768206D6F6E657920666F7220626C617374212121000000 PUSH1 0x44 DUP3 ADD MSTORE PUSH1 0x64 ADD PUSH2 0x35F JUMP JUMPDEST PUSH1 0x64 DUP2 GT DUP1 ISZERO PUSH2 0x746 JUMPI POP PUSH2 0x3E8 DUP2 GT ISZERO JUMPDEST PUSH2 0x787 JUMPI PUSH1 0x40 MLOAD PUSH3 0x461BCD PUSH1 0xE5 SHL DUP2 MSTORE PUSH1 0x20 PUSH1 0x4 DUP3 ADD MSTORE PUSH1 0x12 PUSH1 0x24 DUP3 ADD MSTORE PUSH18 0x696E636F727265637420726174696F212121 PUSH1 0x70 SHL PUSH1 0x44 DUP3 ADD MSTORE PUSH1 0x64 ADD PUSH2 0x35F JUMP JUMPDEST PUSH1 0x40 DUP1 MLOAD PUSH1 0x60 DUP2 ADD DUP3 MSTORE CALLER DUP2 MSTORE CALLVALUE PUSH1 0x20 DUP3 ADD SWAP1 DUP2 MSTORE SWAP2 DUP2 ADD SWAP3 DUP4 MSTORE PUSH1 0x9 DUP1 SLOAD PUSH1 0x1 DUP2 ADD DUP3 SSTORE PUSH1 0x0 SWAP2 SWAP1 SWAP2 MSTORE SWAP1 MLOAD PUSH32 0x6E1540171B6C0C960B71A7020D9F60077F6AF931A8BBF590DA0223DACF75C7AF PUSH1 0x3 SWAP1 SWAP3 MUL SWAP2 DUP3 ADD DUP1 SLOAD PUSH1 0x1 PUSH1 0x1 PUSH1 0xA0 SHL SUB NOT AND PUSH1 0x1 PUSH1 0x1 PUSH1 0xA0 SHL SUB SWAP1 SWAP3 AND SWAP2 SWAP1 SWAP2 OR SWAP1 SSTORE SWAP1 MLOAD PUSH32 0x6E1540171B6C0C960B71A7020D9F60077F6AF931A8BBF590DA0223DACF75C7B0 DUP3 ADD SSTORE SWAP1 MLOAD PUSH32 0x6E1540171B6C0C960B71A7020D9F60077F6AF931A8BBF590DA0223DACF75C7B1 SWAP1 SWAP2 ADD SSTORE JUMP JUMPDEST PUSH1 0x0 SLOAD PUSH1 0x1 PUSH1 0x1 PUSH1 0xA0 SHL SUB AND CALLER EQ PUSH2 0x873 JUMPI PUSH1 0x40 MLOAD PUSH3 0x461BCD PUSH1 0xE5 SHL DUP2 MSTORE PUSH1 0x4 ADD PUSH2 0x35F SWAP1 PUSH2 0x1280 JUMP JUMPDEST PUSH1 0x1 PUSH1 0x8 SLOAD PUSH1 0x1 PUSH1 0xA0 SHL SWAP1 DIV PUSH1 0xFF AND PUSH1 0x2 DUP2 GT ISZERO PUSH2 0x893 JUMPI PUSH2 0x893 PUSH2 0x11D7 JUMP JUMPDEST EQ PUSH2 0x89D JUMPI PUSH1 0x0 DUP1 REVERT JUMPDEST PUSH1 0x8 DUP1 SLOAD PUSH1 0x0 SWAP2 SWAP1 PUSH1 0xFF PUSH1 0xA0 SHL NOT AND PUSH1 0x1 PUSH1 0xA0 SHL DUP4 PUSH2 0x530 JUMP JUMPDEST PUSH1 0x0 DUP1 SLOAD PUSH1 0x1 PUSH1 0x1 PUSH1 0xA0 SHL SUB AND CALLER EQ PUSH2 0x8E2 JUMPI PUSH1 0x40 MLOAD PUSH3 0x461BCD PUSH1 0xE5 SHL DUP2 MSTORE PUSH1 0x4 ADD PUSH2 0x35F SWAP1 PUSH2 0x1280 JUMP JUMPDEST PUSH1 0x4 DUP1 SLOAD PUSH1 0x40 MLOAD PUSH4 0x70A08231 PUSH1 0xE0 SHL DUP2 MSTORE ADDRESS SWAP3 DUP2 ADD SWAP3 SWAP1 SWAP3 MSTORE SWAP1 PUSH1 0x1 PUSH1 0x1 PUSH1 0xA0 SHL SUB PUSH32 0x0 AND SWAP1 PUSH4 0x70A08231 SWAP1 PUSH1 0x24 ADD PUSH1 0x20 PUSH1 0x40 MLOAD DUP1 DUP4 SUB DUP2 DUP7 GAS STATICCALL ISZERO DUP1 ISZERO PUSH2 0x94D JUMPI RETURNDATASIZE PUSH1 0x0 DUP1 RETURNDATACOPY RETURNDATASIZE PUSH1 0x0 REVERT JUMPDEST POP POP POP POP PUSH1 0x40 MLOAD RETURNDATASIZE PUSH1 0x1F NOT PUSH1 0x1F DUP3 ADD AND DUP3 ADD DUP1 PUSH1 0x40 MSTORE POP DUP2 ADD SWAP1 PUSH2 0x971 SWAP2 SWAP1 PUSH2 0x13E1 JUMP JUMPDEST LT ISZERO PUSH2 0x9D3 JUMPI PUSH1 0x40 MLOAD PUSH3 0x461BCD PUSH1 0xE5 SHL DUP2 MSTORE PUSH1 0x20 PUSH1 0x4 DUP3 ADD MSTORE PUSH1 0x2B PUSH1 0x24 DUP3 ADD MSTORE PUSH32 0x4E6F7420656E6F756768204C494E4B202D2066696C6C20636F6E747261637420 PUSH1 0x44 DUP3 ADD MSTORE PUSH11 0x1DDA5D1A0819985D58D95D PUSH1 0xAA SHL PUSH1 0x64 DUP3 ADD MSTORE PUSH1 0x84 ADD PUSH2 0x35F JUMP JUMPDEST PUSH1 0x8 DUP1 SLOAD PUSH1 0xFF PUSH1 0xA0 SHL NOT AND PUSH1 0x1 PUSH1 0xA1 SHL OR SWAP1 SSTORE PUSH1 0x3 SLOAD PUSH1 0x4 SLOAD PUSH2 0x9F6 SWAP2 SWAP1 PUSH2 0x100F JUMP JUMPDEST SWAP1 POP SWAP1 JUMP JUMPDEST PUSH1 0x0 SLOAD PUSH1 0x1 PUSH1 0x1 PUSH1 0xA0 SHL SUB AND CALLER EQ PUSH2 0xA25 JUMPI PUSH1 0x40 MLOAD PUSH3 0x461BCD PUSH1 0xE5 SHL DUP2 MSTORE PUSH1 0x4 ADD PUSH2 0x35F SWAP1 PUSH2 0x1280 JUMP JUMPDEST PUSH1 0x40 MLOAD PUSH1 0x0 SWAP1 ADDRESS SWAP1 DUP4 ISZERO PUSH2 0x8FC MUL SWAP1 DUP5 SWAP1 DUP5 DUP2 DUP2 DUP2 DUP6 DUP9 DUP9 CALL SWAP4 POP POP POP POP SWAP1 POP DUP1 PUSH2 0x6AF JUMPI PUSH1 0x40 MLOAD PUSH3 0x461BCD PUSH1 0xE5 SHL DUP2 MSTORE PUSH1 0x20 PUSH1 0x4 DUP3 ADD MSTORE PUSH1 0x1B PUSH1 0x24 DUP3 ADD MSTORE PUSH32 0x636F756C646E27742063686172676520636F6E74726163742121210000000000 PUSH1 0x44 DUP3 ADD MSTORE PUSH1 0x64 ADD PUSH2 0x35F JUMP JUMPDEST PUSH1 0x0 SLOAD PUSH1 0x1 PUSH1 0x1 PUSH1 0xA0 SHL SUB AND CALLER EQ PUSH2 0xABC JUMPI PUSH1 0x40 MLOAD PUSH3 0x461BCD PUSH1 0xE5 SHL DUP2 MSTORE PUSH1 0x4 ADD PUSH2 0x35F SWAP1 PUSH2 0x1280 JUMP JUMPDEST PUSH1 0x2 PUSH1 0x8 SLOAD PUSH1 0x1 PUSH1 0xA0 SHL SWAP1 DIV PUSH1 0xFF AND PUSH1 0x2 DUP2 GT ISZERO PUSH2 0xADC JUMPI PUSH2 0xADC PUSH2 0x11D7 JUMP JUMPDEST EQ PUSH2 0xAF9 JUMPI PUSH1 0x40 MLOAD PUSH3 0x461BCD PUSH1 0xE5 SHL DUP2 MSTORE PUSH1 0x4 ADD PUSH2 0x35F SWAP1 PUSH2 0x12B5 JUMP JUMPDEST PUSH1 0x0 PUSH2 0x3E8 PUSH1 0x5 SLOAD PUSH2 0xB0B SWAP2 SWAP1 PUSH2 0x13FA JUMP JUMPDEST SWAP1 POP PUSH1 0x0 DUP1 PUSH1 0x13 DUP4 GT ISZERO DUP1 ISZERO PUSH2 0xB1F JUMPI POP PUSH1 0x1 JUMPDEST ISZERO PUSH2 0xB2E JUMPI PUSH1 0x0 PUSH1 0x6 SSTORE POP POP POP JUMP JUMPDEST PUSH2 0x239 DUP4 GT ISZERO DUP1 ISZERO PUSH2 0xB41 JUMPI POP PUSH1 0x14 DUP4 LT ISZERO JUMPDEST ISZERO PUSH2 0xB8A JUMPI POP PUSH2 0x23A SWAP1 POP PUSH1 0x14 PUSH2 0xB58 DUP2 DUP4 PUSH2 0x140E JUMP JUMPDEST PUSH2 0xB62 DUP3 DUP6 PUSH2 0x140E JUMP JUMPDEST PUSH2 0xB6D SWAP1 PUSH1 0x64 PUSH2 0x133A JUMP JUMPDEST PUSH2 0xB77 SWAP2 SWAP1 PUSH2 0x1326 JUMP JUMPDEST PUSH2 0xB82 SWAP1 PUSH1 0x64 PUSH2 0x1425 JUMP JUMPDEST PUSH1 0x6 SSTORE POP POP POP JUMP JUMPDEST PUSH2 0x30B DUP4 GT ISZERO DUP1 ISZERO PUSH2 0xB9E JUMPI POP PUSH2 0x23A DUP4 LT ISZERO JUMPDEST ISZERO PUSH2 0xBE0 JUMPI POP PUSH2 0x30C SWAP1 POP PUSH2 0x23A PUSH2 0xBB6 DUP2 DUP4 PUSH2 0x140E JUMP JUMPDEST PUSH2 0xBC0 DUP3 DUP6 PUSH2 0x140E JUMP JUMPDEST PUSH2 0xBCB SWAP1 PUSH1 0x64 PUSH2 0x133A JUMP JUMPDEST PUSH2 0xBD5 SWAP2 SWAP1 PUSH2 0x1326 JUMP JUMPDEST PUSH2 0xB82 SWAP1 PUSH1 0xC8 PUSH2 0x1425 JUMP JUMPDEST PUSH2 0x30C DUP4 LT ISZERO DUP1 ISZERO PUSH2 0xBF4 JUMPI POP PUSH2 0x36F DUP4 GT ISZERO JUMPDEST ISZERO PUSH2 0xC37 JUMPI POP PUSH2 0x370 SWAP1 POP PUSH2 0x30C PUSH2 0xC0C DUP2 DUP4 PUSH2 0x140E JUMP JUMPDEST PUSH2 0xC16 DUP3 DUP6 PUSH2 0x140E JUMP JUMPDEST PUSH2 0xC21 SWAP1 PUSH1 0x64 PUSH2 0x133A JUMP JUMPDEST PUSH2 0xC2B SWAP2 SWAP1 PUSH2 0x1326 JUMP JUMPDEST PUSH2 0xB82 SWAP1 PUSH2 0x12C PUSH2 0x1425 JUMP JUMPDEST PUSH2 0x370 DUP4 LT ISZERO DUP1 ISZERO PUSH2 0xC4B JUMPI POP PUSH2 0x3A1 DUP4 GT ISZERO JUMPDEST ISZERO PUSH2 0xC8E JUMPI POP PUSH2 0x3A2 SWAP1 POP PUSH2 0x370 PUSH2 0xC63 DUP2 DUP4 PUSH2 0x140E JUMP JUMPDEST PUSH2 0xC6D DUP3 DUP6 PUSH2 0x140E JUMP JUMPDEST PUSH2 0xC78 SWAP1 PUSH1 0x64 PUSH2 0x133A JUMP JUMPDEST PUSH2 0xC82 SWAP2 SWAP1 PUSH2 0x1326 JUMP JUMPDEST PUSH2 0xB82 SWAP1 PUSH2 0x190 PUSH2 0x1425 JUMP JUMPDEST PUSH2 0x3A2 DUP4 LT ISZERO DUP1 ISZERO PUSH2 0xCA2 JUMPI POP PUSH2 0x3BF DUP4 GT ISZERO JUMPDEST ISZERO PUSH2 0xCE5 JUMPI POP PUSH2 0x3C0 SWAP1 POP PUSH2 0x3A2 PUSH2 0xCBA DUP2 DUP4 PUSH2 0x140E JUMP JUMPDEST PUSH2 0xCC4 DUP3 DUP6 PUSH2 0x140E JUMP JUMPDEST PUSH2 0xCCF SWAP1 PUSH1 0x64 PUSH2 0x133A JUMP JUMPDEST PUSH2 0xCD9 SWAP2 SWAP1 PUSH2 0x1326 JUMP JUMPDEST PUSH2 0xB82 SWAP1 PUSH2 0x1F4 PUSH2 0x1425 JUMP JUMPDEST PUSH2 0x3C0 DUP4 LT ISZERO DUP1 ISZERO PUSH2 0xCF9 JUMPI POP PUSH2 0x3D3 DUP4 GT ISZERO JUMPDEST ISZERO PUSH2 0xD3B JUMPI POP PUSH2 0x23A SWAP1 POP PUSH1 0x14 PUSH2 0xD10 DUP2 DUP4 PUSH2 0x140E JUMP JUMPDEST PUSH2 0xD1A DUP3 DUP6 PUSH2 0x140E JUMP JUMPDEST PUSH2 0xD25 SWAP1 PUSH1 0x64 PUSH2 0x133A JUMP JUMPDEST PUSH2 0xD2F SWAP2 SWAP1 PUSH2 0x1326 JUMP JUMPDEST PUSH2 0xB82 SWAP1 PUSH2 0x258 PUSH2 0x1425 JUMP JUMPDEST PUSH2 0x3D4 DUP4 LT ISZERO DUP1 ISZERO PUSH2 0xD4F JUMPI POP PUSH2 0x3DD DUP4 GT ISZERO JUMPDEST ISZERO PUSH2 0xD92 JUMPI POP PUSH2 0x3DE SWAP1 POP PUSH2 0x3D4 PUSH2 0xD67 DUP2 DUP4 PUSH2 0x140E JUMP JUMPDEST PUSH2 0xD71 DUP3 DUP6 PUSH2 0x140E JUMP JUMPDEST PUSH2 0xD7C SWAP1 PUSH1 0x64 PUSH2 0x133A JUMP JUMPDEST PUSH2 0xD86 SWAP2 SWAP1 PUSH2 0x1326 JUMP JUMPDEST PUSH2 0xB82 SWAP1 PUSH2 0x2BC PUSH2 0x1425 JUMP JUMPDEST PUSH2 0x3DE DUP4 LT ISZERO DUP1 ISZERO PUSH2 0xDA6 JUMPI POP PUSH2 0x3E2 DUP4 GT ISZERO JUMPDEST ISZERO PUSH2 0xDE9 JUMPI POP PUSH2 0x3E3 SWAP1 POP PUSH2 0x3DE PUSH2 0xDBE DUP2 DUP4 PUSH2 0x140E JUMP JUMPDEST PUSH2 0xDC8 DUP3 DUP6 PUSH2 0x140E JUMP JUMPDEST PUSH2 0xDD3 SWAP1 PUSH1 0x64 PUSH2 0x133A JUMP JUMPDEST PUSH2 0xDDD SWAP2 SWAP1 PUSH2 0x1326 JUMP JUMPDEST PUSH2 0xB82 SWAP1 PUSH2 0x320 PUSH2 0x1425 JUMP JUMPDEST PUSH2 0x3E3 DUP4 LT ISZERO DUP1 ISZERO PUSH2 0xDFD JUMPI POP PUSH2 0x3E6 DUP4 GT ISZERO JUMPDEST ISZERO PUSH2 0xE40 JUMPI POP PUSH2 0x3E7 SWAP1 POP PUSH2 0x3E3 PUSH2 0xE15 DUP2 DUP4 PUSH2 0x140E JUMP JUMPDEST PUSH2 0xE1F DUP3 DUP6 PUSH2 0x140E JUMP JUMPDEST PUSH2 0xE2A SWAP1 PUSH1 0x64 PUSH2 0x133A JUMP JUMPDEST PUSH2 0xE34 SWAP2 SWAP1 PUSH2 0x1326 JUMP JUMPDEST PUSH2 0xB82 SWAP1 PUSH2 0x384 PUSH2 0x1425 JUMP JUMPDEST DUP3 PUSH2 0x3E7 SUB PUSH2 0xE4F JUMPI PUSH1 0xA PUSH1 0x6 SSTORE JUMPDEST POP POP POP JUMP JUMPDEST PUSH1 0x0 SLOAD PUSH1 0x1 PUSH1 0x1 PUSH1 0xA0 SHL SUB AND CALLER EQ PUSH2 0xE7E JUMPI PUSH1 0x40 MLOAD PUSH3 0x461BCD PUSH1 0xE5 SHL DUP2 MSTORE PUSH1 0x4 ADD PUSH2 0x35F SWAP1 PUSH2 0x1280 JUMP JUMPDEST PUSH1 0x1 PUSH1 0x1 PUSH1 0xA0 SHL SUB DUP2 AND PUSH2 0xEE3 JUMPI PUSH1 0x40 MLOAD PUSH3 0x461BCD PUSH1 0xE5 SHL DUP2 MSTORE PUSH1 0x20 PUSH1 0x4 DUP3 ADD MSTORE PUSH1 0x26 PUSH1 0x24 DUP3 ADD MSTORE PUSH32 0x4F776E61626C653A206E6577206F776E657220697320746865207A65726F2061 PUSH1 0x44 DUP3 ADD MSTORE PUSH6 0x646472657373 PUSH1 0xD0 SHL PUSH1 0x64 DUP3 ADD MSTORE PUSH1 0x84 ADD PUSH2 0x35F JUMP JUMPDEST PUSH2 0xEEC DUP2 PUSH2 0xF2C JUMP JUMPDEST POP JUMP JUMPDEST PUSH1 0x9 DUP2 DUP2 SLOAD DUP2 LT PUSH2 0xEFF JUMPI PUSH1 0x0 DUP1 REVERT JUMPDEST PUSH1 0x0 SWAP2 DUP3 MSTORE PUSH1 0x20 SWAP1 SWAP2 KECCAK256 PUSH1 0x3 SWAP1 SWAP2 MUL ADD DUP1 SLOAD PUSH1 0x1 DUP3 ADD SLOAD PUSH1 0x2 SWAP1 SWAP3 ADD SLOAD PUSH1 0x1 PUSH1 0x1 PUSH1 0xA0 SHL SUB SWAP1 SWAP2 AND SWAP3 POP DUP4 JUMP JUMPDEST PUSH1 0x0 DUP1 SLOAD PUSH1 0x1 PUSH1 0x1 PUSH1 0xA0 SHL SUB DUP4 DUP2 AND PUSH1 0x1 PUSH1 0x1 PUSH1 0xA0 SHL SUB NOT DUP4 AND DUP2 OR DUP5 SSTORE PUSH1 0x40 MLOAD SWAP2 SWAP1 SWAP3 AND SWAP3 DUP4 SWAP2 PUSH32 0x8BE0079C531659141344CD1FD0A4F28419497F9722A3DAAFE3B4186F6B6457E0 SWAP2 SWAP1 LOG3 POP POP JUMP JUMPDEST PUSH1 0x2 PUSH1 0x8 SLOAD PUSH1 0x1 PUSH1 0xA0 SHL SWAP1 DIV PUSH1 0xFF AND PUSH1 0x2 DUP2 GT ISZERO PUSH2 0xF9C JUMPI PUSH2 0xF9C PUSH2 0x11D7 JUMP JUMPDEST EQ PUSH2 0xFB9 JUMPI PUSH1 0x40 MLOAD PUSH3 0x461BCD PUSH1 0xE5 SHL DUP2 MSTORE PUSH1 0x4 ADD PUSH2 0x35F SWAP1 PUSH2 0x12B5 JUMP JUMPDEST PUSH1 0x0 DUP2 GT PUSH2 0x1009 JUMPI PUSH1 0x40 MLOAD PUSH3 0x461BCD PUSH1 0xE5 SHL DUP2 MSTORE PUSH1 0x20 PUSH1 0x4 DUP3 ADD DUP2 SWAP1 MSTORE PUSH1 0x24 DUP3 ADD MSTORE PUSH32 0x7468657265206973206E6F2072616E646F6D206E756D62657220796574212121 PUSH1 0x44 DUP3 ADD MSTORE PUSH1 0x64 ADD PUSH2 0x35F JUMP JUMPDEST PUSH1 0x5 SSTORE POP JUMP JUMPDEST PUSH1 0x0 PUSH32 0x0 PUSH1 0x1 PUSH1 0x1 PUSH1 0xA0 SHL SUB AND PUSH4 0x4000AEA0 PUSH32 0x0 DUP5 DUP7 PUSH1 0x0 PUSH1 0x40 MLOAD PUSH1 0x20 ADD PUSH2 0x107F SWAP3 SWAP2 SWAP1 SWAP2 DUP3 MSTORE PUSH1 0x20 DUP3 ADD MSTORE PUSH1 0x40 ADD SWAP1 JUMP JUMPDEST PUSH1 0x40 MLOAD PUSH1 0x20 DUP2 DUP4 SUB SUB DUP2 MSTORE SWAP1 PUSH1 0x40 MSTORE PUSH1 0x40 MLOAD DUP5 PUSH4 0xFFFFFFFF AND PUSH1 0xE0 SHL DUP2 MSTORE PUSH1 0x4 ADD PUSH2 0x10AC SWAP4 SWAP3 SWAP2 SWAP1 PUSH2 0x143D JUMP JUMPDEST PUSH1 0x20 PUSH1 0x40 MLOAD DUP1 DUP4 SUB DUP2 PUSH1 0x0 DUP8 GAS CALL ISZERO DUP1 ISZERO PUSH2 0x10CB JUMPI RETURNDATASIZE PUSH1 0x0 DUP1 RETURNDATACOPY RETURNDATASIZE PUSH1 0x0 REVERT JUMPDEST POP POP POP POP PUSH1 0x40 MLOAD RETURNDATASIZE PUSH1 0x1F NOT PUSH1 0x1F DUP3 ADD AND DUP3 ADD DUP1 PUSH1 0x40 MSTORE POP DUP2 ADD SWAP1 PUSH2 0x10EF SWAP2 SWAP1 PUSH2 0x14A9 JUMP JUMPDEST POP PUSH1 0x0 DUP4 DUP2 MSTORE PUSH1 0x1 PUSH1 0x20 DUP2 DUP2 MSTORE PUSH1 0x40 DUP1 DUP5 KECCAK256 SLOAD DUP2 MLOAD DUP1 DUP5 ADD DUP10 SWAP1 MSTORE DUP1 DUP4 ADD DUP7 SWAP1 MSTORE ADDRESS PUSH1 0x60 DUP3 ADD MSTORE PUSH1 0x80 DUP1 DUP3 ADD DUP4 SWAP1 MSTORE DUP4 MLOAD DUP1 DUP4 SUB SWAP1 SWAP2 ADD DUP2 MSTORE PUSH1 0xA0 SWAP1 SWAP2 ADD SWAP1 SWAP3 MSTORE DUP2 MLOAD SWAP2 DUP4 ADD SWAP2 SWAP1 SWAP2 KECCAK256 SWAP4 DUP8 SWAP1 MSTORE SWAP1 DUP3 SWAP1 MSTORE PUSH2 0x114A SWAP2 PUSH2 0x1425 JUMP JUMPDEST PUSH1 0x0 DUP6 DUP2 MSTORE PUSH1 0x1 PUSH1 0x20 MSTORE PUSH1 0x40 SWAP1 KECCAK256 SSTORE PUSH2 0x5EF DUP5 DUP3 PUSH1 0x40 DUP1 MLOAD PUSH1 0x20 DUP1 DUP3 ADD SWAP5 SWAP1 SWAP5 MSTORE DUP1 DUP3 ADD SWAP3 SWAP1 SWAP3 MSTORE DUP1 MLOAD DUP1 DUP4 SUB DUP3 ADD DUP2 MSTORE PUSH1 0x60 SWAP1 SWAP3 ADD SWAP1 MSTORE DUP1 MLOAD SWAP2 ADD KECCAK256 SWAP1 JUMP JUMPDEST POP DUP1 SLOAD PUSH1 0x0 DUP3 SSTORE PUSH1 0x3 MUL SWAP1 PUSH1 0x0 MSTORE PUSH1 0x20 PUSH1 0x0 KECCAK256 SWAP1 DUP2 ADD SWAP1 PUSH2 0xEEC SWAP2 SWAP1 JUMPDEST DUP1 DUP3 GT ISZERO PUSH2 0x11D3 JUMPI DUP1 SLOAD PUSH1 0x1 PUSH1 0x1 PUSH1 0xA0 SHL SUB NOT AND DUP2 SSTORE PUSH1 0x0 PUSH1 0x1 DUP3 ADD DUP2 SWAP1 SSTORE PUSH1 0x2 DUP3 ADD SSTORE PUSH1 0x3 ADD PUSH2 0x11A7 JUMP JUMPDEST POP SWAP1 JUMP JUMPDEST PUSH4 0x4E487B71 PUSH1 0xE0 SHL PUSH1 0x0 MSTORE PUSH1 0x21 PUSH1 0x4 MSTORE PUSH1 0x24 PUSH1 0x0 REVERT JUMPDEST PUSH1 0x20 DUP2 ADD PUSH1 0x3 DUP4 LT PUSH2 0x120F JUMPI PUSH4 0x4E487B71 PUSH1 0xE0 SHL PUSH1 0x0 MSTORE PUSH1 0x21 PUSH1 0x4 MSTORE PUSH1 0x24 PUSH1 0x0 REVERT JUMPDEST SWAP2 SWAP1 MSTORE SWAP1 JUMP JUMPDEST PUSH1 0x0 DUP1 PUSH1 0x40 DUP4 DUP6 SUB SLT ISZERO PUSH2 0x1228 JUMPI PUSH1 0x0 DUP1 REVERT JUMPDEST POP POP DUP1 CALLDATALOAD SWAP3 PUSH1 0x20 SWAP1 SWAP2 ADD CALLDATALOAD SWAP2 POP JUMP JUMPDEST PUSH1 0x0 PUSH1 0x20 DUP3 DUP5 SUB SLT ISZERO PUSH2 0x1249 JUMPI PUSH1 0x0 DUP1 REVERT JUMPDEST POP CALLDATALOAD SWAP2 SWAP1 POP JUMP JUMPDEST PUSH1 0x0 PUSH1 0x20 DUP3 DUP5 SUB SLT ISZERO PUSH2 0x1262 JUMPI PUSH1 0x0 DUP1 REVERT JUMPDEST DUP2 CALLDATALOAD PUSH1 0x1 PUSH1 0x1 PUSH1 0xA0 SHL SUB DUP2 AND DUP2 EQ PUSH2 0x1279 JUMPI PUSH1 0x0 DUP1 REVERT JUMPDEST SWAP4 SWAP3 POP POP POP JUMP JUMPDEST PUSH1 0x20 DUP1 DUP3 MSTORE DUP2 DUP2 ADD MSTORE PUSH32 0x4F776E61626C653A2063616C6C6572206973206E6F7420746865206F776E6572 PUSH1 0x40 DUP3 ADD MSTORE PUSH1 0x60 ADD SWAP1 JUMP JUMPDEST PUSH1 0x20 DUP1 DUP3 MSTORE PUSH1 0x15 SWAP1 DUP3 ADD MSTORE PUSH21 0x626C617374206973206E6F7420656E646564212121 PUSH1 0x58 SHL PUSH1 0x40 DUP3 ADD MSTORE PUSH1 0x60 ADD SWAP1 JUMP JUMPDEST PUSH4 0x4E487B71 PUSH1 0xE0 SHL PUSH1 0x0 MSTORE PUSH1 0x32 PUSH1 0x4 MSTORE PUSH1 0x24 PUSH1 0x0 REVERT JUMPDEST PUSH4 0x4E487B71 PUSH1 0xE0 SHL PUSH1 0x0 MSTORE PUSH1 0x12 PUSH1 0x4 MSTORE PUSH1 0x24 PUSH1 0x0 REVERT JUMPDEST PUSH4 0x4E487B71 PUSH1 0xE0 SHL PUSH1 0x0 MSTORE PUSH1 0x11 PUSH1 0x4 MSTORE PUSH1 0x24 PUSH1 0x0 REVERT JUMPDEST PUSH1 0x0 DUP3 PUSH2 0x1335 JUMPI PUSH2 0x1335 PUSH2 0x12FA JUMP JUMPDEST POP DIV SWAP1 JUMP JUMPDEST PUSH1 0x0 DUP2 PUSH1 0x0 NOT DIV DUP4 GT DUP3 ISZERO ISZERO AND ISZERO PUSH2 0x1354 JUMPI PUSH2 0x1354 PUSH2 0x1310 JUMP JUMPDEST POP MUL SWAP1 JUMP JUMPDEST PUSH1 0x0 PUSH1 0x1 DUP3 ADD PUSH2 0x136B JUMPI PUSH2 0x136B PUSH2 0x1310 JUMP JUMPDEST POP PUSH1 0x1 ADD SWAP1 JUMP JUMPDEST DUP1 MLOAD PUSH10 0xFFFFFFFFFFFFFFFFFFFF DUP2 AND DUP2 EQ PUSH2 0x138C JUMPI PUSH1 0x0 DUP1 REVERT JUMPDEST SWAP2 SWAP1 POP JUMP JUMPDEST PUSH1 0x0 DUP1 PUSH1 0x0 DUP1 PUSH1 0x0 PUSH1 0xA0 DUP7 DUP9 SUB SLT ISZERO PUSH2 0x13A9 JUMPI PUSH1 0x0 DUP1 REVERT JUMPDEST PUSH2 0x13B2 DUP7 PUSH2 0x1372 JUMP JUMPDEST SWAP5 POP PUSH1 0x20 DUP7 ADD MLOAD SWAP4 POP PUSH1 0x40 DUP7 ADD MLOAD SWAP3 POP PUSH1 0x60 DUP7 ADD MLOAD SWAP2 POP PUSH2 0x13D5 PUSH1 0x80 DUP8 ADD PUSH2 0x1372 JUMP JUMPDEST SWAP1 POP SWAP3 SWAP6 POP SWAP3 SWAP6 SWAP1 SWAP4 POP JUMP JUMPDEST PUSH1 0x0 PUSH1 0x20 DUP3 DUP5 SUB SLT ISZERO PUSH2 0x13F3 JUMPI PUSH1 0x0 DUP1 REVERT JUMPDEST POP MLOAD SWAP2 SWAP1 POP JUMP JUMPDEST PUSH1 0x0 DUP3 PUSH2 0x1409 JUMPI PUSH2 0x1409 PUSH2 0x12FA JUMP JUMPDEST POP MOD SWAP1 JUMP JUMPDEST PUSH1 0x0 DUP3 DUP3 LT ISZERO PUSH2 0x1420 JUMPI PUSH2 0x1420 PUSH2 0x1310 JUMP JUMPDEST POP SUB SWAP1 JUMP JUMPDEST PUSH1 0x0 DUP3 NOT DUP3 GT ISZERO PUSH2 0x1438 JUMPI PUSH2 0x1438 PUSH2 0x1310 JUMP JUMPDEST POP ADD SWAP1 JUMP JUMPDEST PUSH1 0x1 DUP1 PUSH1 0xA0 SHL SUB DUP5 AND DUP2 MSTORE PUSH1 0x0 PUSH1 0x20 DUP5 DUP2 DUP5 ADD MSTORE PUSH1 0x60 PUSH1 0x40 DUP5 ADD MSTORE DUP4 MLOAD DUP1 PUSH1 0x60 DUP6 ADD MSTORE PUSH1 0x0 JUMPDEST DUP2 DUP2 LT ISZERO PUSH2 0x147F JUMPI DUP6 DUP2 ADD DUP4 ADD MLOAD DUP6 DUP3 ADD PUSH1 0x80 ADD MSTORE DUP3 ADD PUSH2 0x1463 JUMP JUMPDEST DUP2 DUP2 GT ISZERO PUSH2 0x1491 JUMPI PUSH1 0x0 PUSH1 0x80 DUP4 DUP8 ADD ADD MSTORE JUMPDEST POP PUSH1 0x1F ADD PUSH1 0x1F NOT AND SWAP3 SWAP1 SWAP3 ADD PUSH1 0x80 ADD SWAP6 SWAP5 POP POP POP POP POP JUMP JUMPDEST PUSH1 0x0 PUSH1 0x20 DUP3 DUP5 SUB SLT ISZERO PUSH2 0x14BB JUMPI PUSH1 0x0 DUP1 REVERT JUMPDEST DUP2 MLOAD DUP1 ISZERO ISZERO DUP2 EQ PUSH2 0x1279 JUMPI PUSH1 0x0 DUP1 REVERT INVALID LOG2 PUSH5 0x6970667358 0x22 SLT KECCAK256 EXTCODESIZE CODESIZE 0xB5 PUSH28 0xF3043A8D697B18FAF491BF2C58B728011E323B3568A714AE7261B8CB PUSH5 0x736F6C6343 STOP ADDMOD 0xE STOP CALLER ","sha1":"ecd325746415ef8f7a2763db4edf3795bcb14640","source":"// SPDX-License-Identifier: MIT\npragma solidity ^0.8.0;\n\nimport \"@chainlink/contracts/src/v0.8/interfaces/AggregatorV3Interface.sol\";\nimport \"@openzeppelin/contracts/access/Ownable.sol\";\nimport \"@chainlink/contracts/src/v0.8/VRFConsumerBase.sol\";\n\ncontract Blast is Ownable , VRFConsumerBase{\n    uint256 public entranceFeeAmount;\n    bytes32 public keyHash;\n    uint256 public fee;\n    uint256 public randomness;\n    uint256 public randomRatio; \n    uint256 public winnerCounter;\n    AggregatorV3Interface internal entranceFeeContract;\n    enum BLAST_STATUS{\n        OPEN,\n        CLOSE,\n        CALCULATING\n    }\n    BLAST_STATUS public blast_status;\n\n    event requestIdRandomness(bytes32 requestId);\n\n    constructor(address _entranceFeeAddress , address _vrfcoordinator , address _link , bytes32 _keyhash , uint256 _fee) public VRFConsumerBase(_vrfcoordinator , _link){\n        blast_status = BLAST_STATUS.CLOSE;\n        keyHash = _keyhash;\n        fee = _fee;\n        winnerCounter = 0;\n        entranceFeeAmount = 5 * (10**18);\n        entranceFeeContract = AggregatorV3Interface(_entranceFeeAddress);\n    }\n\n    struct info{\n        address payable account;\n        uint256 money;\n        uint256 ratio;\n    }\n\n    info[] public players;\n\n\n    function entranceFee() public view returns(uint256){\n        ( ,int price, , , ) = entranceFeeContract.latestRoundData();\n        uint256 adjustedPrice = uint256(price) * (10**10); //18 decimal,'price' 8 decimal dare\n        uint256 costToEnter = entranceFeeAmount * (10**18) / adjustedPrice; //vooroodi be wei\n        return costToEnter;\n    }\n    function enter(uint256 _ratio) payable public{\n        require(blast_status == BLAST_STATUS.OPEN);\n        require(msg.value >= entranceFee() , \"not enough money for blast!!!\");\n        require(_ratio > 100 && _ratio <= 1000 , \"incorrect ratio!!!\");\n        players.push(info(payable(msg.sender) , msg.value , _ratio));\n    }\n    function start() public onlyOwner{\n        require(blast_status == BLAST_STATUS.CLOSE);\n        blast_status = BLAST_STATUS.OPEN;\n    }\n\n    function finish() public onlyOwner returns(bytes32 requestId){\n        require(LINK.balanceOf(address(this)) >= fee, \"Not enough LINK - fill contract with faucet\");\n        blast_status = BLAST_STATUS.CALCULATING;\n        requestId = requestRandomness(keyHash, fee);\n        return requestId;\n        emit requestIdRandomness(requestId);\n    }\n\n    function fulfillRandomness(bytes32 _requestId, uint256 _randomness) internal override{\n        require(blast_status == BLAST_STATUS.CALCULATING , \"blast is not ended!!!\");\n        require(_randomness > 0 , \"there is no random number yet!!!\");\n        randomness = _randomness;\n    }\n\n    function charge(uint256 _value) payable public onlyOwner{\n        bool send = payable(address(this)).send(_value);\n        require(send, \"couldn't charge contract!!!\");\n    }\n\n    function getRatio() public onlyOwner{\n        require(blast_status == BLAST_STATUS.CALCULATING, \"blast is not ended!!!\");\n        uint256 modulus = randomness % 1000;\n        uint256 top;\n        uint256 down;\n        if (modulus <= 19 && modulus >= 0 ){\n            randomRatio = 0;\n        }\n        else if (modulus <= 569 && modulus >= 20 ){\n            top = 570;\n            down = 20;\n            randomRatio = (modulus-down)*100/(top-down) + 100;\n        }\n        else if (modulus <= 779 && modulus >= 570 ){\n            top = 780;\n            down = 570;\n            randomRatio = (modulus-down)*100/(top-down) + 200;\n        }\n        else if (modulus >= 780 && modulus <= 879 ){\n            top = 880;\n            down = 780;\n            randomRatio = (modulus-down)*100/(top-down) + 300;\n        }\n        else if (modulus >= 880 && modulus <= 929 ){\n            top = 930;\n            down = 880;\n            randomRatio = (modulus-down)*100/(top-down) + 400;\n        }\n        else if (modulus >= 930 && modulus <= 959 ){\n            top = 960;\n            down = 930;\n            randomRatio = (modulus-down)*100/(top-down) + 500;\n        }\n        else if (modulus >= 960 && modulus <= 979 ){\n            top = 570;\n            down = 20;\n            randomRatio = (modulus-down)*100/(top-down) + 600;\n        }\n        else if (modulus >= 980 && modulus <= 989 ){\n            top = 990;\n            down = 980;\n            randomRatio = (modulus-down)*100/(top-down) + 700;\n        }\n        else if (modulus >= 990 && modulus <= 994 ){\n            top = 995;\n            down = 990;\n            randomRatio = (modulus-down)*100/(top-down) + 800;\n        }\n        else if (modulus >= 995 && modulus <= 998 ){\n            top = 999;\n            down = 995;\n            randomRatio = (modulus-down)*100/(top-down) + 900;\n        }\n        else if (modulus == 999 ){\n            randomRatio = 10;\n        }\n    }\n\n        function blastPayment() public onlyOwner{\n        require(blast_status == BLAST_STATUS.CALCULATING, \"blast is not ended!!!\");\n        for (uint256 i=0 ; i < players.length ; i++){\n            if(randomRatio > 0){\n                uint256 playerRatio = players[i].ratio;\n                if (playerRatio <= randomRatio){\n                    uint256 playerValue = players[i].money / 100 * players[i].ratio;\n                    address payable playerAddress = players[i].account;\n                    bool send_status = playerAddress.send(playerValue);\n                    require(send_status , \"sending Failed!!!\");\n                    winnerCounter++;\n                }\n            }\n        }\n        delete players;\n        blast_status = BLAST_STATUS.CLOSE;\n        }\n        \n    \n}","sourcePath":"contracts/Blast.sol","type":"contract","deployment":{"address":"0x63f8E2175d340E7E0ae7e5d6DEE9EA050d1406f8","chainid":"4","blockHeight":11206569}}