{"bytecode":"60c06040523480156200001157600080fd5b50604051620015db380380620015db833981016040819052620000349162000105565b8383620000413362000098565b6001600160a01b0391821660a0528116608052600880546003949094556004929092556000600755674563918244f40000600255949094166001600160a81b031990911617600160a01b1790925550620001629050565b600080546001600160a01b038381166001600160a01b0319831681178455604051919092169283917f8be0079c531659141344cd1fd0a4f28419497f9722a3daafe3b4186f6b6457e09190a35050565b80516001600160a01b03811681146200010057600080fd5b919050565b600080600080600060a086880312156200011e57600080fd5b6200012986620000e8565b94506200013960208701620000e8565b93506200014960408701620000e8565b6060870151608090970151959894975095949392505050565b60805160a05161144562000196600039600081816106130152610f860152600081816108e10152610f5701526114456000f3fe6080604052600436106101095760003560e01c806394985ddd11610095578063d56b288911610064578063d56b288914610265578063ddca3f431461027a578063ec1ebd7a14610290578063f2fde38b146102a5578063f71d96cb146102c557600080fd5b806394985ddd14610207578063a1e0c2c914610227578063a59f3e0c1461023d578063be9a65551461025057600080fd5b80635a88376e116100dc5780635a88376e1461018957806361728f391461019f578063649677e1146101b5578063715018a6146101ca5780638da5cb5b146101df57600080fd5b80630e8c66fe1461010e5780631b06b7a7146101455780632c4108871461014f5780633601318914610173575b600080fd5b34801561011a57600080fd5b5060085461012f90600160a01b900460ff1681565b60405161013c9190611131565b60405180910390f35b61014d61030a565b005b34801561015b57600080fd5b5061016560025481565b60405190815260200161013c565b34801561017f57600080fd5b5061016560055481565b34801561019557600080fd5b5061016560065481565b3480156101ab57600080fd5b5061016560035481565b3480156101c157600080fd5b50610165610512565b3480156101d657600080fd5b5061014d6105d2565b3480156101eb57600080fd5b506000546040516001600160a01b03909116815260200161013c565b34801561021357600080fd5b5061014d610222366004611159565b610608565b34801561023357600080fd5b5061016560075481565b61014d61024b36600461117b565b61068e565b34801561025c57600080fd5b5061014d610824565b34801561027157600080fd5b50610165610892565b34801561028657600080fd5b5061016560045481565b34801561029c57600080fd5b5061014d6109d6565b3480156102b157600080fd5b5061014d6102c0366004611194565b610d98565b3480156102d157600080fd5b506102e56102e036600461117b565b610e33565b604080516001600160a01b03909416845260208401929092529082015260600161013c565b6000546001600160a01b0316331461033d5760405162461bcd60e51b8152600401610334906111c4565b60405180910390fd5b6002600854600160a01b900460ff16600281111561035d5761035d61111b565b1461037a5760405162461bcd60e51b8152600401610334906111f9565b6000600654116103bc5760405162461bcd60e51b815260206004820152600d60248201526c526174696f206973203021212160981b6044820152606401610334565b60005b6009548110156104e8576000600982815481106103de576103de611228565b906000526020600020906003020160020154905060065481116104d55760006009838154811061041057610410611228565b90600052602060002090600302016002015460646009858154811061043757610437611228565b906000526020600020906003020160010154610453919061126a565b61045d919061127e565b905060006009848154811061047457610474611228565b600091825260208220600390910201546040516001600160a01b039091169250829184156108fc02918591818181858888f193505050501580156104bc573d6000803e3d6000fd5b50600780549060006104cd8361129d565b919050555050505b50806104e08161129d565b9150506103bf565b506104f5600960006110ce565b600880546001919060ff60a01b1916600160a01b835b0217905550565b600080600860009054906101000a90046001600160a01b03166001600160a01b031663feaf968c6040518163ffffffff1660e01b815260040160a060405180830381865afa158015610568573d6000803e3d6000fd5b505050506040513d601f19601f8201168201806040525081019061058c91906112d5565b5050509150506000816402540be4006105a5919061127e565b9050600081600254670de0b6b3a76400006105c0919061127e565b6105ca919061126a565b949350505050565b6000546001600160a01b031633146105fc5760405162461bcd60e51b8152600401610334906111c4565b6106066000610e70565b565b336001600160a01b037f000000000000000000000000000000000000000000000000000000000000000016146106805760405162461bcd60e51b815260206004820152601f60248201527f4f6e6c7920565246436f6f7264696e61746f722063616e2066756c66696c6c006044820152606401610334565b61068a8282610ec0565b5050565b6000600854600160a01b900460ff1660028111156106ae576106ae61111b565b146106b857600080fd5b6106c0610512565b34101561070f5760405162461bcd60e51b815260206004820152601d60248201527f6e6f7420656e6f756768206d6f6e657920666f7220626c6173742121210000006044820152606401610334565b60648111801561072157506103e88111155b6107625760405162461bcd60e51b8152602060048201526012602482015271696e636f727265637420726174696f21212160701b6044820152606401610334565b6040805160608101825233815234602082019081529181019283526009805460018101825560009190915290517f6e1540171b6c0c960b71a7020d9f60077f6af931a8bbf590da0223dacf75c7af600390920291820180546001600160a01b0319166001600160a01b0390921691909117905590517f6e1540171b6c0c960b71a7020d9f60077f6af931a8bbf590da0223dacf75c7b082015590517f6e1540171b6c0c960b71a7020d9f60077f6af931a8bbf590da0223dacf75c7b190910155565b6000546001600160a01b0316331461084e5760405162461bcd60e51b8152600401610334906111c4565b6001600854600160a01b900460ff16600281111561086e5761086e61111b565b1461087857600080fd5b600880546000919060ff60a01b1916600160a01b8361050b565b600080546001600160a01b031633146108bd5760405162461bcd60e51b8152600401610334906111c4565b600480546040516370a0823160e01b81523092810192909252906001600160a01b037f000000000000000000000000000000000000000000000000000000000000000016906370a0823190602401602060405180830381865afa158015610928573d6000803e3d6000fd5b505050506040513d601f19601f8201168201806040525081019061094c9190611325565b10156109ae5760405162461bcd60e51b815260206004820152602b60248201527f4e6f7420656e6f756768204c494e4b202d2066696c6c20636f6e74726163742060448201526a1dda5d1a0819985d58d95d60aa1b6064820152608401610334565b6008805460ff60a01b1916600160a11b1790556003546004546109d19190610f53565b905090565b6000546001600160a01b03163314610a005760405162461bcd60e51b8152600401610334906111c4565b6002600854600160a01b900460ff166002811115610a2057610a2061111b565b14610a3d5760405162461bcd60e51b8152600401610334906111f9565b60006103e8600554610a4f919061133e565b905060008060138311158015610a63575060015b15610a72576000600655505050565b6102398311158015610a85575060148310155b15610ace575061023a90506014610a9c8183611352565b610aa68285611352565b610ab190606461127e565b610abb919061126a565b610ac6906064611369565b600655505050565b61030b8311158015610ae2575061023a8310155b15610b24575061030c905061023a610afa8183611352565b610b048285611352565b610b0f90606461127e565b610b19919061126a565b610ac69060c8611369565b61030c8310158015610b38575061036f8311155b15610b7b5750610370905061030c610b508183611352565b610b5a8285611352565b610b6590606461127e565b610b6f919061126a565b610ac69061012c611369565b6103708310158015610b8f57506103a18311155b15610bd257506103a29050610370610ba78183611352565b610bb18285611352565b610bbc90606461127e565b610bc6919061126a565b610ac690610190611369565b6103a28310158015610be657506103bf8311155b15610c2957506103c090506103a2610bfe8183611352565b610c088285611352565b610c1390606461127e565b610c1d919061126a565b610ac6906101f4611369565b6103c08310158015610c3d57506103d38311155b15610c7f575061023a90506014610c548183611352565b610c5e8285611352565b610c6990606461127e565b610c73919061126a565b610ac690610258611369565b6103d48310158015610c9357506103dd8311155b15610cd657506103de90506103d4610cab8183611352565b610cb58285611352565b610cc090606461127e565b610cca919061126a565b610ac6906102bc611369565b6103de8310158015610cea57506103e28311155b15610d2d57506103e390506103de610d028183611352565b610d0c8285611352565b610d1790606461127e565b610d21919061126a565b610ac690610320611369565b6103e38310158015610d4157506103e68311155b15610d8457506103e790506103e3610d598183611352565b610d638285611352565b610d6e90606461127e565b610d78919061126a565b610ac690610384611369565b826103e703610d9357600a6006555b505050565b6000546001600160a01b03163314610dc25760405162461bcd60e51b8152600401610334906111c4565b6001600160a01b038116610e275760405162461bcd60e51b815260206004820152602660248201527f4f776e61626c653a206e6577206f776e657220697320746865207a65726f206160448201526564647265737360d01b6064820152608401610334565b610e3081610e70565b50565b60098181548110610e4357600080fd5b60009182526020909120600390910201805460018201546002909201546001600160a01b03909116925083565b600080546001600160a01b038381166001600160a01b0319831681178455604051919092169283917f8be0079c531659141344cd1fd0a4f28419497f9722a3daafe3b4186f6b6457e09190a35050565b6002600854600160a01b900460ff166002811115610ee057610ee061111b565b14610efd5760405162461bcd60e51b8152600401610334906111f9565b60008111610f4d5760405162461bcd60e51b815260206004820181905260248201527f7468657265206973206e6f2072616e646f6d206e756d626572207965742121216044820152606401610334565b60055550565b60007f00000000000000000000000000000000000000000000000000000000000000006001600160a01b0316634000aea07f000000000000000000000000000000000000000000000000000000000000000084866000604051602001610fc3929190918252602082015260400190565b6040516020818303038152906040526040518463ffffffff1660e01b8152600401610ff093929190611381565b6020604051808303816000875af115801561100f573d6000803e3d6000fd5b505050506040513d601f19601f8201168201806040525081019061103391906113ed565b50600083815260016020818152604080842054815180840189905280830186905230606082015260808082018390528351808303909101815260a0909101909252815191830191909120938790529082905261108e91611369565b6000858152600160205260409020556105ca8482604080516020808201949094528082019290925280518083038201815260609092019052805191012090565b5080546000825560030290600052602060002090810190610e3091905b808211156111175780546001600160a01b031916815560006001820181905560028201556003016110eb565b5090565b634e487b7160e01b600052602160045260246000fd5b602081016003831061115357634e487b7160e01b600052602160045260246000fd5b91905290565b6000806040838503121561116c57600080fd5b50508035926020909101359150565b60006020828403121561118d57600080fd5b5035919050565b6000602082840312156111a657600080fd5b81356001600160a01b03811681146111bd57600080fd5b9392505050565b6020808252818101527f4f776e61626c653a2063616c6c6572206973206e6f7420746865206f776e6572604082015260600190565b602080825260159082015274626c617374206973206e6f7420656e64656421212160581b604082015260600190565b634e487b7160e01b600052603260045260246000fd5b634e487b7160e01b600052601260045260246000fd5b634e487b7160e01b600052601160045260246000fd5b6000826112795761127961123e565b500490565b600081600019048311821515161561129857611298611254565b500290565b6000600182016112af576112af611254565b5060010190565b805169ffffffffffffffffffff811681146112d057600080fd5b919050565b600080600080600060a086880312156112ed57600080fd5b6112f6866112b6565b9450602086015193506040860151925060608601519150611319608087016112b6565b90509295509295909350565b60006020828403121561133757600080fd5b5051919050565b60008261134d5761134d61123e565b500690565b60008282101561136457611364611254565b500390565b6000821982111561137c5761137c611254565b500190565b60018060a01b038416815260006020848184015260606040840152835180606085015260005b818110156113c3578581018301518582016080015282016113a7565b818111156113d5576000608083870101525b50601f01601f19169290920160800195945050505050565b6000602082840312156113ff57600080fd5b815180151581146111bd57600080fdfea264697066735822122002c74af90231a3d811db645233f73e9c4351190902abf4efddce1eb5a7c7308764736f6c634300080e0033","bytecodeSha1":"d276d7400b8ecada92818ffdcc3128371a6abcaa","type":"contract","abi":[{"inputs":[{"internalType":"address","name":"_entranceFeeAddress","type":"address"},{"internalType":"address","name":"_vrfcoordinator","type":"address"},{"internalType":"address","name":"_link","type":"address"},{"internalType":"bytes32","name":"_keyhash","type":"bytes32"},{"internalType":"uint256","name":"_fee","type":"uint256"}],"stateMutability":"nonpayable","type":"constructor","name":"constructor"},{"anonymous":false,"inputs":[{"indexed":true,"internalType":"address","name":"previousOwner","type":"address"},{"indexed":true,"internalType":"address","name":"newOwner","type":"address"}],"name":"OwnershipTransferred","type":"event"},{"anonymous":false,"inputs":[{"indexed":false,"internalType":"bytes32","name":"requestId","type":"bytes32"}],"name":"requestIdRandomness","type":"event"},{"inputs":[],"name":"blastPayment","outputs":[],"stateMutability":"payable","type":"function"},{"inputs":[],"name":"blast_status","outputs":[{"internalType":"enum Blast.BLAST_STATUS","name":"","type":"uint8"}],"stateMutability":"view","type":"function"},{"inputs":[{"internalType":"uint256","name":"_ratio","type":"uint256"}],"name":"enter","outputs":[],"stateMutability":"payable","type":"function"},{"inputs":[],"name":"entranceFee","outputs":[{"internalType":"uint256","name":"","type":"uint256"}],"stateMutability":"view","type":"function"},{"inputs":[],"name":"entranceFeeAmount","outputs":[{"internalType":"uint256","name":"","type":"uint256"}],"stateMutability":"view","type":"function"},{"inputs":[],"name":"fee","outputs":[{"internalType":"uint256","name":"","type":"uint256"}],"stateMutability":"view","type":"function"},{"inputs":[],"name":"finish","outputs":[{"internalType":"bytes32","name":"requestId","type":"bytes32"}],"stateMutability":"nonpayable","type":"function"},{"inputs":[],"name":"getRatio","outputs":[],"stateMutability":"nonpayable","type":"function"},{"inputs":[],"name":"keyHash","outputs":[{"internalType":"bytes32","name":"","type":"bytes32"}],"stateMutability":"view","type":"function"},{"inputs":[],"name":"owner","outputs":[{"internalType":"address","name":"","type":"address"}],"stateMutability":"view","type":"function"},{"inputs":[{"internalType":"uint256","name":"","type":"uint256"}],"name":"players","outputs":[{"internalType":"address payable","name":"account","type":"address"},{"internalType":"uint256","name":"money","type":"uint256"},{"internalType":"uint256","name":"ratio","type":"uint256"}],"stateMutability":"view","type":"function"},{"inputs":[],"name":"randomRatio","outputs":[{"internalType":"uint256","name":"","type":"uint256"}],"stateMutability":"view","type":"function"},{"inputs":[],"name":"randomness","outputs":[{"internalType":"uint256","name":"","type":"uint256"}],"stateMutability":"view","type":"function"},{"inputs":[{"internalType":"bytes32","name":"requestId","type":"bytes32"},{"internalType":"uint256","name":"randomness","type":"uint256"}],"name":"rawFulfillRandomness","outputs":[],"stateMutability":"nonpayable","type":"function"},{"inputs":[],"name":"renounceOwnership","outputs":[],"stateMutability":"nonpayable","type":"function"},{"inputs":[],"name":"start","outputs":[],"stateMutability":"nonpayable","type":"function"},{"inputs":[{"internalType":"address","name":"newOwner","type":"address"}],"name":"transferOwnership","outputs":[],"stateMutability":"nonpayable","type":"function"},{"inputs":[],"name":"winnerCounter","outputs":[{"internalType":"uint256","name":"","type":"uint256"}],"stateMutability":"view","type":"function"}],"compiler":{"version":"0.8.14+commit.80d49f37","evm_version":"istanbul","optimizer":{"enabled":true,"runs":200}},"contractName":"Blast","language":"Solidity","natspec":{"methods":{"owner()":{"details":"Returns the address of the current owner."},"renounceOwnership()":{"details":"Leaves the contract without owner. It will not be possible to call `onlyOwner` functions anymore. Can only be called by the current owner. NOTE: Renouncing ownership will leave the contract without an owner, thereby removing any functionality that is only available to the owner."},"transferOwnership(address)":{"details":"Transfers ownership of the contract to a new account (`newOwner`). Can only be called by the current owner."}},"kind":"dev","version":1},"opcodes":"PUSH1 0x80 PUSH1 0x40 MSTORE PUSH1 0x4 CALLDATASIZE LT PUSH2 0x109 JUMPI PUSH1 0x0 CALLDATALOAD PUSH1 0xE0 SHR DUP1 PUSH4 0x94985DDD GT PUSH2 0x95 JUMPI DUP1 PUSH4 0xD56B2889 GT PUSH2 0x64 JUMPI DUP1 PUSH4 0xD56B2889 EQ PUSH2 0x265 JUMPI DUP1 PUSH4 0xDDCA3F43 EQ PUSH2 0x27A JUMPI DUP1 PUSH4 0xEC1EBD7A EQ PUSH2 0x290 JUMPI DUP1 PUSH4 0xF2FDE38B EQ PUSH2 0x2A5 JUMPI DUP1 PUSH4 0xF71D96CB EQ PUSH2 0x2C5 JUMPI PUSH1 0x0 DUP1 REVERT JUMPDEST DUP1 PUSH4 0x94985DDD EQ PUSH2 0x207 JUMPI DUP1 PUSH4 0xA1E0C2C9 EQ PUSH2 0x227 JUMPI DUP1 PUSH4 0xA59F3E0C EQ PUSH2 0x23D JUMPI DUP1 PUSH4 0xBE9A6555 EQ PUSH2 0x250 JUMPI PUSH1 0x0 DUP1 REVERT JUMPDEST DUP1 PUSH4 0x5A88376E GT PUSH2 0xDC JUMPI DUP1 PUSH4 0x5A88376E EQ PUSH2 0x189 JUMPI DUP1 PUSH4 0x61728F39 EQ PUSH2 0x19F JUMPI DUP1 PUSH4 0x649677E1 EQ PUSH2 0x1B5 JUMPI DUP1 PUSH4 0x715018A6 EQ PUSH2 0x1CA JUMPI DUP1 PUSH4 0x8DA5CB5B EQ PUSH2 0x1DF JUMPI PUSH1 0x0 DUP1 REVERT JUMPDEST DUP1 PUSH4 0xE8C66FE EQ PUSH2 0x10E JUMPI DUP1 PUSH4 0x1B06B7A7 EQ PUSH2 0x145 JUMPI DUP1 PUSH4 0x2C410887 EQ PUSH2 0x14F JUMPI DUP1 PUSH4 0x36013189 EQ PUSH2 0x173 JUMPI JUMPDEST PUSH1 0x0 DUP1 REVERT JUMPDEST CALLVALUE DUP1 ISZERO PUSH2 0x11A JUMPI PUSH1 0x0 DUP1 REVERT JUMPDEST POP PUSH1 0x8 SLOAD PUSH2 0x12F SWAP1 PUSH1 0x1 PUSH1 0xA0 SHL SWAP1 DIV PUSH1 0xFF AND DUP2 JUMP JUMPDEST PUSH1 0x40 MLOAD PUSH2 0x13C SWAP2 SWAP1 PUSH2 0x1131 JUMP JUMPDEST PUSH1 0x40 MLOAD DUP1 SWAP2 SUB SWAP1 RETURN JUMPDEST PUSH2 0x14D PUSH2 0x30A JUMP JUMPDEST STOP JUMPDEST CALLVALUE DUP1 ISZERO PUSH2 0x15B JUMPI PUSH1 0x0 DUP1 REVERT JUMPDEST POP PUSH2 0x165 PUSH1 0x2 SLOAD DUP2 JUMP JUMPDEST PUSH1 0x40 MLOAD SWAP1 DUP2 MSTORE PUSH1 0x20 ADD PUSH2 0x13C JUMP JUMPDEST CALLVALUE DUP1 ISZERO PUSH2 0x17F JUMPI PUSH1 0x0 DUP1 REVERT JUMPDEST POP PUSH2 0x165 PUSH1 0x5 SLOAD DUP2 JUMP JUMPDEST CALLVALUE DUP1 ISZERO PUSH2 0x195 JUMPI PUSH1 0x0 DUP1 REVERT JUMPDEST POP PUSH2 0x165 PUSH1 0x6 SLOAD DUP2 JUMP JUMPDEST CALLVALUE DUP1 ISZERO PUSH2 0x1AB JUMPI PUSH1 0x0 DUP1 REVERT JUMPDEST POP PUSH2 0x165 PUSH1 0x3 SLOAD DUP2 JUMP JUMPDEST CALLVALUE DUP1 ISZERO PUSH2 0x1C1 JUMPI PUSH1 0x0 DUP1 REVERT JUMPDEST POP PUSH2 0x165 PUSH2 0x512 JUMP JUMPDEST CALLVALUE DUP1 ISZERO PUSH2 0x1D6 JUMPI PUSH1 0x0 DUP1 REVERT JUMPDEST POP PUSH2 0x14D PUSH2 0x5D2 JUMP JUMPDEST CALLVALUE DUP1 ISZERO PUSH2 0x1EB JUMPI PUSH1 0x0 DUP1 REVERT JUMPDEST POP PUSH1 0x0 SLOAD PUSH1 0x40 MLOAD PUSH1 0x1 PUSH1 0x1 PUSH1 0xA0 SHL SUB SWAP1 SWAP2 AND DUP2 MSTORE PUSH1 0x20 ADD PUSH2 0x13C JUMP JUMPDEST CALLVALUE DUP1 ISZERO PUSH2 0x213 JUMPI PUSH1 0x0 DUP1 REVERT JUMPDEST POP PUSH2 0x14D PUSH2 0x222 CALLDATASIZE PUSH1 0x4 PUSH2 0x1159 JUMP JUMPDEST PUSH2 0x608 JUMP JUMPDEST CALLVALUE DUP1 ISZERO PUSH2 0x233 JUMPI PUSH1 0x0 DUP1 REVERT JUMPDEST POP PUSH2 0x165 PUSH1 0x7 SLOAD DUP2 JUMP JUMPDEST PUSH2 0x14D PUSH2 0x24B CALLDATASIZE PUSH1 0x4 PUSH2 0x117B JUMP JUMPDEST PUSH2 0x68E JUMP JUMPDEST CALLVALUE DUP1 ISZERO PUSH2 0x25C JUMPI PUSH1 0x0 DUP1 REVERT JUMPDEST POP PUSH2 0x14D PUSH2 0x824 JUMP JUMPDEST CALLVALUE DUP1 ISZERO PUSH2 0x271 JUMPI PUSH1 0x0 DUP1 REVERT JUMPDEST POP PUSH2 0x165 PUSH2 0x892 JUMP JUMPDEST CALLVALUE DUP1 ISZERO PUSH2 0x286 JUMPI PUSH1 0x0 DUP1 REVERT JUMPDEST POP PUSH2 0x165 PUSH1 0x4 SLOAD DUP2 JUMP JUMPDEST CALLVALUE DUP1 ISZERO PUSH2 0x29C JUMPI PUSH1 0x0 DUP1 REVERT JUMPDEST POP PUSH2 0x14D PUSH2 0x9D6 JUMP JUMPDEST CALLVALUE DUP1 ISZERO PUSH2 0x2B1 JUMPI PUSH1 0x0 DUP1 REVERT JUMPDEST POP PUSH2 0x14D PUSH2 0x2C0 CALLDATASIZE PUSH1 0x4 PUSH2 0x1194 JUMP JUMPDEST PUSH2 0xD98 JUMP JUMPDEST CALLVALUE DUP1 ISZERO PUSH2 0x2D1 JUMPI PUSH1 0x0 DUP1 REVERT JUMPDEST POP PUSH2 0x2E5 PUSH2 0x2E0 CALLDATASIZE PUSH1 0x4 PUSH2 0x117B JUMP JUMPDEST PUSH2 0xE33 JUMP JUMPDEST PUSH1 0x40 DUP1 MLOAD PUSH1 0x1 PUSH1 0x1 PUSH1 0xA0 SHL SUB SWAP1 SWAP5 AND DUP5 MSTORE PUSH1 0x20 DUP5 ADD SWAP3 SWAP1 SWAP3 MSTORE SWAP1 DUP3 ADD MSTORE PUSH1 0x60 ADD PUSH2 0x13C JUMP JUMPDEST PUSH1 0x0 SLOAD PUSH1 0x1 PUSH1 0x1 PUSH1 0xA0 SHL SUB AND CALLER EQ PUSH2 0x33D JUMPI PUSH1 0x40 MLOAD PUSH3 0x461BCD PUSH1 0xE5 SHL DUP2 MSTORE PUSH1 0x4 ADD PUSH2 0x334 SWAP1 PUSH2 0x11C4 JUMP JUMPDEST PUSH1 0x40 MLOAD DUP1 SWAP2 SUB SWAP1 REVERT JUMPDEST PUSH1 0x2 PUSH1 0x8 SLOAD PUSH1 0x1 PUSH1 0xA0 SHL SWAP1 DIV PUSH1 0xFF AND PUSH1 0x2 DUP2 GT ISZERO PUSH2 0x35D JUMPI PUSH2 0x35D PUSH2 0x111B JUMP JUMPDEST EQ PUSH2 0x37A JUMPI PUSH1 0x40 MLOAD PUSH3 0x461BCD PUSH1 0xE5 SHL DUP2 MSTORE PUSH1 0x4 ADD PUSH2 0x334 SWAP1 PUSH2 0x11F9 JUMP JUMPDEST PUSH1 0x0 PUSH1 0x6 SLOAD GT PUSH2 0x3BC JUMPI PUSH1 0x40 MLOAD PUSH3 0x461BCD PUSH1 0xE5 SHL DUP2 MSTORE PUSH1 0x20 PUSH1 0x4 DUP3 ADD MSTORE PUSH1 0xD PUSH1 0x24 DUP3 ADD MSTORE PUSH13 0x526174696F2069732030212121 PUSH1 0x98 SHL PUSH1 0x44 DUP3 ADD MSTORE PUSH1 0x64 ADD PUSH2 0x334 JUMP JUMPDEST PUSH1 0x0 JUMPDEST PUSH1 0x9 SLOAD DUP2 LT ISZERO PUSH2 0x4E8 JUMPI PUSH1 0x0 PUSH1 0x9 DUP3 DUP2 SLOAD DUP2 LT PUSH2 0x3DE JUMPI PUSH2 0x3DE PUSH2 0x1228 JUMP JUMPDEST SWAP1 PUSH1 0x0 MSTORE PUSH1 0x20 PUSH1 0x0 KECCAK256 SWAP1 PUSH1 0x3 MUL ADD PUSH1 0x2 ADD SLOAD SWAP1 POP PUSH1 0x6 SLOAD DUP2 GT PUSH2 0x4D5 JUMPI PUSH1 0x0 PUSH1 0x9 DUP4 DUP2 SLOAD DUP2 LT PUSH2 0x410 JUMPI PUSH2 0x410 PUSH2 0x1228 JUMP JUMPDEST SWAP1 PUSH1 0x0 MSTORE PUSH1 0x20 PUSH1 0x0 KECCAK256 SWAP1 PUSH1 0x3 MUL ADD PUSH1 0x2 ADD SLOAD PUSH1 0x64 PUSH1 0x9 DUP6 DUP2 SLOAD DUP2 LT PUSH2 0x437 JUMPI PUSH2 0x437 PUSH2 0x1228 JUMP JUMPDEST SWAP1 PUSH1 0x0 MSTORE PUSH1 0x20 PUSH1 0x0 KECCAK256 SWAP1 PUSH1 0x3 MUL ADD PUSH1 0x1 ADD SLOAD PUSH2 0x453 SWAP2 SWAP1 PUSH2 0x126A JUMP JUMPDEST PUSH2 0x45D SWAP2 SWAP1 PUSH2 0x127E JUMP JUMPDEST SWAP1 POP PUSH1 0x0 PUSH1 0x9 DUP5 DUP2 SLOAD DUP2 LT PUSH2 0x474 JUMPI PUSH2 0x474 PUSH2 0x1228 JUMP JUMPDEST PUSH1 0x0 SWAP2 DUP3 MSTORE PUSH1 0x20 DUP3 KECCAK256 PUSH1 0x3 SWAP1 SWAP2 MUL ADD SLOAD PUSH1 0x40 MLOAD PUSH1 0x1 PUSH1 0x1 PUSH1 0xA0 SHL SUB SWAP1 SWAP2 AND SWAP3 POP DUP3 SWAP2 DUP5 ISZERO PUSH2 0x8FC MUL SWAP2 DUP6 SWAP2 DUP2 DUP2 DUP2 DUP6 DUP9 DUP9 CALL SWAP4 POP POP POP POP ISZERO DUP1 ISZERO PUSH2 0x4BC JUMPI RETURNDATASIZE PUSH1 0x0 DUP1 RETURNDATACOPY RETURNDATASIZE PUSH1 0x0 REVERT JUMPDEST POP PUSH1 0x7 DUP1 SLOAD SWAP1 PUSH1 0x0 PUSH2 0x4CD DUP4 PUSH2 0x129D JUMP JUMPDEST SWAP2 SWAP1 POP SSTORE POP POP POP JUMPDEST POP DUP1 PUSH2 0x4E0 DUP2 PUSH2 0x129D JUMP JUMPDEST SWAP2 POP POP PUSH2 0x3BF JUMP JUMPDEST POP PUSH2 0x4F5 PUSH1 0x9 PUSH1 0x0 PUSH2 0x10CE JUMP JUMPDEST PUSH1 0x8 DUP1 SLOAD PUSH1 0x1 SWAP2 SWAP1 PUSH1 0xFF PUSH1 0xA0 SHL NOT AND PUSH1 0x1 PUSH1 0xA0 SHL DUP4 JUMPDEST MUL OR SWAP1 SSTORE POP JUMP JUMPDEST PUSH1 0x0 DUP1 PUSH1 0x8 PUSH1 0x0 SWAP1 SLOAD SWAP1 PUSH2 0x100 EXP SWAP1 DIV PUSH1 0x1 PUSH1 0x1 PUSH1 0xA0 SHL SUB AND PUSH1 0x1 PUSH1 0x1 PUSH1 0xA0 SHL SUB AND PUSH4 0xFEAF968C PUSH1 0x40 MLOAD DUP2 PUSH4 0xFFFFFFFF AND PUSH1 0xE0 SHL DUP2 MSTORE PUSH1 0x4 ADD PUSH1 0xA0 PUSH1 0x40 MLOAD DUP1 DUP4 SUB DUP2 DUP7 GAS STATICCALL ISZERO DUP1 ISZERO PUSH2 0x568 JUMPI RETURNDATASIZE PUSH1 0x0 DUP1 RETURNDATACOPY RETURNDATASIZE PUSH1 0x0 REVERT JUMPDEST POP POP POP POP PUSH1 0x40 MLOAD RETURNDATASIZE PUSH1 0x1F NOT PUSH1 0x1F DUP3 ADD AND DUP3 ADD DUP1 PUSH1 0x40 MSTORE POP DUP2 ADD SWAP1 PUSH2 0x58C SWAP2 SWAP1 PUSH2 0x12D5 JUMP JUMPDEST POP POP POP SWAP2 POP POP PUSH1 0x0 DUP2 PUSH5 0x2540BE400 PUSH2 0x5A5 SWAP2 SWAP1 PUSH2 0x127E JUMP JUMPDEST SWAP1 POP PUSH1 0x0 DUP2 PUSH1 0x2 SLOAD PUSH8 0xDE0B6B3A7640000 PUSH2 0x5C0 SWAP2 SWAP1 PUSH2 0x127E JUMP JUMPDEST PUSH2 0x5CA SWAP2 SWAP1 PUSH2 0x126A JUMP JUMPDEST SWAP5 SWAP4 POP POP POP POP JUMP JUMPDEST PUSH1 0x0 SLOAD PUSH1 0x1 PUSH1 0x1 PUSH1 0xA0 SHL SUB AND CALLER EQ PUSH2 0x5FC JUMPI PUSH1 0x40 MLOAD PUSH3 0x461BCD PUSH1 0xE5 SHL DUP2 MSTORE PUSH1 0x4 ADD PUSH2 0x334 SWAP1 PUSH2 0x11C4 JUMP JUMPDEST PUSH2 0x606 PUSH1 0x0 PUSH2 0xE70 JUMP JUMPDEST JUMP JUMPDEST CALLER PUSH1 0x1 PUSH1 0x1 PUSH1 0xA0 SHL SUB PUSH32 0x0 AND EQ PUSH2 0x680 JUMPI PUSH1 0x40 MLOAD PUSH3 0x461BCD PUSH1 0xE5 SHL DUP2 MSTORE PUSH1 0x20 PUSH1 0x4 DUP3 ADD MSTORE PUSH1 0x1F PUSH1 0x24 DUP3 ADD MSTORE PUSH32 0x4F6E6C7920565246436F6F7264696E61746F722063616E2066756C66696C6C00 PUSH1 0x44 DUP3 ADD MSTORE PUSH1 0x64 ADD PUSH2 0x334 JUMP JUMPDEST PUSH2 0x68A DUP3 DUP3 PUSH2 0xEC0 JUMP JUMPDEST POP POP JUMP JUMPDEST PUSH1 0x0 PUSH1 0x8 SLOAD PUSH1 0x1 PUSH1 0xA0 SHL SWAP1 DIV PUSH1 0xFF AND PUSH1 0x2 DUP2 GT ISZERO PUSH2 0x6AE JUMPI PUSH2 0x6AE PUSH2 0x111B JUMP JUMPDEST EQ PUSH2 0x6B8 JUMPI PUSH1 0x0 DUP1 REVERT JUMPDEST PUSH2 0x6C0 PUSH2 0x512 JUMP JUMPDEST CALLVALUE LT ISZERO PUSH2 0x70F JUMPI PUSH1 0x40 MLOAD PUSH3 0x461BCD PUSH1 0xE5 SHL DUP2 MSTORE PUSH1 0x20 PUSH1 0x4 DUP3 ADD MSTORE PUSH1 0x1D PUSH1 0x24 DUP3 ADD MSTORE PUSH32 0x6E6F7420656E6F756768206D6F6E657920666F7220626C617374212121000000 PUSH1 0x44 DUP3 ADD MSTORE PUSH1 0x64 ADD PUSH2 0x334 JUMP JUMPDEST PUSH1 0x64 DUP2 GT DUP1 ISZERO PUSH2 0x721 JUMPI POP PUSH2 0x3E8 DUP2 GT ISZERO JUMPDEST PUSH2 0x762 JUMPI PUSH1 0x40 MLOAD PUSH3 0x461BCD PUSH1 0xE5 SHL DUP2 MSTORE PUSH1 0x20 PUSH1 0x4 DUP3 ADD MSTORE PUSH1 0x12 PUSH1 0x24 DUP3 ADD MSTORE PUSH18 0x696E636F727265637420726174696F212121 PUSH1 0x70 SHL PUSH1 0x44 DUP3 ADD MSTORE PUSH1 0x64 ADD PUSH2 0x334 JUMP JUMPDEST PUSH1 0x40 DUP1 MLOAD PUSH1 0x60 DUP2 ADD DUP3 MSTORE CALLER DUP2 MSTORE CALLVALUE PUSH1 0x20 DUP3 ADD SWAP1 DUP2 MSTORE SWAP2 DUP2 ADD SWAP3 DUP4 MSTORE PUSH1 0x9 DUP1 SLOAD PUSH1 0x1 DUP2 ADD DUP3 SSTORE PUSH1 0x0 SWAP2 SWAP1 SWAP2 MSTORE SWAP1 MLOAD PUSH32 0x6E1540171B6C0C960B71A7020D9F60077F6AF931A8BBF590DA0223DACF75C7AF PUSH1 0x3 SWAP1 SWAP3 MUL SWAP2 DUP3 ADD DUP1 SLOAD PUSH1 0x1 PUSH1 0x1 PUSH1 0xA0 SHL SUB NOT AND PUSH1 0x1 PUSH1 0x1 PUSH1 0xA0 SHL SUB SWAP1 SWAP3 AND SWAP2 SWAP1 SWAP2 OR SWAP1 SSTORE SWAP1 MLOAD PUSH32 0x6E1540171B6C0C960B71A7020D9F60077F6AF931A8BBF590DA0223DACF75C7B0 DUP3 ADD SSTORE SWAP1 MLOAD PUSH32 0x6E1540171B6C0C960B71A7020D9F60077F6AF931A8BBF590DA0223DACF75C7B1 SWAP1 SWAP2 ADD SSTORE JUMP JUMPDEST PUSH1 0x0 SLOAD PUSH1 0x1 PUSH1 0x1 PUSH1 0xA0 SHL SUB AND CALLER EQ PUSH2 0x84E JUMPI PUSH1 0x40 MLOAD PUSH3 0x461BCD PUSH1 0xE5 SHL DUP2 MSTORE PUSH1 0x4 ADD PUSH2 0x334 SWAP1 PUSH2 0x11C4 JUMP JUMPDEST PUSH1 0x1 PUSH1 0x8 SLOAD PUSH1 0x1 PUSH1 0xA0 SHL SWAP1 DIV PUSH1 0xFF AND PUSH1 0x2 DUP2 GT ISZERO PUSH2 0x86E JUMPI PUSH2 0x86E PUSH2 0x111B JUMP JUMPDEST EQ PUSH2 0x878 JUMPI PUSH1 0x0 DUP1 REVERT JUMPDEST PUSH1 0x8 DUP1 SLOAD PUSH1 0x0 SWAP2 SWAP1 PUSH1 0xFF PUSH1 0xA0 SHL NOT AND PUSH1 0x1 PUSH1 0xA0 SHL DUP4 PUSH2 0x50B JUMP JUMPDEST PUSH1 0x0 DUP1 SLOAD PUSH1 0x1 PUSH1 0x1 PUSH1 0xA0 SHL SUB AND CALLER EQ PUSH2 0x8BD JUMPI PUSH1 0x40 MLOAD PUSH3 0x461BCD PUSH1 0xE5 SHL DUP2 MSTORE PUSH1 0x4 ADD PUSH2 0x334 SWAP1 PUSH2 0x11C4 JUMP JUMPDEST PUSH1 0x4 DUP1 SLOAD PUSH1 0x40 MLOAD PUSH4 0x70A08231 PUSH1 0xE0 SHL DUP2 MSTORE ADDRESS SWAP3 DUP2 ADD SWAP3 SWAP1 SWAP3 MSTORE SWAP1 PUSH1 0x1 PUSH1 0x1 PUSH1 0xA0 SHL SUB PUSH32 0x0 AND SWAP1 PUSH4 0x70A08231 SWAP1 PUSH1 0x24 ADD PUSH1 0x20 PUSH1 0x40 MLOAD DUP1 DUP4 SUB DUP2 DUP7 GAS STATICCALL ISZERO DUP1 ISZERO PUSH2 0x928 JUMPI RETURNDATASIZE PUSH1 0x0 DUP1 RETURNDATACOPY RETURNDATASIZE PUSH1 0x0 REVERT JUMPDEST POP POP POP POP PUSH1 0x40 MLOAD RETURNDATASIZE PUSH1 0x1F NOT PUSH1 0x1F DUP3 ADD AND DUP3 ADD DUP1 PUSH1 0x40 MSTORE POP DUP2 ADD SWAP1 PUSH2 0x94C SWAP2 SWAP1 PUSH2 0x1325 JUMP JUMPDEST LT ISZERO PUSH2 0x9AE JUMPI PUSH1 0x40 MLOAD PUSH3 0x461BCD PUSH1 0xE5 SHL DUP2 MSTORE PUSH1 0x20 PUSH1 0x4 DUP3 ADD MSTORE PUSH1 0x2B PUSH1 0x24 DUP3 ADD MSTORE PUSH32 0x4E6F7420656E6F756768204C494E4B202D2066696C6C20636F6E747261637420 PUSH1 0x44 DUP3 ADD MSTORE PUSH11 0x1DDA5D1A0819985D58D95D PUSH1 0xAA SHL PUSH1 0x64 DUP3 ADD MSTORE PUSH1 0x84 ADD PUSH2 0x334 JUMP JUMPDEST PUSH1 0x8 DUP1 SLOAD PUSH1 0xFF PUSH1 0xA0 SHL NOT AND PUSH1 0x1 PUSH1 0xA1 SHL OR SWAP1 SSTORE PUSH1 0x3 SLOAD PUSH1 0x4 SLOAD PUSH2 0x9D1 SWAP2 SWAP1 PUSH2 0xF53 JUMP JUMPDEST SWAP1 POP SWAP1 JUMP JUMPDEST PUSH1 0x0 SLOAD PUSH1 0x1 PUSH1 0x1 PUSH1 0xA0 SHL SUB AND CALLER EQ PUSH2 0xA00 JUMPI PUSH1 0x40 MLOAD PUSH3 0x461BCD PUSH1 0xE5 SHL DUP2 MSTORE PUSH1 0x4 ADD PUSH2 0x334 SWAP1 PUSH2 0x11C4 JUMP JUMPDEST PUSH1 0x2 PUSH1 0x8 SLOAD PUSH1 0x1 PUSH1 0xA0 SHL SWAP1 DIV PUSH1 0xFF AND PUSH1 0x2 DUP2 GT ISZERO PUSH2 0xA20 JUMPI PUSH2 0xA20 PUSH2 0x111B JUMP JUMPDEST EQ PUSH2 0xA3D JUMPI PUSH1 0x40 MLOAD PUSH3 0x461BCD PUSH1 0xE5 SHL DUP2 MSTORE PUSH1 0x4 ADD PUSH2 0x334 SWAP1 PUSH2 0x11F9 JUMP JUMPDEST PUSH1 0x0 PUSH2 0x3E8 PUSH1 0x5 SLOAD PUSH2 0xA4F SWAP2 SWAP1 PUSH2 0x133E JUMP JUMPDEST SWAP1 POP PUSH1 0x0 DUP1 PUSH1 0x13 DUP4 GT ISZERO DUP1 ISZERO PUSH2 0xA63 JUMPI POP PUSH1 0x1 JUMPDEST ISZERO PUSH2 0xA72 JUMPI PUSH1 0x0 PUSH1 0x6 SSTORE POP POP POP JUMP JUMPDEST PUSH2 0x239 DUP4 GT ISZERO DUP1 ISZERO PUSH2 0xA85 JUMPI POP PUSH1 0x14 DUP4 LT ISZERO JUMPDEST ISZERO PUSH2 0xACE JUMPI POP PUSH2 0x23A SWAP1 POP PUSH1 0x14 PUSH2 0xA9C DUP2 DUP4 PUSH2 0x1352 JUMP JUMPDEST PUSH2 0xAA6 DUP3 DUP6 PUSH2 0x1352 JUMP JUMPDEST PUSH2 0xAB1 SWAP1 PUSH1 0x64 PUSH2 0x127E JUMP JUMPDEST PUSH2 0xABB SWAP2 SWAP1 PUSH2 0x126A JUMP JUMPDEST PUSH2 0xAC6 SWAP1 PUSH1 0x64 PUSH2 0x1369 JUMP JUMPDEST PUSH1 0x6 SSTORE POP POP POP JUMP JUMPDEST PUSH2 0x30B DUP4 GT ISZERO DUP1 ISZERO PUSH2 0xAE2 JUMPI POP PUSH2 0x23A DUP4 LT ISZERO JUMPDEST ISZERO PUSH2 0xB24 JUMPI POP PUSH2 0x30C SWAP1 POP PUSH2 0x23A PUSH2 0xAFA DUP2 DUP4 PUSH2 0x1352 JUMP JUMPDEST PUSH2 0xB04 DUP3 DUP6 PUSH2 0x1352 JUMP JUMPDEST PUSH2 0xB0F SWAP1 PUSH1 0x64 PUSH2 0x127E JUMP JUMPDEST PUSH2 0xB19 SWAP2 SWAP1 PUSH2 0x126A JUMP JUMPDEST PUSH2 0xAC6 SWAP1 PUSH1 0xC8 PUSH2 0x1369 JUMP JUMPDEST PUSH2 0x30C DUP4 LT ISZERO DUP1 ISZERO PUSH2 0xB38 JUMPI POP PUSH2 0x36F DUP4 GT ISZERO JUMPDEST ISZERO PUSH2 0xB7B JUMPI POP PUSH2 0x370 SWAP1 POP PUSH2 0x30C PUSH2 0xB50 DUP2 DUP4 PUSH2 0x1352 JUMP JUMPDEST PUSH2 0xB5A DUP3 DUP6 PUSH2 0x1352 JUMP JUMPDEST PUSH2 0xB65 SWAP1 PUSH1 0x64 PUSH2 0x127E JUMP JUMPDEST PUSH2 0xB6F SWAP2 SWAP1 PUSH2 0x126A JUMP JUMPDEST PUSH2 0xAC6 SWAP1 PUSH2 0x12C PUSH2 0x1369 JUMP JUMPDEST PUSH2 0x370 DUP4 LT ISZERO DUP1 ISZERO PUSH2 0xB8F JUMPI POP PUSH2 0x3A1 DUP4 GT ISZERO JUMPDEST ISZERO PUSH2 0xBD2 JUMPI POP PUSH2 0x3A2 SWAP1 POP PUSH2 0x370 PUSH2 0xBA7 DUP2 DUP4 PUSH2 0x1352 JUMP JUMPDEST PUSH2 0xBB1 DUP3 DUP6 PUSH2 0x1352 JUMP JUMPDEST PUSH2 0xBBC SWAP1 PUSH1 0x64 PUSH2 0x127E JUMP JUMPDEST PUSH2 0xBC6 SWAP2 SWAP1 PUSH2 0x126A JUMP JUMPDEST PUSH2 0xAC6 SWAP1 PUSH2 0x190 PUSH2 0x1369 JUMP JUMPDEST PUSH2 0x3A2 DUP4 LT ISZERO DUP1 ISZERO PUSH2 0xBE6 JUMPI POP PUSH2 0x3BF DUP4 GT ISZERO JUMPDEST ISZERO PUSH2 0xC29 JUMPI POP PUSH2 0x3C0 SWAP1 POP PUSH2 0x3A2 PUSH2 0xBFE DUP2 DUP4 PUSH2 0x1352 JUMP JUMPDEST PUSH2 0xC08 DUP3 DUP6 PUSH2 0x1352 JUMP JUMPDEST PUSH2 0xC13 SWAP1 PUSH1 0x64 PUSH2 0x127E JUMP JUMPDEST PUSH2 0xC1D SWAP2 SWAP1 PUSH2 0x126A JUMP JUMPDEST PUSH2 0xAC6 SWAP1 PUSH2 0x1F4 PUSH2 0x1369 JUMP JUMPDEST PUSH2 0x3C0 DUP4 LT ISZERO DUP1 ISZERO PUSH2 0xC3D JUMPI POP PUSH2 0x3D3 DUP4 GT ISZERO JUMPDEST ISZERO PUSH2 0xC7F JUMPI POP PUSH2 0x23A SWAP1 POP PUSH1 0x14 PUSH2 0xC54 DUP2 DUP4 PUSH2 0x1352 JUMP JUMPDEST PUSH2 0xC5E DUP3 DUP6 PUSH2 0x1352 JUMP JUMPDEST PUSH2 0xC69 SWAP1 PUSH1 0x64 PUSH2 0x127E JUMP JUMPDEST PUSH2 0xC73 SWAP2 SWAP1 PUSH2 0x126A JUMP JUMPDEST PUSH2 0xAC6 SWAP1 PUSH2 0x258 PUSH2 0x1369 JUMP JUMPDEST PUSH2 0x3D4 DUP4 LT ISZERO DUP1 ISZERO PUSH2 0xC93 JUMPI POP PUSH2 0x3DD DUP4 GT ISZERO JUMPDEST ISZERO PUSH2 0xCD6 JUMPI POP PUSH2 0x3DE SWAP1 POP PUSH2 0x3D4 PUSH2 0xCAB DUP2 DUP4 PUSH2 0x1352 JUMP JUMPDEST PUSH2 0xCB5 DUP3 DUP6 PUSH2 0x1352 JUMP JUMPDEST PUSH2 0xCC0 SWAP1 PUSH1 0x64 PUSH2 0x127E JUMP JUMPDEST PUSH2 0xCCA SWAP2 SWAP1 PUSH2 0x126A JUMP JUMPDEST PUSH2 0xAC6 SWAP1 PUSH2 0x2BC PUSH2 0x1369 JUMP JUMPDEST PUSH2 0x3DE DUP4 LT ISZERO DUP1 ISZERO PUSH2 0xCEA JUMPI POP PUSH2 0x3E2 DUP4 GT ISZERO JUMPDEST ISZERO PUSH2 0xD2D JUMPI POP PUSH2 0x3E3 SWAP1 POP PUSH2 0x3DE PUSH2 0xD02 DUP2 DUP4 PUSH2 0x1352 JUMP JUMPDEST PUSH2 0xD0C DUP3 DUP6 PUSH2 0x1352 JUMP JUMPDEST PUSH2 0xD17 SWAP1 PUSH1 0x64 PUSH2 0x127E JUMP JUMPDEST PUSH2 0xD21 SWAP2 SWAP1 PUSH2 0x126A JUMP JUMPDEST PUSH2 0xAC6 SWAP1 PUSH2 0x320 PUSH2 0x1369 JUMP JUMPDEST PUSH2 0x3E3 DUP4 LT ISZERO DUP1 ISZERO PUSH2 0xD41 JUMPI POP PUSH2 0x3E6 DUP4 GT ISZERO JUMPDEST ISZERO PUSH2 0xD84 JUMPI POP PUSH2 0x3E7 SWAP1 POP PUSH2 0x3E3 PUSH2 0xD59 DUP2 DUP4 PUSH2 0x1352 JUMP JUMPDEST PUSH2 0xD63 DUP3 DUP6 PUSH2 0x1352 JUMP JUMPDEST PUSH2 0xD6E SWAP1 PUSH1 0x64 PUSH2 0x127E JUMP JUMPDEST PUSH2 0xD78 SWAP2 SWAP1 PUSH2 0x126A JUMP JUMPDEST PUSH2 0xAC6 SWAP1 PUSH2 0x384 PUSH2 0x1369 JUMP JUMPDEST DUP3 PUSH2 0x3E7 SUB PUSH2 0xD93 JUMPI PUSH1 0xA PUSH1 0x6 SSTORE JUMPDEST POP POP POP JUMP JUMPDEST PUSH1 0x0 SLOAD PUSH1 0x1 PUSH1 0x1 PUSH1 0xA0 SHL SUB AND CALLER EQ PUSH2 0xDC2 JUMPI PUSH1 0x40 MLOAD PUSH3 0x461BCD PUSH1 0xE5 SHL DUP2 MSTORE PUSH1 0x4 ADD PUSH2 0x334 SWAP1 PUSH2 0x11C4 JUMP JUMPDEST PUSH1 0x1 PUSH1 0x1 PUSH1 0xA0 SHL SUB DUP2 AND PUSH2 0xE27 JUMPI PUSH1 0x40 MLOAD PUSH3 0x461BCD PUSH1 0xE5 SHL DUP2 MSTORE PUSH1 0x20 PUSH1 0x4 DUP3 ADD MSTORE PUSH1 0x26 PUSH1 0x24 DUP3 ADD MSTORE PUSH32 0x4F776E61626C653A206E6577206F776E657220697320746865207A65726F2061 PUSH1 0x44 DUP3 ADD MSTORE PUSH6 0x646472657373 PUSH1 0xD0 SHL PUSH1 0x64 DUP3 ADD MSTORE PUSH1 0x84 ADD PUSH2 0x334 JUMP JUMPDEST PUSH2 0xE30 DUP2 PUSH2 0xE70 JUMP JUMPDEST POP JUMP JUMPDEST PUSH1 0x9 DUP2 DUP2 SLOAD DUP2 LT PUSH2 0xE43 JUMPI PUSH1 0x0 DUP1 REVERT JUMPDEST PUSH1 0x0 SWAP2 DUP3 MSTORE PUSH1 0x20 SWAP1 SWAP2 KECCAK256 PUSH1 0x3 SWAP1 SWAP2 MUL ADD DUP1 SLOAD PUSH1 0x1 DUP3 ADD SLOAD PUSH1 0x2 SWAP1 SWAP3 ADD SLOAD PUSH1 0x1 PUSH1 0x1 PUSH1 0xA0 SHL SUB SWAP1 SWAP2 AND SWAP3 POP DUP4 JUMP JUMPDEST PUSH1 0x0 DUP1 SLOAD PUSH1 0x1 PUSH1 0x1 PUSH1 0xA0 SHL SUB DUP4 DUP2 AND PUSH1 0x1 PUSH1 0x1 PUSH1 0xA0 SHL SUB NOT DUP4 AND DUP2 OR DUP5 SSTORE PUSH1 0x40 MLOAD SWAP2 SWAP1 SWAP3 AND SWAP3 DUP4 SWAP2 PUSH32 0x8BE0079C531659141344CD1FD0A4F28419497F9722A3DAAFE3B4186F6B6457E0 SWAP2 SWAP1 LOG3 POP POP JUMP JUMPDEST PUSH1 0x2 PUSH1 0x8 SLOAD PUSH1 0x1 PUSH1 0xA0 SHL SWAP1 DIV PUSH1 0xFF AND PUSH1 0x2 DUP2 GT ISZERO PUSH2 0xEE0 JUMPI PUSH2 0xEE0 PUSH2 0x111B JUMP JUMPDEST EQ PUSH2 0xEFD JUMPI PUSH1 0x40 MLOAD PUSH3 0x461BCD PUSH1 0xE5 SHL DUP2 MSTORE PUSH1 0x4 ADD PUSH2 0x334 SWAP1 PUSH2 0x11F9 JUMP JUMPDEST PUSH1 0x0 DUP2 GT PUSH2 0xF4D JUMPI PUSH1 0x40 MLOAD PUSH3 0x461BCD PUSH1 0xE5 SHL DUP2 MSTORE PUSH1 0x20 PUSH1 0x4 DUP3 ADD DUP2 SWAP1 MSTORE PUSH1 0x24 DUP3 ADD MSTORE PUSH32 0x7468657265206973206E6F2072616E646F6D206E756D62657220796574212121 PUSH1 0x44 DUP3 ADD MSTORE PUSH1 0x64 ADD PUSH2 0x334 JUMP JUMPDEST PUSH1 0x5 SSTORE POP JUMP JUMPDEST PUSH1 0x0 PUSH32 0x0 PUSH1 0x1 PUSH1 0x1 PUSH1 0xA0 SHL SUB AND PUSH4 0x4000AEA0 PUSH32 0x0 DUP5 DUP7 PUSH1 0x0 PUSH1 0x40 MLOAD PUSH1 0x20 ADD PUSH2 0xFC3 SWAP3 SWAP2 SWAP1 SWAP2 DUP3 MSTORE PUSH1 0x20 DUP3 ADD MSTORE PUSH1 0x40 ADD SWAP1 JUMP JUMPDEST PUSH1 0x40 MLOAD PUSH1 0x20 DUP2 DUP4 SUB SUB DUP2 MSTORE SWAP1 PUSH1 0x40 MSTORE PUSH1 0x40 MLOAD DUP5 PUSH4 0xFFFFFFFF AND PUSH1 0xE0 SHL DUP2 MSTORE PUSH1 0x4 ADD PUSH2 0xFF0 SWAP4 SWAP3 SWAP2 SWAP1 PUSH2 0x1381 JUMP JUMPDEST PUSH1 0x20 PUSH1 0x40 MLOAD DUP1 DUP4 SUB DUP2 PUSH1 0x0 DUP8 GAS CALL ISZERO DUP1 ISZERO PUSH2 0x100F JUMPI RETURNDATASIZE PUSH1 0x0 DUP1 RETURNDATACOPY RETURNDATASIZE PUSH1 0x0 REVERT JUMPDEST POP POP POP POP PUSH1 0x40 MLOAD RETURNDATASIZE PUSH1 0x1F NOT PUSH1 0x1F DUP3 ADD AND DUP3 ADD DUP1 PUSH1 0x40 MSTORE POP DUP2 ADD SWAP1 PUSH2 0x1033 SWAP2 SWAP1 PUSH2 0x13ED JUMP JUMPDEST POP PUSH1 0x0 DUP4 DUP2 MSTORE PUSH1 0x1 PUSH1 0x20 DUP2 DUP2 MSTORE PUSH1 0x40 DUP1 DUP5 KECCAK256 SLOAD DUP2 MLOAD DUP1 DUP5 ADD DUP10 SWAP1 MSTORE DUP1 DUP4 ADD DUP7 SWAP1 MSTORE ADDRESS PUSH1 0x60 DUP3 ADD MSTORE PUSH1 0x80 DUP1 DUP3 ADD DUP4 SWAP1 MSTORE DUP4 MLOAD DUP1 DUP4 SUB SWAP1 SWAP2 ADD DUP2 MSTORE PUSH1 0xA0 SWAP1 SWAP2 ADD SWAP1 SWAP3 MSTORE DUP2 MLOAD SWAP2 DUP4 ADD SWAP2 SWAP1 SWAP2 KECCAK256 SWAP4 DUP8 SWAP1 MSTORE SWAP1 DUP3 SWAP1 MSTORE PUSH2 0x108E SWAP2 PUSH2 0x1369 JUMP JUMPDEST PUSH1 0x0 DUP6 DUP2 MSTORE PUSH1 0x1 PUSH1 0x20 MSTORE PUSH1 0x40 SWAP1 KECCAK256 SSTORE PUSH2 0x5CA DUP5 DUP3 PUSH1 0x40 DUP1 MLOAD PUSH1 0x20 DUP1 DUP3 ADD SWAP5 SWAP1 SWAP5 MSTORE DUP1 DUP3 ADD SWAP3 SWAP1 SWAP3 MSTORE DUP1 MLOAD DUP1 DUP4 SUB DUP3 ADD DUP2 MSTORE PUSH1 0x60 SWAP1 SWAP3 ADD SWAP1 MSTORE DUP1 MLOAD SWAP2 ADD KECCAK256 SWAP1 JUMP JUMPDEST POP DUP1 SLOAD PUSH1 0x0 DUP3 SSTORE PUSH1 0x3 MUL SWAP1 PUSH1 0x0 MSTORE PUSH1 0x20 PUSH1 0x0 KECCAK256 SWAP1 DUP2 ADD SWAP1 PUSH2 0xE30 SWAP2 SWAP1 JUMPDEST DUP1 DUP3 GT ISZERO PUSH2 0x1117 JUMPI DUP1 SLOAD PUSH1 0x1 PUSH1 0x1 PUSH1 0xA0 SHL SUB NOT AND DUP2 SSTORE PUSH1 0x0 PUSH1 0x1 DUP3 ADD DUP2 SWAP1 SSTORE PUSH1 0x2 DUP3 ADD SSTORE PUSH1 0x3 ADD PUSH2 0x10EB JUMP JUMPDEST POP SWAP1 JUMP JUMPDEST PUSH4 0x4E487B71 PUSH1 0xE0 SHL PUSH1 0x0 MSTORE PUSH1 0x21 PUSH1 0x4 MSTORE PUSH1 0x24 PUSH1 0x0 REVERT JUMPDEST PUSH1 0x20 DUP2 ADD PUSH1 0x3 DUP4 LT PUSH2 0x1153 JUMPI PUSH4 0x4E487B71 PUSH1 0xE0 SHL PUSH1 0x0 MSTORE PUSH1 0x21 PUSH1 0x4 MSTORE PUSH1 0x24 PUSH1 0x0 REVERT JUMPDEST SWAP2 SWAP1 MSTORE SWAP1 JUMP JUMPDEST PUSH1 0x0 DUP1 PUSH1 0x40 DUP4 DUP6 SUB SLT ISZERO PUSH2 0x116C JUMPI PUSH1 0x0 DUP1 REVERT JUMPDEST POP POP DUP1 CALLDATALOAD SWAP3 PUSH1 0x20 SWAP1 SWAP2 ADD CALLDATALOAD SWAP2 POP JUMP JUMPDEST PUSH1 0x0 PUSH1 0x20 DUP3 DUP5 SUB SLT ISZERO PUSH2 0x118D JUMPI PUSH1 0x0 DUP1 REVERT JUMPDEST POP CALLDATALOAD SWAP2 SWAP1 POP JUMP JUMPDEST PUSH1 0x0 PUSH1 0x20 DUP3 DUP5 SUB SLT ISZERO PUSH2 0x11A6 JUMPI PUSH1 0x0 DUP1 REVERT JUMPDEST DUP2 CALLDATALOAD PUSH1 0x1 PUSH1 0x1 PUSH1 0xA0 SHL SUB DUP2 AND DUP2 EQ PUSH2 0x11BD JUMPI PUSH1 0x0 DUP1 REVERT JUMPDEST SWAP4 SWAP3 POP POP POP JUMP JUMPDEST PUSH1 0x20 DUP1 DUP3 MSTORE DUP2 DUP2 ADD MSTORE PUSH32 0x4F776E61626C653A2063616C6C6572206973206E6F7420746865206F776E6572 PUSH1 0x40 DUP3 ADD MSTORE PUSH1 0x60 ADD SWAP1 JUMP JUMPDEST PUSH1 0x20 DUP1 DUP3 MSTORE PUSH1 0x15 SWAP1 DUP3 ADD MSTORE PUSH21 0x626C617374206973206E6F7420656E646564212121 PUSH1 0x58 SHL PUSH1 0x40 DUP3 ADD MSTORE PUSH1 0x60 ADD SWAP1 JUMP JUMPDEST PUSH4 0x4E487B71 PUSH1 0xE0 SHL PUSH1 0x0 MSTORE PUSH1 0x32 PUSH1 0x4 MSTORE PUSH1 0x24 PUSH1 0x0 REVERT JUMPDEST PUSH4 0x4E487B71 PUSH1 0xE0 SHL PUSH1 0x0 MSTORE PUSH1 0x12 PUSH1 0x4 MSTORE PUSH1 0x24 PUSH1 0x0 REVERT JUMPDEST PUSH4 0x4E487B71 PUSH1 0xE0 SHL PUSH1 0x0 MSTORE PUSH1 0x11 PUSH1 0x4 MSTORE PUSH1 0x24 PUSH1 0x0 REVERT JUMPDEST PUSH1 0x0 DUP3 PUSH2 0x1279 JUMPI PUSH2 0x1279 PUSH2 0x123E JUMP JUMPDEST POP DIV SWAP1 JUMP JUMPDEST PUSH1 0x0 DUP2 PUSH1 0x0 NOT DIV DUP4 GT DUP3 ISZERO ISZERO AND ISZERO PUSH2 0x1298 JUMPI PUSH2 0x1298 PUSH2 0x1254 JUMP JUMPDEST POP MUL SWAP1 JUMP JUMPDEST PUSH1 0x0 PUSH1 0x1 DUP3 ADD PUSH2 0x12AF JUMPI PUSH2 0x12AF PUSH2 0x1254 JUMP JUMPDEST POP PUSH1 0x1 ADD SWAP1 JUMP JUMPDEST DUP1 MLOAD PUSH10 0xFFFFFFFFFFFFFFFFFFFF DUP2 AND DUP2 EQ PUSH2 0x12D0 JUMPI PUSH1 0x0 DUP1 REVERT JUMPDEST SWAP2 SWAP1 POP JUMP JUMPDEST PUSH1 0x0 DUP1 PUSH1 0x0 DUP1 PUSH1 0x0 PUSH1 0xA0 DUP7 DUP9 SUB SLT ISZERO PUSH2 0x12ED JUMPI PUSH1 0x0 DUP1 REVERT JUMPDEST PUSH2 0x12F6 DUP7 PUSH2 0x12B6 JUMP JUMPDEST SWAP5 POP PUSH1 0x20 DUP7 ADD MLOAD SWAP4 POP PUSH1 0x40 DUP7 ADD MLOAD SWAP3 POP PUSH1 0x60 DUP7 ADD MLOAD SWAP2 POP PUSH2 0x1319 PUSH1 0x80 DUP8 ADD PUSH2 0x12B6 JUMP JUMPDEST SWAP1 POP SWAP3 SWAP6 POP SWAP3 SWAP6 SWAP1 SWAP4 POP JUMP JUMPDEST PUSH1 0x0 PUSH1 0x20 DUP3 DUP5 SUB SLT ISZERO PUSH2 0x1337 JUMPI PUSH1 0x0 DUP1 REVERT JUMPDEST POP MLOAD SWAP2 SWAP1 POP JUMP JUMPDEST PUSH1 0x0 DUP3 PUSH2 0x134D JUMPI PUSH2 0x134D PUSH2 0x123E JUMP JUMPDEST POP MOD SWAP1 JUMP JUMPDEST PUSH1 0x0 DUP3 DUP3 LT ISZERO PUSH2 0x1364 JUMPI PUSH2 0x1364 PUSH2 0x1254 JUMP JUMPDEST POP SUB SWAP1 JUMP JUMPDEST PUSH1 0x0 DUP3 NOT DUP3 GT ISZERO PUSH2 0x137C JUMPI PUSH2 0x137C PUSH2 0x1254 JUMP JUMPDEST POP ADD SWAP1 JUMP JUMPDEST PUSH1 0x1 DUP1 PUSH1 0xA0 SHL SUB DUP5 AND DUP2 MSTORE PUSH1 0x0 PUSH1 0x20 DUP5 DUP2 DUP5 ADD MSTORE PUSH1 0x60 PUSH1 0x40 DUP5 ADD MSTORE DUP4 MLOAD DUP1 PUSH1 0x60 DUP6 ADD MSTORE PUSH1 0x0 JUMPDEST DUP2 DUP2 LT ISZERO PUSH2 0x13C3 JUMPI DUP6 DUP2 ADD DUP4 ADD MLOAD DUP6 DUP3 ADD PUSH1 0x80 ADD MSTORE DUP3 ADD PUSH2 0x13A7 JUMP JUMPDEST DUP2 DUP2 GT ISZERO PUSH2 0x13D5 JUMPI PUSH1 0x0 PUSH1 0x80 DUP4 DUP8 ADD ADD MSTORE JUMPDEST POP PUSH1 0x1F ADD PUSH1 0x1F NOT AND SWAP3 SWAP1 SWAP3 ADD PUSH1 0x80 ADD SWAP6 SWAP5 POP POP POP POP POP JUMP JUMPDEST PUSH1 0x0 PUSH1 0x20 DUP3 DUP5 SUB SLT ISZERO PUSH2 0x13FF JUMPI PUSH1 0x0 DUP1 REVERT JUMPDEST DUP2 MLOAD DUP1 ISZERO ISZERO DUP2 EQ PUSH2 0x11BD JUMPI PUSH1 0x0 DUP1 REVERT INVALID LOG2 PUSH5 0x6970667358 0x22 SLT KECCAK256 MUL 0xC7 0x4A 0xF9 MUL BALANCE LOG3 0xD8 GT 0xDB PUSH5 0x5233F73E9C NUMBER MLOAD NOT MULMOD MUL 0xAB DELEGATECALL 0xEF 0xDD 0xCE 0x1E 0xB5 0xA7 0xC7 ADDRESS DUP8 PUSH5 0x736F6C6343 STOP ADDMOD 0xE STOP CALLER ","sha1":"c8645d096af4f7e30ab58badc9e9a361d171ac88","source":"// SPDX-License-Identifier: MIT\npragma solidity ^0.8.0;\n\nimport \"@chainlink/contracts/src/v0.8/interfaces/AggregatorV3Interface.sol\";\nimport \"@openzeppelin/contracts/access/Ownable.sol\";\nimport \"@chainlink/contracts/src/v0.8/VRFConsumerBase.sol\";\n\ncontract Blast is Ownable , VRFConsumerBase{\n    uint256 public entranceFeeAmount;\n    bytes32 public keyHash;\n    uint256 public fee;\n    uint256 public randomness;\n    uint256 public randomRatio; \n    uint256 public winnerCounter;\n    AggregatorV3Interface internal entranceFeeContract;\n    enum BLAST_STATUS{\n        OPEN,\n        CLOSE,\n        CALCULATING\n    }\n    BLAST_STATUS public blast_status;\n\n    event requestIdRandomness(bytes32 requestId);\n\n    constructor(address _entranceFeeAddress , address _vrfcoordinator , address _link , bytes32 _keyhash , uint256 _fee) public VRFConsumerBase(_vrfcoordinator , _link){\n        blast_status = BLAST_STATUS.CLOSE;\n        keyHash = _keyhash;\n        fee = _fee;\n        winnerCounter = 0;\n        entranceFeeAmount = 5 * (10**18);\n        entranceFeeContract = AggregatorV3Interface(_entranceFeeAddress);\n    }\n\n    struct info{\n        address payable account;\n        uint256 money;\n        uint256 ratio;\n    }\n\n    info[] public players;\n\n\n    function entranceFee() public view returns(uint256){\n        ( ,int price, , , ) = entranceFeeContract.latestRoundData();\n        uint256 adjustedPrice = uint256(price) * (10**10); //18 decimal,'price' 8 decimal dare\n        uint256 costToEnter = entranceFeeAmount * (10**18) / adjustedPrice; //vooroodi be wei\n        return costToEnter;\n    }\n    function enter(uint256 _ratio) payable public{\n        require(blast_status == BLAST_STATUS.OPEN);\n        require(msg.value >= entranceFee() , \"not enough money for blast!!!\");\n        require(_ratio > 100 && _ratio <= 1000 , \"incorrect ratio!!!\");\n        players.push(info(payable(msg.sender) , msg.value , _ratio));\n    }\n    function start() public onlyOwner{\n        require(blast_status == BLAST_STATUS.CLOSE);\n        blast_status = BLAST_STATUS.OPEN;\n    }\n\n    function finish() public onlyOwner returns(bytes32 requestId){\n        require(LINK.balanceOf(address(this)) >= fee, \"Not enough LINK - fill contract with faucet\");\n        blast_status = BLAST_STATUS.CALCULATING;\n        requestId = requestRandomness(keyHash, fee);\n        return requestId;\n        emit requestIdRandomness(requestId);\n    }\n\n    function fulfillRandomness(bytes32 _requestId, uint256 _randomness) internal override{\n        require(blast_status == BLAST_STATUS.CALCULATING , \"blast is not ended!!!\");\n        require(_randomness > 0 , \"there is no random number yet!!!\");\n        randomness = _randomness;\n    }\n\n    function getRatio() public onlyOwner{\n        require(blast_status == BLAST_STATUS.CALCULATING, \"blast is not ended!!!\");\n        uint256 modulus = randomness % 1000;\n        uint256 top;\n        uint256 down;\n        if (modulus <= 19 && modulus >= 0 ){\n            randomRatio = 0;\n        }\n        else if (modulus <= 569 && modulus >= 20 ){\n            top = 570;\n            down = 20;\n            randomRatio = (modulus-down)*100/(top-down) + 100;\n        }\n        else if (modulus <= 779 && modulus >= 570 ){\n            top = 780;\n            down = 570;\n            randomRatio = (modulus-down)*100/(top-down) + 200;\n        }\n        else if (modulus >= 780 && modulus <= 879 ){\n            top = 880;\n            down = 780;\n            randomRatio = (modulus-down)*100/(top-down) + 300;\n        }\n        else if (modulus >= 880 && modulus <= 929 ){\n            top = 930;\n            down = 880;\n            randomRatio = (modulus-down)*100/(top-down) + 400;\n        }\n        else if (modulus >= 930 && modulus <= 959 ){\n            top = 960;\n            down = 930;\n            randomRatio = (modulus-down)*100/(top-down) + 500;\n        }\n        else if (modulus >= 960 && modulus <= 979 ){\n            top = 570;\n            down = 20;\n            randomRatio = (modulus-down)*100/(top-down) + 600;\n        }\n        else if (modulus >= 980 && modulus <= 989 ){\n            top = 990;\n            down = 980;\n            randomRatio = (modulus-down)*100/(top-down) + 700;\n        }\n        else if (modulus >= 990 && modulus <= 994 ){\n            top = 995;\n            down = 990;\n            randomRatio = (modulus-down)*100/(top-down) + 800;\n        }\n        else if (modulus >= 995 && modulus <= 998 ){\n            top = 999;\n            down = 995;\n            randomRatio = (modulus-down)*100/(top-down) + 900;\n        }\n        else if (modulus == 999 ){\n            randomRatio = 10;\n        }\n    }\n\n    function blastPayment() public payable onlyOwner{\n        require(blast_status == BLAST_STATUS.CALCULATING, \"blast is not ended!!!\");\n        require(randomRatio > 0 , \"Ratio is 0!!!\");\n        for (uint256 i=0 ; i < players.length ; i++){\n            uint256 playerRatio = players[i].ratio;\n            if (playerRatio <= randomRatio){\n                uint256 playerValue = players[i].money / 100 * players[i].ratio;\n                address payable playerAddress = players[i].account;\n                playerAddress.transfer(playerValue);\n                winnerCounter++;\n            }\n        }\n        delete players;\n        blast_status = BLAST_STATUS.CLOSE;\n        }\n        \n    \n}","sourcePath":"contracts/Blast.sol","deployment":{"address":"0x09B09C49EF805858c7cf8666718bb8af9c8F974A","chainid":"4","blockHeight":11205952}}