{"abi":[{"inputs":[{"internalType":"address","name":"_entranceFeeAddress","type":"address"},{"internalType":"address","name":"_vrfcoordinator","type":"address"},{"internalType":"address","name":"_link","type":"address"},{"internalType":"bytes32","name":"_keyhash","type":"bytes32"},{"internalType":"uint256","name":"_fee","type":"uint256"}],"stateMutability":"nonpayable","type":"constructor","name":"constructor"},{"anonymous":false,"inputs":[{"indexed":true,"internalType":"address","name":"previousOwner","type":"address"},{"indexed":true,"internalType":"address","name":"newOwner","type":"address"}],"name":"OwnershipTransferred","type":"event"},{"inputs":[],"name":"blastPayment","outputs":[],"stateMutability":"nonpayable","type":"function"},{"inputs":[],"name":"blast_status","outputs":[{"internalType":"enum Blast.BLAST_STATUS","name":"","type":"uint8"}],"stateMutability":"view","type":"function"},{"inputs":[{"internalType":"uint256","name":"_ratio","type":"uint256"}],"name":"enter","outputs":[],"stateMutability":"payable","type":"function"},{"inputs":[],"name":"entranceFee","outputs":[{"internalType":"uint256","name":"","type":"uint256"}],"stateMutability":"view","type":"function"},{"inputs":[],"name":"entranceFeeAmount","outputs":[{"internalType":"uint256","name":"","type":"uint256"}],"stateMutability":"view","type":"function"},{"inputs":[],"name":"fee","outputs":[{"internalType":"uint256","name":"","type":"uint256"}],"stateMutability":"view","type":"function"},{"inputs":[],"name":"finish","outputs":[{"internalType":"bytes32","name":"requestId","type":"bytes32"}],"stateMutability":"nonpayable","type":"function"},{"inputs":[],"name":"getRatio","outputs":[],"stateMutability":"nonpayable","type":"function"},{"inputs":[],"name":"keyHash","outputs":[{"internalType":"bytes32","name":"","type":"bytes32"}],"stateMutability":"view","type":"function"},{"inputs":[],"name":"owner","outputs":[{"internalType":"address","name":"","type":"address"}],"stateMutability":"view","type":"function"},{"inputs":[{"internalType":"uint256","name":"","type":"uint256"}],"name":"players","outputs":[{"internalType":"address payable","name":"account","type":"address"},{"internalType":"uint256","name":"money","type":"uint256"},{"internalType":"uint256","name":"ratio","type":"uint256"}],"stateMutability":"view","type":"function"},{"inputs":[],"name":"randomRatio","outputs":[{"internalType":"uint256","name":"","type":"uint256"}],"stateMutability":"view","type":"function"},{"inputs":[],"name":"randomness","outputs":[{"internalType":"uint256","name":"","type":"uint256"}],"stateMutability":"view","type":"function"},{"inputs":[{"internalType":"bytes32","name":"requestId","type":"bytes32"},{"internalType":"uint256","name":"randomness","type":"uint256"}],"name":"rawFulfillRandomness","outputs":[],"stateMutability":"nonpayable","type":"function"},{"inputs":[],"name":"renounceOwnership","outputs":[],"stateMutability":"nonpayable","type":"function"},{"inputs":[],"name":"start","outputs":[],"stateMutability":"nonpayable","type":"function"},{"inputs":[{"internalType":"address","name":"newOwner","type":"address"}],"name":"transferOwnership","outputs":[],"stateMutability":"nonpayable","type":"function"},{"inputs":[],"name":"winnerCounter","outputs":[{"internalType":"uint256","name":"","type":"uint256"}],"stateMutability":"view","type":"function"}],"bytecode":"60c06040523480156200001157600080fd5b50604051620015a2380380620015a2833981016040819052620000349162000105565b8383620000413362000098565b6001600160a01b0391821660a0528116608052600880546003949094556004929092556000600755674563918244f40000600255949094166001600160a81b031990911617600160a01b1790925550620001629050565b600080546001600160a01b038381166001600160a01b0319831681178455604051919092169283917f8be0079c531659141344cd1fd0a4f28419497f9722a3daafe3b4186f6b6457e09190a35050565b80516001600160a01b03811681146200010057600080fd5b919050565b600080600080600060a086880312156200011e57600080fd5b6200012986620000e8565b94506200013960208701620000e8565b93506200014960408701620000e8565b6060870151608090970151959894975095949392505050565b60805160a05161140c62000196600039600081816105da0152610f4d0152600081816108a80152610f1e015261140c6000f3fe6080604052600436106101095760003560e01c806394985ddd11610095578063d56b288911610064578063d56b288914610272578063ddca3f4314610287578063ec1ebd7a1461029d578063f2fde38b146102b2578063f71d96cb146102d257600080fd5b806394985ddd14610214578063a1e0c2c914610234578063a59f3e0c1461024a578063be9a65551461025d57600080fd5b80635a88376e116100dc5780635a88376e1461019657806361728f39146101ac578063649677e1146101c2578063715018a6146101d75780638da5cb5b146101ec57600080fd5b80630e8c66fe1461010e5780631b06b7a7146101455780632c4108871461015c5780633601318914610180575b600080fd5b34801561011a57600080fd5b5060085461012f90600160a01b900460ff1681565b60405161013c91906110f8565b60405180910390f35b34801561015157600080fd5b5061015a610317565b005b34801561016857600080fd5b5061017260025481565b60405190815260200161013c565b34801561018c57600080fd5b5061017260055481565b3480156101a257600080fd5b5061017260065481565b3480156101b857600080fd5b5061017260035481565b3480156101ce57600080fd5b506101726104d9565b3480156101e357600080fd5b5061015a610599565b3480156101f857600080fd5b506000546040516001600160a01b03909116815260200161013c565b34801561022057600080fd5b5061015a61022f366004611120565b6105cf565b34801561024057600080fd5b5061017260075481565b61015a610258366004611142565b610655565b34801561026957600080fd5b5061015a6107eb565b34801561027e57600080fd5b50610172610859565b34801561029357600080fd5b5061017260045481565b3480156102a957600080fd5b5061015a61099d565b3480156102be57600080fd5b5061015a6102cd36600461115b565b610d5f565b3480156102de57600080fd5b506102f26102ed366004611142565b610dfa565b604080516001600160a01b03909416845260208401929092529082015260600161013c565b6000546001600160a01b0316331461034a5760405162461bcd60e51b81526004016103419061118b565b60405180910390fd5b6002600854600160a01b900460ff16600281111561036a5761036a6110e2565b146103875760405162461bcd60e51b8152600401610341906111c0565b60005b6009548110156104af576006541561049d57600654600982815481106103b2576103b26111ef565b9060005260206000209060030201600201541161049d576000600982815481106103de576103de6111ef565b906000526020600020906003020160020154606460098481548110610405576104056111ef565b9060005260206000209060030201600101546104219190611231565b61042b9190611245565b905060098281548110610440576104406111ef565b600091825260208220600390910201546040516001600160a01b039091169183156108fc02918491818181858888f19350505050158015610485573d6000803e3d6000fd5b506007805490600061049683611264565b9190505550505b806104a781611264565b91505061038a565b506104bc60096000611095565b600880546001919060ff60a01b1916600160a01b835b0217905550565b600080600860009054906101000a90046001600160a01b03166001600160a01b031663feaf968c6040518163ffffffff1660e01b815260040160a060405180830381865afa15801561052f573d6000803e3d6000fd5b505050506040513d601f19601f82011682018060405250810190610553919061129c565b5050509150506000816402540be40061056c9190611245565b9050600081600254670de0b6b3a76400006105879190611245565b6105919190611231565b949350505050565b6000546001600160a01b031633146105c35760405162461bcd60e51b81526004016103419061118b565b6105cd6000610e37565b565b336001600160a01b037f000000000000000000000000000000000000000000000000000000000000000016146106475760405162461bcd60e51b815260206004820152601f60248201527f4f6e6c7920565246436f6f7264696e61746f722063616e2066756c66696c6c006044820152606401610341565b6106518282610e87565b5050565b6000600854600160a01b900460ff166002811115610675576106756110e2565b1461067f57600080fd5b6106876104d9565b3410156106d65760405162461bcd60e51b815260206004820152601d60248201527f6e6f7420656e6f756768206d6f6e657920666f7220626c6173742121210000006044820152606401610341565b6064811180156106e857506103e88111155b6107295760405162461bcd60e51b8152602060048201526012602482015271696e636f727265637420726174696f21212160701b6044820152606401610341565b6040805160608101825233815234602082019081529181019283526009805460018101825560009190915290517f6e1540171b6c0c960b71a7020d9f60077f6af931a8bbf590da0223dacf75c7af600390920291820180546001600160a01b0319166001600160a01b0390921691909117905590517f6e1540171b6c0c960b71a7020d9f60077f6af931a8bbf590da0223dacf75c7b082015590517f6e1540171b6c0c960b71a7020d9f60077f6af931a8bbf590da0223dacf75c7b190910155565b6000546001600160a01b031633146108155760405162461bcd60e51b81526004016103419061118b565b6001600854600160a01b900460ff166002811115610835576108356110e2565b1461083f57600080fd5b600880546000919060ff60a01b1916600160a01b836104d2565b600080546001600160a01b031633146108845760405162461bcd60e51b81526004016103419061118b565b600480546040516370a0823160e01b81523092810192909252906001600160a01b037f000000000000000000000000000000000000000000000000000000000000000016906370a0823190602401602060405180830381865afa1580156108ef573d6000803e3d6000fd5b505050506040513d601f19601f8201168201806040525081019061091391906112ec565b10156109755760405162461bcd60e51b815260206004820152602b60248201527f4e6f7420656e6f756768204c494e4b202d2066696c6c20636f6e74726163742060448201526a1dda5d1a0819985d58d95d60aa1b6064820152608401610341565b6008805460ff60a01b1916600160a11b1790556003546004546109989190610f1a565b905090565b6000546001600160a01b031633146109c75760405162461bcd60e51b81526004016103419061118b565b6002600854600160a01b900460ff1660028111156109e7576109e76110e2565b14610a045760405162461bcd60e51b8152600401610341906111c0565b60006103e8600554610a169190611305565b905060008060138311158015610a2a575060015b15610a39576000600655505050565b6102398311158015610a4c575060148310155b15610a95575061023a90506014610a638183611319565b610a6d8285611319565b610a78906064611245565b610a829190611231565b610a8d906064611330565b600655505050565b61030b8311158015610aa9575061023a8310155b15610aeb575061030c905061023a610ac18183611319565b610acb8285611319565b610ad6906064611245565b610ae09190611231565b610a8d9060c8611330565b61030c8310158015610aff575061036f8311155b15610b425750610370905061030c610b178183611319565b610b218285611319565b610b2c906064611245565b610b369190611231565b610a8d9061012c611330565b6103708310158015610b5657506103a18311155b15610b9957506103a29050610370610b6e8183611319565b610b788285611319565b610b83906064611245565b610b8d9190611231565b610a8d90610190611330565b6103a28310158015610bad57506103bf8311155b15610bf057506103c090506103a2610bc58183611319565b610bcf8285611319565b610bda906064611245565b610be49190611231565b610a8d906101f4611330565b6103c08310158015610c0457506103d38311155b15610c46575061023a90506014610c1b8183611319565b610c258285611319565b610c30906064611245565b610c3a9190611231565b610a8d90610258611330565b6103d48310158015610c5a57506103dd8311155b15610c9d57506103de90506103d4610c728183611319565b610c7c8285611319565b610c87906064611245565b610c919190611231565b610a8d906102bc611330565b6103de8310158015610cb157506103e28311155b15610cf457506103e390506103de610cc98183611319565b610cd38285611319565b610cde906064611245565b610ce89190611231565b610a8d90610320611330565b6103e38310158015610d0857506103e68311155b15610d4b57506103e790506103e3610d208183611319565b610d2a8285611319565b610d35906064611245565b610d3f9190611231565b610a8d90610384611330565b826103e703610d5a57600a6006555b505050565b6000546001600160a01b03163314610d895760405162461bcd60e51b81526004016103419061118b565b6001600160a01b038116610dee5760405162461bcd60e51b815260206004820152602660248201527f4f776e61626c653a206e6577206f776e657220697320746865207a65726f206160448201526564647265737360d01b6064820152608401610341565b610df781610e37565b50565b60098181548110610e0a57600080fd5b60009182526020909120600390910201805460018201546002909201546001600160a01b03909116925083565b600080546001600160a01b038381166001600160a01b0319831681178455604051919092169283917f8be0079c531659141344cd1fd0a4f28419497f9722a3daafe3b4186f6b6457e09190a35050565b6002600854600160a01b900460ff166002811115610ea757610ea76110e2565b14610ec45760405162461bcd60e51b8152600401610341906111c0565b60008111610f145760405162461bcd60e51b815260206004820181905260248201527f7468657265206973206e6f2072616e646f6d206e756d626572207965742121216044820152606401610341565b60055550565b60007f00000000000000000000000000000000000000000000000000000000000000006001600160a01b0316634000aea07f000000000000000000000000000000000000000000000000000000000000000084866000604051602001610f8a929190918252602082015260400190565b6040516020818303038152906040526040518463ffffffff1660e01b8152600401610fb793929190611348565b6020604051808303816000875af1158015610fd6573d6000803e3d6000fd5b505050506040513d601f19601f82011682018060405250810190610ffa91906113b4565b50600083815260016020818152604080842054815180840189905280830186905230606082015260808082018390528351808303909101815260a0909101909252815191830191909120938790529082905261105591611330565b6000858152600160205260409020556105918482604080516020808201949094528082019290925280518083038201815260609092019052805191012090565b5080546000825560030290600052602060002090810190610df791905b808211156110de5780546001600160a01b031916815560006001820181905560028201556003016110b2565b5090565b634e487b7160e01b600052602160045260246000fd5b602081016003831061111a57634e487b7160e01b600052602160045260246000fd5b91905290565b6000806040838503121561113357600080fd5b50508035926020909101359150565b60006020828403121561115457600080fd5b5035919050565b60006020828403121561116d57600080fd5b81356001600160a01b038116811461118457600080fd5b9392505050565b6020808252818101527f4f776e61626c653a2063616c6c6572206973206e6f7420746865206f776e6572604082015260600190565b602080825260159082015274626c617374206973206e6f7420656e64656421212160581b604082015260600190565b634e487b7160e01b600052603260045260246000fd5b634e487b7160e01b600052601260045260246000fd5b634e487b7160e01b600052601160045260246000fd5b60008261124057611240611205565b500490565b600081600019048311821515161561125f5761125f61121b565b500290565b6000600182016112765761127661121b565b5060010190565b805169ffffffffffffffffffff8116811461129757600080fd5b919050565b600080600080600060a086880312156112b457600080fd5b6112bd8661127d565b94506020860151935060408601519250606086015191506112e06080870161127d565b90509295509295909350565b6000602082840312156112fe57600080fd5b5051919050565b60008261131457611314611205565b500690565b60008282101561132b5761132b61121b565b500390565b600082198211156113435761134361121b565b500190565b60018060a01b038416815260006020848184015260606040840152835180606085015260005b8181101561138a5785810183015185820160800152820161136e565b8181111561139c576000608083870101525b50601f01601f19169290920160800195945050505050565b6000602082840312156113c657600080fd5b8151801515811461118457600080fdfea264697066735822122055fa8be45d308f594f3ff51ea21e225b14c7876a3151f5de569dd61548fdd5e364736f6c634300080e0033","bytecodeSha1":"0db1b4b3fd08d51d79543dbae781c53b8a937f9a","compiler":{"evm_version":"istanbul","optimizer":{"enabled":true,"runs":200},"version":"0.8.14+commit.80d49f37"},"contractName":"Blast","language":"Solidity","natspec":{"kind":"dev","methods":{"owner()":{"details":"Returns the address of the current owner."},"renounceOwnership()":{"details":"Leaves the contract without owner. It will not be possible to call `onlyOwner` functions anymore. Can only be called by the current owner. NOTE: Renouncing ownership will leave the contract without an owner, thereby removing any functionality that is only available to the owner."},"transferOwnership(address)":{"details":"Transfers ownership of the contract to a new account (`newOwner`). Can only be called by the current owner."}},"version":1},"opcodes":"PUSH1 0x80 PUSH1 0x40 MSTORE PUSH1 0x4 CALLDATASIZE LT PUSH2 0x109 JUMPI PUSH1 0x0 CALLDATALOAD PUSH1 0xE0 SHR DUP1 PUSH4 0x94985DDD GT PUSH2 0x95 JUMPI DUP1 PUSH4 0xD56B2889 GT PUSH2 0x64 JUMPI DUP1 PUSH4 0xD56B2889 EQ PUSH2 0x272 JUMPI DUP1 PUSH4 0xDDCA3F43 EQ PUSH2 0x287 JUMPI DUP1 PUSH4 0xEC1EBD7A EQ PUSH2 0x29D JUMPI DUP1 PUSH4 0xF2FDE38B EQ PUSH2 0x2B2 JUMPI DUP1 PUSH4 0xF71D96CB EQ PUSH2 0x2D2 JUMPI PUSH1 0x0 DUP1 REVERT JUMPDEST DUP1 PUSH4 0x94985DDD EQ PUSH2 0x214 JUMPI DUP1 PUSH4 0xA1E0C2C9 EQ PUSH2 0x234 JUMPI DUP1 PUSH4 0xA59F3E0C EQ PUSH2 0x24A JUMPI DUP1 PUSH4 0xBE9A6555 EQ PUSH2 0x25D JUMPI PUSH1 0x0 DUP1 REVERT JUMPDEST DUP1 PUSH4 0x5A88376E GT PUSH2 0xDC JUMPI DUP1 PUSH4 0x5A88376E EQ PUSH2 0x196 JUMPI DUP1 PUSH4 0x61728F39 EQ PUSH2 0x1AC JUMPI DUP1 PUSH4 0x649677E1 EQ PUSH2 0x1C2 JUMPI DUP1 PUSH4 0x715018A6 EQ PUSH2 0x1D7 JUMPI DUP1 PUSH4 0x8DA5CB5B EQ PUSH2 0x1EC JUMPI PUSH1 0x0 DUP1 REVERT JUMPDEST DUP1 PUSH4 0xE8C66FE EQ PUSH2 0x10E JUMPI DUP1 PUSH4 0x1B06B7A7 EQ PUSH2 0x145 JUMPI DUP1 PUSH4 0x2C410887 EQ PUSH2 0x15C JUMPI DUP1 PUSH4 0x36013189 EQ PUSH2 0x180 JUMPI JUMPDEST PUSH1 0x0 DUP1 REVERT JUMPDEST CALLVALUE DUP1 ISZERO PUSH2 0x11A JUMPI PUSH1 0x0 DUP1 REVERT JUMPDEST POP PUSH1 0x8 SLOAD PUSH2 0x12F SWAP1 PUSH1 0x1 PUSH1 0xA0 SHL SWAP1 DIV PUSH1 0xFF AND DUP2 JUMP JUMPDEST PUSH1 0x40 MLOAD PUSH2 0x13C SWAP2 SWAP1 PUSH2 0x10F8 JUMP JUMPDEST PUSH1 0x40 MLOAD DUP1 SWAP2 SUB SWAP1 RETURN JUMPDEST CALLVALUE DUP1 ISZERO PUSH2 0x151 JUMPI PUSH1 0x0 DUP1 REVERT JUMPDEST POP PUSH2 0x15A PUSH2 0x317 JUMP JUMPDEST STOP JUMPDEST CALLVALUE DUP1 ISZERO PUSH2 0x168 JUMPI PUSH1 0x0 DUP1 REVERT JUMPDEST POP PUSH2 0x172 PUSH1 0x2 SLOAD DUP2 JUMP JUMPDEST PUSH1 0x40 MLOAD SWAP1 DUP2 MSTORE PUSH1 0x20 ADD PUSH2 0x13C JUMP JUMPDEST CALLVALUE DUP1 ISZERO PUSH2 0x18C JUMPI PUSH1 0x0 DUP1 REVERT JUMPDEST POP PUSH2 0x172 PUSH1 0x5 SLOAD DUP2 JUMP JUMPDEST CALLVALUE DUP1 ISZERO PUSH2 0x1A2 JUMPI PUSH1 0x0 DUP1 REVERT JUMPDEST POP PUSH2 0x172 PUSH1 0x6 SLOAD DUP2 JUMP JUMPDEST CALLVALUE DUP1 ISZERO PUSH2 0x1B8 JUMPI PUSH1 0x0 DUP1 REVERT JUMPDEST POP PUSH2 0x172 PUSH1 0x3 SLOAD DUP2 JUMP JUMPDEST CALLVALUE DUP1 ISZERO PUSH2 0x1CE JUMPI PUSH1 0x0 DUP1 REVERT JUMPDEST POP PUSH2 0x172 PUSH2 0x4D9 JUMP JUMPDEST CALLVALUE DUP1 ISZERO PUSH2 0x1E3 JUMPI PUSH1 0x0 DUP1 REVERT JUMPDEST POP PUSH2 0x15A PUSH2 0x599 JUMP JUMPDEST CALLVALUE DUP1 ISZERO PUSH2 0x1F8 JUMPI PUSH1 0x0 DUP1 REVERT JUMPDEST POP PUSH1 0x0 SLOAD PUSH1 0x40 MLOAD PUSH1 0x1 PUSH1 0x1 PUSH1 0xA0 SHL SUB SWAP1 SWAP2 AND DUP2 MSTORE PUSH1 0x20 ADD PUSH2 0x13C JUMP JUMPDEST CALLVALUE DUP1 ISZERO PUSH2 0x220 JUMPI PUSH1 0x0 DUP1 REVERT JUMPDEST POP PUSH2 0x15A PUSH2 0x22F CALLDATASIZE PUSH1 0x4 PUSH2 0x1120 JUMP JUMPDEST PUSH2 0x5CF JUMP JUMPDEST CALLVALUE DUP1 ISZERO PUSH2 0x240 JUMPI PUSH1 0x0 DUP1 REVERT JUMPDEST POP PUSH2 0x172 PUSH1 0x7 SLOAD DUP2 JUMP JUMPDEST PUSH2 0x15A PUSH2 0x258 CALLDATASIZE PUSH1 0x4 PUSH2 0x1142 JUMP JUMPDEST PUSH2 0x655 JUMP JUMPDEST CALLVALUE DUP1 ISZERO PUSH2 0x269 JUMPI PUSH1 0x0 DUP1 REVERT JUMPDEST POP PUSH2 0x15A PUSH2 0x7EB JUMP JUMPDEST CALLVALUE DUP1 ISZERO PUSH2 0x27E JUMPI PUSH1 0x0 DUP1 REVERT JUMPDEST POP PUSH2 0x172 PUSH2 0x859 JUMP JUMPDEST CALLVALUE DUP1 ISZERO PUSH2 0x293 JUMPI PUSH1 0x0 DUP1 REVERT JUMPDEST POP PUSH2 0x172 PUSH1 0x4 SLOAD DUP2 JUMP JUMPDEST CALLVALUE DUP1 ISZERO PUSH2 0x2A9 JUMPI PUSH1 0x0 DUP1 REVERT JUMPDEST POP PUSH2 0x15A PUSH2 0x99D JUMP JUMPDEST CALLVALUE DUP1 ISZERO PUSH2 0x2BE JUMPI PUSH1 0x0 DUP1 REVERT JUMPDEST POP PUSH2 0x15A PUSH2 0x2CD CALLDATASIZE PUSH1 0x4 PUSH2 0x115B JUMP JUMPDEST PUSH2 0xD5F JUMP JUMPDEST CALLVALUE DUP1 ISZERO PUSH2 0x2DE JUMPI PUSH1 0x0 DUP1 REVERT JUMPDEST POP PUSH2 0x2F2 PUSH2 0x2ED CALLDATASIZE PUSH1 0x4 PUSH2 0x1142 JUMP JUMPDEST PUSH2 0xDFA JUMP JUMPDEST PUSH1 0x40 DUP1 MLOAD PUSH1 0x1 PUSH1 0x1 PUSH1 0xA0 SHL SUB SWAP1 SWAP5 AND DUP5 MSTORE PUSH1 0x20 DUP5 ADD SWAP3 SWAP1 SWAP3 MSTORE SWAP1 DUP3 ADD MSTORE PUSH1 0x60 ADD PUSH2 0x13C JUMP JUMPDEST PUSH1 0x0 SLOAD PUSH1 0x1 PUSH1 0x1 PUSH1 0xA0 SHL SUB AND CALLER EQ PUSH2 0x34A JUMPI PUSH1 0x40 MLOAD PUSH3 0x461BCD PUSH1 0xE5 SHL DUP2 MSTORE PUSH1 0x4 ADD PUSH2 0x341 SWAP1 PUSH2 0x118B JUMP JUMPDEST PUSH1 0x40 MLOAD DUP1 SWAP2 SUB SWAP1 REVERT JUMPDEST PUSH1 0x2 PUSH1 0x8 SLOAD PUSH1 0x1 PUSH1 0xA0 SHL SWAP1 DIV PUSH1 0xFF AND PUSH1 0x2 DUP2 GT ISZERO PUSH2 0x36A JUMPI PUSH2 0x36A PUSH2 0x10E2 JUMP JUMPDEST EQ PUSH2 0x387 JUMPI PUSH1 0x40 MLOAD PUSH3 0x461BCD PUSH1 0xE5 SHL DUP2 MSTORE PUSH1 0x4 ADD PUSH2 0x341 SWAP1 PUSH2 0x11C0 JUMP JUMPDEST PUSH1 0x0 JUMPDEST PUSH1 0x9 SLOAD DUP2 LT ISZERO PUSH2 0x4AF JUMPI PUSH1 0x6 SLOAD ISZERO PUSH2 0x49D JUMPI PUSH1 0x6 SLOAD PUSH1 0x9 DUP3 DUP2 SLOAD DUP2 LT PUSH2 0x3B2 JUMPI PUSH2 0x3B2 PUSH2 0x11EF JUMP JUMPDEST SWAP1 PUSH1 0x0 MSTORE PUSH1 0x20 PUSH1 0x0 KECCAK256 SWAP1 PUSH1 0x3 MUL ADD PUSH1 0x2 ADD SLOAD GT PUSH2 0x49D JUMPI PUSH1 0x0 PUSH1 0x9 DUP3 DUP2 SLOAD DUP2 LT PUSH2 0x3DE JUMPI PUSH2 0x3DE PUSH2 0x11EF JUMP JUMPDEST SWAP1 PUSH1 0x0 MSTORE PUSH1 0x20 PUSH1 0x0 KECCAK256 SWAP1 PUSH1 0x3 MUL ADD PUSH1 0x2 ADD SLOAD PUSH1 0x64 PUSH1 0x9 DUP5 DUP2 SLOAD DUP2 LT PUSH2 0x405 JUMPI PUSH2 0x405 PUSH2 0x11EF JUMP JUMPDEST SWAP1 PUSH1 0x0 MSTORE PUSH1 0x20 PUSH1 0x0 KECCAK256 SWAP1 PUSH1 0x3 MUL ADD PUSH1 0x1 ADD SLOAD PUSH2 0x421 SWAP2 SWAP1 PUSH2 0x1231 JUMP JUMPDEST PUSH2 0x42B SWAP2 SWAP1 PUSH2 0x1245 JUMP JUMPDEST SWAP1 POP PUSH1 0x9 DUP3 DUP2 SLOAD DUP2 LT PUSH2 0x440 JUMPI PUSH2 0x440 PUSH2 0x11EF JUMP JUMPDEST PUSH1 0x0 SWAP2 DUP3 MSTORE PUSH1 0x20 DUP3 KECCAK256 PUSH1 0x3 SWAP1 SWAP2 MUL ADD SLOAD PUSH1 0x40 MLOAD PUSH1 0x1 PUSH1 0x1 PUSH1 0xA0 SHL SUB SWAP1 SWAP2 AND SWAP2 DUP4 ISZERO PUSH2 0x8FC MUL SWAP2 DUP5 SWAP2 DUP2 DUP2 DUP2 DUP6 DUP9 DUP9 CALL SWAP4 POP POP POP POP ISZERO DUP1 ISZERO PUSH2 0x485 JUMPI RETURNDATASIZE PUSH1 0x0 DUP1 RETURNDATACOPY RETURNDATASIZE PUSH1 0x0 REVERT JUMPDEST POP PUSH1 0x7 DUP1 SLOAD SWAP1 PUSH1 0x0 PUSH2 0x496 DUP4 PUSH2 0x1264 JUMP JUMPDEST SWAP2 SWAP1 POP SSTORE POP POP JUMPDEST DUP1 PUSH2 0x4A7 DUP2 PUSH2 0x1264 JUMP JUMPDEST SWAP2 POP POP PUSH2 0x38A JUMP JUMPDEST POP PUSH2 0x4BC PUSH1 0x9 PUSH1 0x0 PUSH2 0x1095 JUMP JUMPDEST PUSH1 0x8 DUP1 SLOAD PUSH1 0x1 SWAP2 SWAP1 PUSH1 0xFF PUSH1 0xA0 SHL NOT AND PUSH1 0x1 PUSH1 0xA0 SHL DUP4 JUMPDEST MUL OR SWAP1 SSTORE POP JUMP JUMPDEST PUSH1 0x0 DUP1 PUSH1 0x8 PUSH1 0x0 SWAP1 SLOAD SWAP1 PUSH2 0x100 EXP SWAP1 DIV PUSH1 0x1 PUSH1 0x1 PUSH1 0xA0 SHL SUB AND PUSH1 0x1 PUSH1 0x1 PUSH1 0xA0 SHL SUB AND PUSH4 0xFEAF968C PUSH1 0x40 MLOAD DUP2 PUSH4 0xFFFFFFFF AND PUSH1 0xE0 SHL DUP2 MSTORE PUSH1 0x4 ADD PUSH1 0xA0 PUSH1 0x40 MLOAD DUP1 DUP4 SUB DUP2 DUP7 GAS STATICCALL ISZERO DUP1 ISZERO PUSH2 0x52F JUMPI RETURNDATASIZE PUSH1 0x0 DUP1 RETURNDATACOPY RETURNDATASIZE PUSH1 0x0 REVERT JUMPDEST POP POP POP POP PUSH1 0x40 MLOAD RETURNDATASIZE PUSH1 0x1F NOT PUSH1 0x1F DUP3 ADD AND DUP3 ADD DUP1 PUSH1 0x40 MSTORE POP DUP2 ADD SWAP1 PUSH2 0x553 SWAP2 SWAP1 PUSH2 0x129C JUMP JUMPDEST POP POP POP SWAP2 POP POP PUSH1 0x0 DUP2 PUSH5 0x2540BE400 PUSH2 0x56C SWAP2 SWAP1 PUSH2 0x1245 JUMP JUMPDEST SWAP1 POP PUSH1 0x0 DUP2 PUSH1 0x2 SLOAD PUSH8 0xDE0B6B3A7640000 PUSH2 0x587 SWAP2 SWAP1 PUSH2 0x1245 JUMP JUMPDEST PUSH2 0x591 SWAP2 SWAP1 PUSH2 0x1231 JUMP JUMPDEST SWAP5 SWAP4 POP POP POP POP JUMP JUMPDEST PUSH1 0x0 SLOAD PUSH1 0x1 PUSH1 0x1 PUSH1 0xA0 SHL SUB AND CALLER EQ PUSH2 0x5C3 JUMPI PUSH1 0x40 MLOAD PUSH3 0x461BCD PUSH1 0xE5 SHL DUP2 MSTORE PUSH1 0x4 ADD PUSH2 0x341 SWAP1 PUSH2 0x118B JUMP JUMPDEST PUSH2 0x5CD PUSH1 0x0 PUSH2 0xE37 JUMP JUMPDEST JUMP JUMPDEST CALLER PUSH1 0x1 PUSH1 0x1 PUSH1 0xA0 SHL SUB PUSH32 0x0 AND EQ PUSH2 0x647 JUMPI PUSH1 0x40 MLOAD PUSH3 0x461BCD PUSH1 0xE5 SHL DUP2 MSTORE PUSH1 0x20 PUSH1 0x4 DUP3 ADD MSTORE PUSH1 0x1F PUSH1 0x24 DUP3 ADD MSTORE PUSH32 0x4F6E6C7920565246436F6F7264696E61746F722063616E2066756C66696C6C00 PUSH1 0x44 DUP3 ADD MSTORE PUSH1 0x64 ADD PUSH2 0x341 JUMP JUMPDEST PUSH2 0x651 DUP3 DUP3 PUSH2 0xE87 JUMP JUMPDEST POP POP JUMP JUMPDEST PUSH1 0x0 PUSH1 0x8 SLOAD PUSH1 0x1 PUSH1 0xA0 SHL SWAP1 DIV PUSH1 0xFF AND PUSH1 0x2 DUP2 GT ISZERO PUSH2 0x675 JUMPI PUSH2 0x675 PUSH2 0x10E2 JUMP JUMPDEST EQ PUSH2 0x67F JUMPI PUSH1 0x0 DUP1 REVERT JUMPDEST PUSH2 0x687 PUSH2 0x4D9 JUMP JUMPDEST CALLVALUE LT ISZERO PUSH2 0x6D6 JUMPI PUSH1 0x40 MLOAD PUSH3 0x461BCD PUSH1 0xE5 SHL DUP2 MSTORE PUSH1 0x20 PUSH1 0x4 DUP3 ADD MSTORE PUSH1 0x1D PUSH1 0x24 DUP3 ADD MSTORE PUSH32 0x6E6F7420656E6F756768206D6F6E657920666F7220626C617374212121000000 PUSH1 0x44 DUP3 ADD MSTORE PUSH1 0x64 ADD PUSH2 0x341 JUMP JUMPDEST PUSH1 0x64 DUP2 GT DUP1 ISZERO PUSH2 0x6E8 JUMPI POP PUSH2 0x3E8 DUP2 GT ISZERO JUMPDEST PUSH2 0x729 JUMPI PUSH1 0x40 MLOAD PUSH3 0x461BCD PUSH1 0xE5 SHL DUP2 MSTORE PUSH1 0x20 PUSH1 0x4 DUP3 ADD MSTORE PUSH1 0x12 PUSH1 0x24 DUP3 ADD MSTORE PUSH18 0x696E636F727265637420726174696F212121 PUSH1 0x70 SHL PUSH1 0x44 DUP3 ADD MSTORE PUSH1 0x64 ADD PUSH2 0x341 JUMP JUMPDEST PUSH1 0x40 DUP1 MLOAD PUSH1 0x60 DUP2 ADD DUP3 MSTORE CALLER DUP2 MSTORE CALLVALUE PUSH1 0x20 DUP3 ADD SWAP1 DUP2 MSTORE SWAP2 DUP2 ADD SWAP3 DUP4 MSTORE PUSH1 0x9 DUP1 SLOAD PUSH1 0x1 DUP2 ADD DUP3 SSTORE PUSH1 0x0 SWAP2 SWAP1 SWAP2 MSTORE SWAP1 MLOAD PUSH32 0x6E1540171B6C0C960B71A7020D9F60077F6AF931A8BBF590DA0223DACF75C7AF PUSH1 0x3 SWAP1 SWAP3 MUL SWAP2 DUP3 ADD DUP1 SLOAD PUSH1 0x1 PUSH1 0x1 PUSH1 0xA0 SHL SUB NOT AND PUSH1 0x1 PUSH1 0x1 PUSH1 0xA0 SHL SUB SWAP1 SWAP3 AND SWAP2 SWAP1 SWAP2 OR SWAP1 SSTORE SWAP1 MLOAD PUSH32 0x6E1540171B6C0C960B71A7020D9F60077F6AF931A8BBF590DA0223DACF75C7B0 DUP3 ADD SSTORE SWAP1 MLOAD PUSH32 0x6E1540171B6C0C960B71A7020D9F60077F6AF931A8BBF590DA0223DACF75C7B1 SWAP1 SWAP2 ADD SSTORE JUMP JUMPDEST PUSH1 0x0 SLOAD PUSH1 0x1 PUSH1 0x1 PUSH1 0xA0 SHL SUB AND CALLER EQ PUSH2 0x815 JUMPI PUSH1 0x40 MLOAD PUSH3 0x461BCD PUSH1 0xE5 SHL DUP2 MSTORE PUSH1 0x4 ADD PUSH2 0x341 SWAP1 PUSH2 0x118B JUMP JUMPDEST PUSH1 0x1 PUSH1 0x8 SLOAD PUSH1 0x1 PUSH1 0xA0 SHL SWAP1 DIV PUSH1 0xFF AND PUSH1 0x2 DUP2 GT ISZERO PUSH2 0x835 JUMPI PUSH2 0x835 PUSH2 0x10E2 JUMP JUMPDEST EQ PUSH2 0x83F JUMPI PUSH1 0x0 DUP1 REVERT JUMPDEST PUSH1 0x8 DUP1 SLOAD PUSH1 0x0 SWAP2 SWAP1 PUSH1 0xFF PUSH1 0xA0 SHL NOT AND PUSH1 0x1 PUSH1 0xA0 SHL DUP4 PUSH2 0x4D2 JUMP JUMPDEST PUSH1 0x0 DUP1 SLOAD PUSH1 0x1 PUSH1 0x1 PUSH1 0xA0 SHL SUB AND CALLER EQ PUSH2 0x884 JUMPI PUSH1 0x40 MLOAD PUSH3 0x461BCD PUSH1 0xE5 SHL DUP2 MSTORE PUSH1 0x4 ADD PUSH2 0x341 SWAP1 PUSH2 0x118B JUMP JUMPDEST PUSH1 0x4 DUP1 SLOAD PUSH1 0x40 MLOAD PUSH4 0x70A08231 PUSH1 0xE0 SHL DUP2 MSTORE ADDRESS SWAP3 DUP2 ADD SWAP3 SWAP1 SWAP3 MSTORE SWAP1 PUSH1 0x1 PUSH1 0x1 PUSH1 0xA0 SHL SUB PUSH32 0x0 AND SWAP1 PUSH4 0x70A08231 SWAP1 PUSH1 0x24 ADD PUSH1 0x20 PUSH1 0x40 MLOAD DUP1 DUP4 SUB DUP2 DUP7 GAS STATICCALL ISZERO DUP1 ISZERO PUSH2 0x8EF JUMPI RETURNDATASIZE PUSH1 0x0 DUP1 RETURNDATACOPY RETURNDATASIZE PUSH1 0x0 REVERT JUMPDEST POP POP POP POP PUSH1 0x40 MLOAD RETURNDATASIZE PUSH1 0x1F NOT PUSH1 0x1F DUP3 ADD AND DUP3 ADD DUP1 PUSH1 0x40 MSTORE POP DUP2 ADD SWAP1 PUSH2 0x913 SWAP2 SWAP1 PUSH2 0x12EC JUMP JUMPDEST LT ISZERO PUSH2 0x975 JUMPI PUSH1 0x40 MLOAD PUSH3 0x461BCD PUSH1 0xE5 SHL DUP2 MSTORE PUSH1 0x20 PUSH1 0x4 DUP3 ADD MSTORE PUSH1 0x2B PUSH1 0x24 DUP3 ADD MSTORE PUSH32 0x4E6F7420656E6F756768204C494E4B202D2066696C6C20636F6E747261637420 PUSH1 0x44 DUP3 ADD MSTORE PUSH11 0x1DDA5D1A0819985D58D95D PUSH1 0xAA SHL PUSH1 0x64 DUP3 ADD MSTORE PUSH1 0x84 ADD PUSH2 0x341 JUMP JUMPDEST PUSH1 0x8 DUP1 SLOAD PUSH1 0xFF PUSH1 0xA0 SHL NOT AND PUSH1 0x1 PUSH1 0xA1 SHL OR SWAP1 SSTORE PUSH1 0x3 SLOAD PUSH1 0x4 SLOAD PUSH2 0x998 SWAP2 SWAP1 PUSH2 0xF1A JUMP JUMPDEST SWAP1 POP SWAP1 JUMP JUMPDEST PUSH1 0x0 SLOAD PUSH1 0x1 PUSH1 0x1 PUSH1 0xA0 SHL SUB AND CALLER EQ PUSH2 0x9C7 JUMPI PUSH1 0x40 MLOAD PUSH3 0x461BCD PUSH1 0xE5 SHL DUP2 MSTORE PUSH1 0x4 ADD PUSH2 0x341 SWAP1 PUSH2 0x118B JUMP JUMPDEST PUSH1 0x2 PUSH1 0x8 SLOAD PUSH1 0x1 PUSH1 0xA0 SHL SWAP1 DIV PUSH1 0xFF AND PUSH1 0x2 DUP2 GT ISZERO PUSH2 0x9E7 JUMPI PUSH2 0x9E7 PUSH2 0x10E2 JUMP JUMPDEST EQ PUSH2 0xA04 JUMPI PUSH1 0x40 MLOAD PUSH3 0x461BCD PUSH1 0xE5 SHL DUP2 MSTORE PUSH1 0x4 ADD PUSH2 0x341 SWAP1 PUSH2 0x11C0 JUMP JUMPDEST PUSH1 0x0 PUSH2 0x3E8 PUSH1 0x5 SLOAD PUSH2 0xA16 SWAP2 SWAP1 PUSH2 0x1305 JUMP JUMPDEST SWAP1 POP PUSH1 0x0 DUP1 PUSH1 0x13 DUP4 GT ISZERO DUP1 ISZERO PUSH2 0xA2A JUMPI POP PUSH1 0x1 JUMPDEST ISZERO PUSH2 0xA39 JUMPI PUSH1 0x0 PUSH1 0x6 SSTORE POP POP POP JUMP JUMPDEST PUSH2 0x239 DUP4 GT ISZERO DUP1 ISZERO PUSH2 0xA4C JUMPI POP PUSH1 0x14 DUP4 LT ISZERO JUMPDEST ISZERO PUSH2 0xA95 JUMPI POP PUSH2 0x23A SWAP1 POP PUSH1 0x14 PUSH2 0xA63 DUP2 DUP4 PUSH2 0x1319 JUMP JUMPDEST PUSH2 0xA6D DUP3 DUP6 PUSH2 0x1319 JUMP JUMPDEST PUSH2 0xA78 SWAP1 PUSH1 0x64 PUSH2 0x1245 JUMP JUMPDEST PUSH2 0xA82 SWAP2 SWAP1 PUSH2 0x1231 JUMP JUMPDEST PUSH2 0xA8D SWAP1 PUSH1 0x64 PUSH2 0x1330 JUMP JUMPDEST PUSH1 0x6 SSTORE POP POP POP JUMP JUMPDEST PUSH2 0x30B DUP4 GT ISZERO DUP1 ISZERO PUSH2 0xAA9 JUMPI POP PUSH2 0x23A DUP4 LT ISZERO JUMPDEST ISZERO PUSH2 0xAEB JUMPI POP PUSH2 0x30C SWAP1 POP PUSH2 0x23A PUSH2 0xAC1 DUP2 DUP4 PUSH2 0x1319 JUMP JUMPDEST PUSH2 0xACB DUP3 DUP6 PUSH2 0x1319 JUMP JUMPDEST PUSH2 0xAD6 SWAP1 PUSH1 0x64 PUSH2 0x1245 JUMP JUMPDEST PUSH2 0xAE0 SWAP2 SWAP1 PUSH2 0x1231 JUMP JUMPDEST PUSH2 0xA8D SWAP1 PUSH1 0xC8 PUSH2 0x1330 JUMP JUMPDEST PUSH2 0x30C DUP4 LT ISZERO DUP1 ISZERO PUSH2 0xAFF JUMPI POP PUSH2 0x36F DUP4 GT ISZERO JUMPDEST ISZERO PUSH2 0xB42 JUMPI POP PUSH2 0x370 SWAP1 POP PUSH2 0x30C PUSH2 0xB17 DUP2 DUP4 PUSH2 0x1319 JUMP JUMPDEST PUSH2 0xB21 DUP3 DUP6 PUSH2 0x1319 JUMP JUMPDEST PUSH2 0xB2C SWAP1 PUSH1 0x64 PUSH2 0x1245 JUMP JUMPDEST PUSH2 0xB36 SWAP2 SWAP1 PUSH2 0x1231 JUMP JUMPDEST PUSH2 0xA8D SWAP1 PUSH2 0x12C PUSH2 0x1330 JUMP JUMPDEST PUSH2 0x370 DUP4 LT ISZERO DUP1 ISZERO PUSH2 0xB56 JUMPI POP PUSH2 0x3A1 DUP4 GT ISZERO JUMPDEST ISZERO PUSH2 0xB99 JUMPI POP PUSH2 0x3A2 SWAP1 POP PUSH2 0x370 PUSH2 0xB6E DUP2 DUP4 PUSH2 0x1319 JUMP JUMPDEST PUSH2 0xB78 DUP3 DUP6 PUSH2 0x1319 JUMP JUMPDEST PUSH2 0xB83 SWAP1 PUSH1 0x64 PUSH2 0x1245 JUMP JUMPDEST PUSH2 0xB8D SWAP2 SWAP1 PUSH2 0x1231 JUMP JUMPDEST PUSH2 0xA8D SWAP1 PUSH2 0x190 PUSH2 0x1330 JUMP JUMPDEST PUSH2 0x3A2 DUP4 LT ISZERO DUP1 ISZERO PUSH2 0xBAD JUMPI POP PUSH2 0x3BF DUP4 GT ISZERO JUMPDEST ISZERO PUSH2 0xBF0 JUMPI POP PUSH2 0x3C0 SWAP1 POP PUSH2 0x3A2 PUSH2 0xBC5 DUP2 DUP4 PUSH2 0x1319 JUMP JUMPDEST PUSH2 0xBCF DUP3 DUP6 PUSH2 0x1319 JUMP JUMPDEST PUSH2 0xBDA SWAP1 PUSH1 0x64 PUSH2 0x1245 JUMP JUMPDEST PUSH2 0xBE4 SWAP2 SWAP1 PUSH2 0x1231 JUMP JUMPDEST PUSH2 0xA8D SWAP1 PUSH2 0x1F4 PUSH2 0x1330 JUMP JUMPDEST PUSH2 0x3C0 DUP4 LT ISZERO DUP1 ISZERO PUSH2 0xC04 JUMPI POP PUSH2 0x3D3 DUP4 GT ISZERO JUMPDEST ISZERO PUSH2 0xC46 JUMPI POP PUSH2 0x23A SWAP1 POP PUSH1 0x14 PUSH2 0xC1B DUP2 DUP4 PUSH2 0x1319 JUMP JUMPDEST PUSH2 0xC25 DUP3 DUP6 PUSH2 0x1319 JUMP JUMPDEST PUSH2 0xC30 SWAP1 PUSH1 0x64 PUSH2 0x1245 JUMP JUMPDEST PUSH2 0xC3A SWAP2 SWAP1 PUSH2 0x1231 JUMP JUMPDEST PUSH2 0xA8D SWAP1 PUSH2 0x258 PUSH2 0x1330 JUMP JUMPDEST PUSH2 0x3D4 DUP4 LT ISZERO DUP1 ISZERO PUSH2 0xC5A JUMPI POP PUSH2 0x3DD DUP4 GT ISZERO JUMPDEST ISZERO PUSH2 0xC9D JUMPI POP PUSH2 0x3DE SWAP1 POP PUSH2 0x3D4 PUSH2 0xC72 DUP2 DUP4 PUSH2 0x1319 JUMP JUMPDEST PUSH2 0xC7C DUP3 DUP6 PUSH2 0x1319 JUMP JUMPDEST PUSH2 0xC87 SWAP1 PUSH1 0x64 PUSH2 0x1245 JUMP JUMPDEST PUSH2 0xC91 SWAP2 SWAP1 PUSH2 0x1231 JUMP JUMPDEST PUSH2 0xA8D SWAP1 PUSH2 0x2BC PUSH2 0x1330 JUMP JUMPDEST PUSH2 0x3DE DUP4 LT ISZERO DUP1 ISZERO PUSH2 0xCB1 JUMPI POP PUSH2 0x3E2 DUP4 GT ISZERO JUMPDEST ISZERO PUSH2 0xCF4 JUMPI POP PUSH2 0x3E3 SWAP1 POP PUSH2 0x3DE PUSH2 0xCC9 DUP2 DUP4 PUSH2 0x1319 JUMP JUMPDEST PUSH2 0xCD3 DUP3 DUP6 PUSH2 0x1319 JUMP JUMPDEST PUSH2 0xCDE SWAP1 PUSH1 0x64 PUSH2 0x1245 JUMP JUMPDEST PUSH2 0xCE8 SWAP2 SWAP1 PUSH2 0x1231 JUMP JUMPDEST PUSH2 0xA8D SWAP1 PUSH2 0x320 PUSH2 0x1330 JUMP JUMPDEST PUSH2 0x3E3 DUP4 LT ISZERO DUP1 ISZERO PUSH2 0xD08 JUMPI POP PUSH2 0x3E6 DUP4 GT ISZERO JUMPDEST ISZERO PUSH2 0xD4B JUMPI POP PUSH2 0x3E7 SWAP1 POP PUSH2 0x3E3 PUSH2 0xD20 DUP2 DUP4 PUSH2 0x1319 JUMP JUMPDEST PUSH2 0xD2A DUP3 DUP6 PUSH2 0x1319 JUMP JUMPDEST PUSH2 0xD35 SWAP1 PUSH1 0x64 PUSH2 0x1245 JUMP JUMPDEST PUSH2 0xD3F SWAP2 SWAP1 PUSH2 0x1231 JUMP JUMPDEST PUSH2 0xA8D SWAP1 PUSH2 0x384 PUSH2 0x1330 JUMP JUMPDEST DUP3 PUSH2 0x3E7 SUB PUSH2 0xD5A JUMPI PUSH1 0xA PUSH1 0x6 SSTORE JUMPDEST POP POP POP JUMP JUMPDEST PUSH1 0x0 SLOAD PUSH1 0x1 PUSH1 0x1 PUSH1 0xA0 SHL SUB AND CALLER EQ PUSH2 0xD89 JUMPI PUSH1 0x40 MLOAD PUSH3 0x461BCD PUSH1 0xE5 SHL DUP2 MSTORE PUSH1 0x4 ADD PUSH2 0x341 SWAP1 PUSH2 0x118B JUMP JUMPDEST PUSH1 0x1 PUSH1 0x1 PUSH1 0xA0 SHL SUB DUP2 AND PUSH2 0xDEE JUMPI PUSH1 0x40 MLOAD PUSH3 0x461BCD PUSH1 0xE5 SHL DUP2 MSTORE PUSH1 0x20 PUSH1 0x4 DUP3 ADD MSTORE PUSH1 0x26 PUSH1 0x24 DUP3 ADD MSTORE PUSH32 0x4F776E61626C653A206E6577206F776E657220697320746865207A65726F2061 PUSH1 0x44 DUP3 ADD MSTORE PUSH6 0x646472657373 PUSH1 0xD0 SHL PUSH1 0x64 DUP3 ADD MSTORE PUSH1 0x84 ADD PUSH2 0x341 JUMP JUMPDEST PUSH2 0xDF7 DUP2 PUSH2 0xE37 JUMP JUMPDEST POP JUMP JUMPDEST PUSH1 0x9 DUP2 DUP2 SLOAD DUP2 LT PUSH2 0xE0A JUMPI PUSH1 0x0 DUP1 REVERT JUMPDEST PUSH1 0x0 SWAP2 DUP3 MSTORE PUSH1 0x20 SWAP1 SWAP2 KECCAK256 PUSH1 0x3 SWAP1 SWAP2 MUL ADD DUP1 SLOAD PUSH1 0x1 DUP3 ADD SLOAD PUSH1 0x2 SWAP1 SWAP3 ADD SLOAD PUSH1 0x1 PUSH1 0x1 PUSH1 0xA0 SHL SUB SWAP1 SWAP2 AND SWAP3 POP DUP4 JUMP JUMPDEST PUSH1 0x0 DUP1 SLOAD PUSH1 0x1 PUSH1 0x1 PUSH1 0xA0 SHL SUB DUP4 DUP2 AND PUSH1 0x1 PUSH1 0x1 PUSH1 0xA0 SHL SUB NOT DUP4 AND DUP2 OR DUP5 SSTORE PUSH1 0x40 MLOAD SWAP2 SWAP1 SWAP3 AND SWAP3 DUP4 SWAP2 PUSH32 0x8BE0079C531659141344CD1FD0A4F28419497F9722A3DAAFE3B4186F6B6457E0 SWAP2 SWAP1 LOG3 POP POP JUMP JUMPDEST PUSH1 0x2 PUSH1 0x8 SLOAD PUSH1 0x1 PUSH1 0xA0 SHL SWAP1 DIV PUSH1 0xFF AND PUSH1 0x2 DUP2 GT ISZERO PUSH2 0xEA7 JUMPI PUSH2 0xEA7 PUSH2 0x10E2 JUMP JUMPDEST EQ PUSH2 0xEC4 JUMPI PUSH1 0x40 MLOAD PUSH3 0x461BCD PUSH1 0xE5 SHL DUP2 MSTORE PUSH1 0x4 ADD PUSH2 0x341 SWAP1 PUSH2 0x11C0 JUMP JUMPDEST PUSH1 0x0 DUP2 GT PUSH2 0xF14 JUMPI PUSH1 0x40 MLOAD PUSH3 0x461BCD PUSH1 0xE5 SHL DUP2 MSTORE PUSH1 0x20 PUSH1 0x4 DUP3 ADD DUP2 SWAP1 MSTORE PUSH1 0x24 DUP3 ADD MSTORE PUSH32 0x7468657265206973206E6F2072616E646F6D206E756D62657220796574212121 PUSH1 0x44 DUP3 ADD MSTORE PUSH1 0x64 ADD PUSH2 0x341 JUMP JUMPDEST PUSH1 0x5 SSTORE POP JUMP JUMPDEST PUSH1 0x0 PUSH32 0x0 PUSH1 0x1 PUSH1 0x1 PUSH1 0xA0 SHL SUB AND PUSH4 0x4000AEA0 PUSH32 0x0 DUP5 DUP7 PUSH1 0x0 PUSH1 0x40 MLOAD PUSH1 0x20 ADD PUSH2 0xF8A SWAP3 SWAP2 SWAP1 SWAP2 DUP3 MSTORE PUSH1 0x20 DUP3 ADD MSTORE PUSH1 0x40 ADD SWAP1 JUMP JUMPDEST PUSH1 0x40 MLOAD PUSH1 0x20 DUP2 DUP4 SUB SUB DUP2 MSTORE SWAP1 PUSH1 0x40 MSTORE PUSH1 0x40 MLOAD DUP5 PUSH4 0xFFFFFFFF AND PUSH1 0xE0 SHL DUP2 MSTORE PUSH1 0x4 ADD PUSH2 0xFB7 SWAP4 SWAP3 SWAP2 SWAP1 PUSH2 0x1348 JUMP JUMPDEST PUSH1 0x20 PUSH1 0x40 MLOAD DUP1 DUP4 SUB DUP2 PUSH1 0x0 DUP8 GAS CALL ISZERO DUP1 ISZERO PUSH2 0xFD6 JUMPI RETURNDATASIZE PUSH1 0x0 DUP1 RETURNDATACOPY RETURNDATASIZE PUSH1 0x0 REVERT JUMPDEST POP POP POP POP PUSH1 0x40 MLOAD RETURNDATASIZE PUSH1 0x1F NOT PUSH1 0x1F DUP3 ADD AND DUP3 ADD DUP1 PUSH1 0x40 MSTORE POP DUP2 ADD SWAP1 PUSH2 0xFFA SWAP2 SWAP1 PUSH2 0x13B4 JUMP JUMPDEST POP PUSH1 0x0 DUP4 DUP2 MSTORE PUSH1 0x1 PUSH1 0x20 DUP2 DUP2 MSTORE PUSH1 0x40 DUP1 DUP5 KECCAK256 SLOAD DUP2 MLOAD DUP1 DUP5 ADD DUP10 SWAP1 MSTORE DUP1 DUP4 ADD DUP7 SWAP1 MSTORE ADDRESS PUSH1 0x60 DUP3 ADD MSTORE PUSH1 0x80 DUP1 DUP3 ADD DUP4 SWAP1 MSTORE DUP4 MLOAD DUP1 DUP4 SUB SWAP1 SWAP2 ADD DUP2 MSTORE PUSH1 0xA0 SWAP1 SWAP2 ADD SWAP1 SWAP3 MSTORE DUP2 MLOAD SWAP2 DUP4 ADD SWAP2 SWAP1 SWAP2 KECCAK256 SWAP4 DUP8 SWAP1 MSTORE SWAP1 DUP3 SWAP1 MSTORE PUSH2 0x1055 SWAP2 PUSH2 0x1330 JUMP JUMPDEST PUSH1 0x0 DUP6 DUP2 MSTORE PUSH1 0x1 PUSH1 0x20 MSTORE PUSH1 0x40 SWAP1 KECCAK256 SSTORE PUSH2 0x591 DUP5 DUP3 PUSH1 0x40 DUP1 MLOAD PUSH1 0x20 DUP1 DUP3 ADD SWAP5 SWAP1 SWAP5 MSTORE DUP1 DUP3 ADD SWAP3 SWAP1 SWAP3 MSTORE DUP1 MLOAD DUP1 DUP4 SUB DUP3 ADD DUP2 MSTORE PUSH1 0x60 SWAP1 SWAP3 ADD SWAP1 MSTORE DUP1 MLOAD SWAP2 ADD KECCAK256 SWAP1 JUMP JUMPDEST POP DUP1 SLOAD PUSH1 0x0 DUP3 SSTORE PUSH1 0x3 MUL SWAP1 PUSH1 0x0 MSTORE PUSH1 0x20 PUSH1 0x0 KECCAK256 SWAP1 DUP2 ADD SWAP1 PUSH2 0xDF7 SWAP2 SWAP1 JUMPDEST DUP1 DUP3 GT ISZERO PUSH2 0x10DE JUMPI DUP1 SLOAD PUSH1 0x1 PUSH1 0x1 PUSH1 0xA0 SHL SUB NOT AND DUP2 SSTORE PUSH1 0x0 PUSH1 0x1 DUP3 ADD DUP2 SWAP1 SSTORE PUSH1 0x2 DUP3 ADD SSTORE PUSH1 0x3 ADD PUSH2 0x10B2 JUMP JUMPDEST POP SWAP1 JUMP JUMPDEST PUSH4 0x4E487B71 PUSH1 0xE0 SHL PUSH1 0x0 MSTORE PUSH1 0x21 PUSH1 0x4 MSTORE PUSH1 0x24 PUSH1 0x0 REVERT JUMPDEST PUSH1 0x20 DUP2 ADD PUSH1 0x3 DUP4 LT PUSH2 0x111A JUMPI PUSH4 0x4E487B71 PUSH1 0xE0 SHL PUSH1 0x0 MSTORE PUSH1 0x21 PUSH1 0x4 MSTORE PUSH1 0x24 PUSH1 0x0 REVERT JUMPDEST SWAP2 SWAP1 MSTORE SWAP1 JUMP JUMPDEST PUSH1 0x0 DUP1 PUSH1 0x40 DUP4 DUP6 SUB SLT ISZERO PUSH2 0x1133 JUMPI PUSH1 0x0 DUP1 REVERT JUMPDEST POP POP DUP1 CALLDATALOAD SWAP3 PUSH1 0x20 SWAP1 SWAP2 ADD CALLDATALOAD SWAP2 POP JUMP JUMPDEST PUSH1 0x0 PUSH1 0x20 DUP3 DUP5 SUB SLT ISZERO PUSH2 0x1154 JUMPI PUSH1 0x0 DUP1 REVERT JUMPDEST POP CALLDATALOAD SWAP2 SWAP1 POP JUMP JUMPDEST PUSH1 0x0 PUSH1 0x20 DUP3 DUP5 SUB SLT ISZERO PUSH2 0x116D JUMPI PUSH1 0x0 DUP1 REVERT JUMPDEST DUP2 CALLDATALOAD PUSH1 0x1 PUSH1 0x1 PUSH1 0xA0 SHL SUB DUP2 AND DUP2 EQ PUSH2 0x1184 JUMPI PUSH1 0x0 DUP1 REVERT JUMPDEST SWAP4 SWAP3 POP POP POP JUMP JUMPDEST PUSH1 0x20 DUP1 DUP3 MSTORE DUP2 DUP2 ADD MSTORE PUSH32 0x4F776E61626C653A2063616C6C6572206973206E6F7420746865206F776E6572 PUSH1 0x40 DUP3 ADD MSTORE PUSH1 0x60 ADD SWAP1 JUMP JUMPDEST PUSH1 0x20 DUP1 DUP3 MSTORE PUSH1 0x15 SWAP1 DUP3 ADD MSTORE PUSH21 0x626C617374206973206E6F7420656E646564212121 PUSH1 0x58 SHL PUSH1 0x40 DUP3 ADD MSTORE PUSH1 0x60 ADD SWAP1 JUMP JUMPDEST PUSH4 0x4E487B71 PUSH1 0xE0 SHL PUSH1 0x0 MSTORE PUSH1 0x32 PUSH1 0x4 MSTORE PUSH1 0x24 PUSH1 0x0 REVERT JUMPDEST PUSH4 0x4E487B71 PUSH1 0xE0 SHL PUSH1 0x0 MSTORE PUSH1 0x12 PUSH1 0x4 MSTORE PUSH1 0x24 PUSH1 0x0 REVERT JUMPDEST PUSH4 0x4E487B71 PUSH1 0xE0 SHL PUSH1 0x0 MSTORE PUSH1 0x11 PUSH1 0x4 MSTORE PUSH1 0x24 PUSH1 0x0 REVERT JUMPDEST PUSH1 0x0 DUP3 PUSH2 0x1240 JUMPI PUSH2 0x1240 PUSH2 0x1205 JUMP JUMPDEST POP DIV SWAP1 JUMP JUMPDEST PUSH1 0x0 DUP2 PUSH1 0x0 NOT DIV DUP4 GT DUP3 ISZERO ISZERO AND ISZERO PUSH2 0x125F JUMPI PUSH2 0x125F PUSH2 0x121B JUMP JUMPDEST POP MUL SWAP1 JUMP JUMPDEST PUSH1 0x0 PUSH1 0x1 DUP3 ADD PUSH2 0x1276 JUMPI PUSH2 0x1276 PUSH2 0x121B JUMP JUMPDEST POP PUSH1 0x1 ADD SWAP1 JUMP JUMPDEST DUP1 MLOAD PUSH10 0xFFFFFFFFFFFFFFFFFFFF DUP2 AND DUP2 EQ PUSH2 0x1297 JUMPI PUSH1 0x0 DUP1 REVERT JUMPDEST SWAP2 SWAP1 POP JUMP JUMPDEST PUSH1 0x0 DUP1 PUSH1 0x0 DUP1 PUSH1 0x0 PUSH1 0xA0 DUP7 DUP9 SUB SLT ISZERO PUSH2 0x12B4 JUMPI PUSH1 0x0 DUP1 REVERT JUMPDEST PUSH2 0x12BD DUP7 PUSH2 0x127D JUMP JUMPDEST SWAP5 POP PUSH1 0x20 DUP7 ADD MLOAD SWAP4 POP PUSH1 0x40 DUP7 ADD MLOAD SWAP3 POP PUSH1 0x60 DUP7 ADD MLOAD SWAP2 POP PUSH2 0x12E0 PUSH1 0x80 DUP8 ADD PUSH2 0x127D JUMP JUMPDEST SWAP1 POP SWAP3 SWAP6 POP SWAP3 SWAP6 SWAP1 SWAP4 POP JUMP JUMPDEST PUSH1 0x0 PUSH1 0x20 DUP3 DUP5 SUB SLT ISZERO PUSH2 0x12FE JUMPI PUSH1 0x0 DUP1 REVERT JUMPDEST POP MLOAD SWAP2 SWAP1 POP JUMP JUMPDEST PUSH1 0x0 DUP3 PUSH2 0x1314 JUMPI PUSH2 0x1314 PUSH2 0x1205 JUMP JUMPDEST POP MOD SWAP1 JUMP JUMPDEST PUSH1 0x0 DUP3 DUP3 LT ISZERO PUSH2 0x132B JUMPI PUSH2 0x132B PUSH2 0x121B JUMP JUMPDEST POP SUB SWAP1 JUMP JUMPDEST PUSH1 0x0 DUP3 NOT DUP3 GT ISZERO PUSH2 0x1343 JUMPI PUSH2 0x1343 PUSH2 0x121B JUMP JUMPDEST POP ADD SWAP1 JUMP JUMPDEST PUSH1 0x1 DUP1 PUSH1 0xA0 SHL SUB DUP5 AND DUP2 MSTORE PUSH1 0x0 PUSH1 0x20 DUP5 DUP2 DUP5 ADD MSTORE PUSH1 0x60 PUSH1 0x40 DUP5 ADD MSTORE DUP4 MLOAD DUP1 PUSH1 0x60 DUP6 ADD MSTORE PUSH1 0x0 JUMPDEST DUP2 DUP2 LT ISZERO PUSH2 0x138A JUMPI DUP6 DUP2 ADD DUP4 ADD MLOAD DUP6 DUP3 ADD PUSH1 0x80 ADD MSTORE DUP3 ADD PUSH2 0x136E JUMP JUMPDEST DUP2 DUP2 GT ISZERO PUSH2 0x139C JUMPI PUSH1 0x0 PUSH1 0x80 DUP4 DUP8 ADD ADD MSTORE JUMPDEST POP PUSH1 0x1F ADD PUSH1 0x1F NOT AND SWAP3 SWAP1 SWAP3 ADD PUSH1 0x80 ADD SWAP6 SWAP5 POP POP POP POP POP JUMP JUMPDEST PUSH1 0x0 PUSH1 0x20 DUP3 DUP5 SUB SLT ISZERO PUSH2 0x13C6 JUMPI PUSH1 0x0 DUP1 REVERT JUMPDEST DUP2 MLOAD DUP1 ISZERO ISZERO DUP2 EQ PUSH2 0x1184 JUMPI PUSH1 0x0 DUP1 REVERT INVALID LOG2 PUSH5 0x6970667358 0x22 SLT KECCAK256 SSTORE STATICCALL DUP12 0xE4 0x5D ADDRESS DUP16 MSIZE 0x4F EXTCODEHASH CREATE2 0x1E LOG2 0x1E 0x22 JUMPDEST EQ 0xC7 DUP8 PUSH11 0x3151F5DE569DD61548FDD5 0xE3 PUSH5 0x736F6C6343 STOP ADDMOD 0xE STOP CALLER ","sha1":"88e81ffc9e148ef91ba5f100ab3558bff99bc9d1","source":"// SPDX-License-Identifier: MIT\npragma solidity ^0.8.0;\n\nimport \"@chainlink/contracts/src/v0.8/interfaces/AggregatorV3Interface.sol\";\nimport \"@openzeppelin/contracts/access/Ownable.sol\";\nimport \"@chainlink/contracts/src/v0.8/VRFConsumerBase.sol\";\n\ncontract Blast is Ownable , VRFConsumerBase{\n    uint256 public entranceFeeAmount;\n    bytes32 public keyHash;\n    uint256 public fee;\n    uint256 public randomness;\n    uint256 public randomRatio; \n    uint256 public winnerCounter;\n    AggregatorV3Interface internal entranceFeeContract;\n    enum BLAST_STATUS{\n        OPEN,\n        CLOSE,\n        CALCULATING\n    }\n    BLAST_STATUS public blast_status;\n\n    constructor(address _entranceFeeAddress , address _vrfcoordinator , address _link , bytes32 _keyhash , uint256 _fee) public VRFConsumerBase(_vrfcoordinator , _link){\n        blast_status = BLAST_STATUS.CLOSE;\n        keyHash = _keyhash;\n        fee = _fee;\n        winnerCounter = 0;\n        entranceFeeAmount = 5 * (10**18);\n        entranceFeeContract = AggregatorV3Interface(_entranceFeeAddress);\n    }\n\n    struct info{\n        address payable account;\n        uint256 money;\n        uint256 ratio;\n    }\n\n    info[] public players;\n\n\n    function entranceFee() public view returns(uint256){\n        ( ,int price, , , ) = entranceFeeContract.latestRoundData();\n        uint256 adjustedPrice = uint256(price) * (10**10); //18 decimal,'price' 8 decimal dare\n        uint256 costToEnter = entranceFeeAmount * (10**18) / adjustedPrice; //vooroodi be wei\n        return costToEnter;\n    }\n    function enter(uint256 _ratio) payable public{\n        require(blast_status == BLAST_STATUS.OPEN);\n        require(msg.value >= entranceFee() , \"not enough money for blast!!!\");\n        require(_ratio > 100 && _ratio <= 1000 , \"incorrect ratio!!!\");\n        players.push(info(payable(msg.sender) , msg.value , _ratio));\n    }\n    function start() public onlyOwner{\n        require(blast_status == BLAST_STATUS.CLOSE);\n        blast_status = BLAST_STATUS.OPEN;\n    }\n\n    function finish() public onlyOwner returns(bytes32 requestId){\n        require(LINK.balanceOf(address(this)) >= fee, \"Not enough LINK - fill contract with faucet\");\n        blast_status = BLAST_STATUS.CALCULATING;\n        return requestRandomness(keyHash, fee);\n    }\n\n    function fulfillRandomness(bytes32 _requestId, uint256 _randomness) internal override{\n        require(blast_status == BLAST_STATUS.CALCULATING , \"blast is not ended!!!\");\n        require(_randomness > 0 , \"there is no random number yet!!!\");\n        randomness = _randomness;\n    }\n\n    function getRatio() public onlyOwner{\n        require(blast_status == BLAST_STATUS.CALCULATING, \"blast is not ended!!!\");\n        uint256 modulus = randomness % 1000;\n        uint256 top;\n        uint256 down;\n        if (modulus <= 19 && modulus >= 0 ){\n            randomRatio = 0;\n        }\n        else if (modulus <= 569 && modulus >= 20 ){\n            top = 570;\n            down = 20;\n            randomRatio = (modulus-down)*100/(top-down) + 100;\n        }\n        else if (modulus <= 779 && modulus >= 570 ){\n            top = 780;\n            down = 570;\n            randomRatio = (modulus-down)*100/(top-down) + 200;\n        }\n        else if (modulus >= 780 && modulus <= 879 ){\n            top = 880;\n            down = 780;\n            randomRatio = (modulus-down)*100/(top-down) + 300;\n        }\n        else if (modulus >= 880 && modulus <= 929 ){\n            top = 930;\n            down = 880;\n            randomRatio = (modulus-down)*100/(top-down) + 400;\n        }\n        else if (modulus >= 930 && modulus <= 959 ){\n            top = 960;\n            down = 930;\n            randomRatio = (modulus-down)*100/(top-down) + 500;\n        }\n        else if (modulus >= 960 && modulus <= 979 ){\n            top = 570;\n            down = 20;\n            randomRatio = (modulus-down)*100/(top-down) + 600;\n        }\n        else if (modulus >= 980 && modulus <= 989 ){\n            top = 990;\n            down = 980;\n            randomRatio = (modulus-down)*100/(top-down) + 700;\n        }\n        else if (modulus >= 990 && modulus <= 994 ){\n            top = 995;\n            down = 990;\n            randomRatio = (modulus-down)*100/(top-down) + 800;\n        }\n        else if (modulus >= 995 && modulus <= 998 ){\n            top = 999;\n            down = 995;\n            randomRatio = (modulus-down)*100/(top-down) + 900;\n        }\n        else if (modulus == 999 ){\n            randomRatio = 10;\n        }\n    }\n\n    function blastPayment() public onlyOwner{\n        require(blast_status == BLAST_STATUS.CALCULATING, \"blast is not ended!!!\");\n        for (uint256 i=0 ; i < players.length ; i++){\n            if (randomRatio > 0){\n                if (players[i].ratio <= randomRatio){\n                    uint256 playerValue = players[i].money / 100 * players[i].ratio;\n                    players[i].account.transfer(playerValue);\n                    winnerCounter++;\n                }\n            }\n        }\n        delete players;\n        blast_status = BLAST_STATUS.CLOSE;\n    }\n}","sourcePath":"contracts/Blast.sol","type":"contract","deployment":{"address":"0x6C5859983B550162Fb4c67Cb7B518A10388799fe","chainid":"4","blockHeight":11189774}}