{"abi":[{"inputs":[{"internalType":"address","name":"_entranceFeeAddress","type":"address"},{"internalType":"address","name":"_vrfcoordinator","type":"address"},{"internalType":"address","name":"_link","type":"address"},{"internalType":"bytes32","name":"_keyhash","type":"bytes32"},{"internalType":"uint256","name":"_fee","type":"uint256"}],"stateMutability":"nonpayable","type":"constructor","name":"constructor"},{"anonymous":false,"inputs":[{"indexed":true,"internalType":"address","name":"previousOwner","type":"address"},{"indexed":true,"internalType":"address","name":"newOwner","type":"address"}],"name":"OwnershipTransferred","type":"event"},{"anonymous":false,"inputs":[{"indexed":false,"internalType":"bytes32","name":"requestId","type":"bytes32"}],"name":"requestIdRandomness","type":"event"},{"inputs":[],"name":"blastPayment","outputs":[],"stateMutability":"nonpayable","type":"function"},{"inputs":[],"name":"blast_status","outputs":[{"internalType":"enum Blast.BLAST_STATUS","name":"","type":"uint8"}],"stateMutability":"view","type":"function"},{"inputs":[],"name":"charge","outputs":[],"stateMutability":"payable","type":"function"},{"inputs":[{"internalType":"uint256","name":"_ratio","type":"uint256"}],"name":"enter","outputs":[],"stateMutability":"payable","type":"function"},{"inputs":[],"name":"entranceFee","outputs":[{"internalType":"uint256","name":"","type":"uint256"}],"stateMutability":"view","type":"function"},{"inputs":[],"name":"entranceFeeAmount","outputs":[{"internalType":"uint256","name":"","type":"uint256"}],"stateMutability":"view","type":"function"},{"inputs":[],"name":"fee","outputs":[{"internalType":"uint256","name":"","type":"uint256"}],"stateMutability":"view","type":"function"},{"inputs":[],"name":"finish","outputs":[{"internalType":"bytes32","name":"requestId","type":"bytes32"}],"stateMutability":"nonpayable","type":"function"},{"inputs":[],"name":"getRatio","outputs":[],"stateMutability":"nonpayable","type":"function"},{"inputs":[],"name":"keyHash","outputs":[{"internalType":"bytes32","name":"","type":"bytes32"}],"stateMutability":"view","type":"function"},{"inputs":[],"name":"owner","outputs":[{"internalType":"address","name":"","type":"address"}],"stateMutability":"view","type":"function"},{"inputs":[{"internalType":"uint256","name":"","type":"uint256"}],"name":"players","outputs":[{"internalType":"address payable","name":"account","type":"address"},{"internalType":"uint256","name":"money","type":"uint256"},{"internalType":"uint256","name":"ratio","type":"uint256"}],"stateMutability":"view","type":"function"},{"inputs":[],"name":"randomRatio","outputs":[{"internalType":"uint256","name":"","type":"uint256"}],"stateMutability":"view","type":"function"},{"inputs":[],"name":"randomness","outputs":[{"internalType":"uint256","name":"","type":"uint256"}],"stateMutability":"view","type":"function"},{"inputs":[{"internalType":"bytes32","name":"requestId","type":"bytes32"},{"internalType":"uint256","name":"randomness","type":"uint256"}],"name":"rawFulfillRandomness","outputs":[],"stateMutability":"nonpayable","type":"function"},{"inputs":[],"name":"renounceOwnership","outputs":[],"stateMutability":"nonpayable","type":"function"},{"inputs":[],"name":"start","outputs":[],"stateMutability":"nonpayable","type":"function"},{"inputs":[{"internalType":"address","name":"newOwner","type":"address"}],"name":"transferOwnership","outputs":[],"stateMutability":"nonpayable","type":"function"},{"inputs":[],"name":"winnerCounter","outputs":[{"internalType":"uint256","name":"","type":"uint256"}],"stateMutability":"view","type":"function"}],"bytecode":"60c06040523480156200001157600080fd5b506040516200166438038062001664833981016040819052620000349162000105565b8383620000413362000098565b6001600160a01b0391821660a0528116608052600880546003949094556004929092556000600755674563918244f40000600255949094166001600160a81b031990911617600160a01b1790925550620001629050565b600080546001600160a01b038381166001600160a01b0319831681178455604051919092169283917f8be0079c531659141344cd1fd0a4f28419497f9722a3daafe3b4186f6b6457e09190a35050565b80516001600160a01b03811681146200010057600080fd5b919050565b600080600080600060a086880312156200011e57600080fd5b6200012986620000e8565b94506200013960208701620000e8565b93506200014960408701620000e8565b6060870151608090970151959894975095949392505050565b60805160a0516114ce620001966000396000818161069c015261100f01526000818161096a0152610fe001526114ce6000f3fe6080604052600436106101145760003560e01c80638da5cb5b116100a0578063d56b288911610064578063d56b288914610285578063ddca3f431461029a578063ec1ebd7a146102b0578063f2fde38b146102c5578063f71d96cb146102e557600080fd5b80638da5cb5b146101ff57806394985ddd14610227578063a1e0c2c914610247578063a59f3e0c1461025d578063be9a65551461027057600080fd5b806355161913116100e757806355161913146101a15780635a88376e146101a957806361728f39146101bf578063649677e1146101d5578063715018a6146101ea57600080fd5b80630e8c66fe146101195780631b06b7a7146101505780632c41088714610167578063360131891461018b575b600080fd5b34801561012557600080fd5b5060085461013a90600160a01b900460ff1681565b60405161014791906111ba565b60405180910390f35b34801561015c57600080fd5b5061016561032a565b005b34801561017357600080fd5b5061017d60025481565b604051908152602001610147565b34801561019757600080fd5b5061017d60055481565b61016561052c565b3480156101b557600080fd5b5061017d60065481565b3480156101cb57600080fd5b5061017d60035481565b3480156101e157600080fd5b5061017d61059d565b3480156101f657600080fd5b5061016561065d565b34801561020b57600080fd5b506000546040516001600160a01b039091168152602001610147565b34801561023357600080fd5b506101656102423660046111e2565b610691565b34801561025357600080fd5b5061017d60075481565b61016561026b366004611204565b610717565b34801561027c57600080fd5b506101656108ad565b34801561029157600080fd5b5061017d61091b565b3480156102a657600080fd5b5061017d60045481565b3480156102bc57600080fd5b50610165610a5f565b3480156102d157600080fd5b506101656102e036600461121d565b610e21565b3480156102f157600080fd5b50610305610300366004611204565b610ebc565b604080516001600160a01b039094168452602084019290925290820152606001610147565b6000546001600160a01b0316331461035d5760405162461bcd60e51b81526004016103549061124d565b60405180910390fd5b6002600854600160a01b900460ff16600281111561037d5761037d6111a4565b1461039a5760405162461bcd60e51b815260040161035490611282565b60005b60095481101561050257600654156104f0576000600982815481106103c4576103c46112b1565b906000526020600020906003020160020154905060065481116104ee576000600983815481106103f6576103f66112b1565b90600052602060002090600302016002015460646009858154811061041d5761041d6112b1565b90600052602060002090600302016001015461043991906112f3565b6104439190611307565b905060006009848154811061045a5761045a6112b1565b600091825260208220600390910201546040516001600160a01b039091169250829084156108fc0290859084818181858888f193505050509050806104d55760405162461bcd60e51b815260206004820152601160248201527073656e64696e67204661696c656421212160781b6044820152606401610354565b600780549060006104e583611326565b91905055505050505b505b806104fa81611326565b91505061039d565b5061050f60096000611157565b600880546001919060ff60a01b1916600160a01b835b0217905550565b6000546001600160a01b031633146105565760405162461bcd60e51b81526004016103549061124d565b6000341161059b5760405162461bcd60e51b8152602060048201526012602482015271697473206e6f74206368617267656421212160701b6044820152606401610354565b565b600080600860009054906101000a90046001600160a01b03166001600160a01b031663feaf968c6040518163ffffffff1660e01b815260040160a060405180830381865afa1580156105f3573d6000803e3d6000fd5b505050506040513d601f19601f82011682018060405250810190610617919061135e565b5050509150506000816402540be4006106309190611307565b9050600081600254670de0b6b3a764000061064b9190611307565b61065591906112f3565b949350505050565b6000546001600160a01b031633146106875760405162461bcd60e51b81526004016103549061124d565b61059b6000610ef9565b336001600160a01b037f000000000000000000000000000000000000000000000000000000000000000016146107095760405162461bcd60e51b815260206004820152601f60248201527f4f6e6c7920565246436f6f7264696e61746f722063616e2066756c66696c6c006044820152606401610354565b6107138282610f49565b5050565b6000600854600160a01b900460ff166002811115610737576107376111a4565b1461074157600080fd5b61074961059d565b3410156107985760405162461bcd60e51b815260206004820152601d60248201527f6e6f7420656e6f756768206d6f6e657920666f7220626c6173742121210000006044820152606401610354565b6064811180156107aa57506103e88111155b6107eb5760405162461bcd60e51b8152602060048201526012602482015271696e636f727265637420726174696f21212160701b6044820152606401610354565b6040805160608101825233815234602082019081529181019283526009805460018101825560009190915290517f6e1540171b6c0c960b71a7020d9f60077f6af931a8bbf590da0223dacf75c7af600390920291820180546001600160a01b0319166001600160a01b0390921691909117905590517f6e1540171b6c0c960b71a7020d9f60077f6af931a8bbf590da0223dacf75c7b082015590517f6e1540171b6c0c960b71a7020d9f60077f6af931a8bbf590da0223dacf75c7b190910155565b6000546001600160a01b031633146108d75760405162461bcd60e51b81526004016103549061124d565b6001600854600160a01b900460ff1660028111156108f7576108f76111a4565b1461090157600080fd5b600880546000919060ff60a01b1916600160a01b83610525565b600080546001600160a01b031633146109465760405162461bcd60e51b81526004016103549061124d565b600480546040516370a0823160e01b81523092810192909252906001600160a01b037f000000000000000000000000000000000000000000000000000000000000000016906370a0823190602401602060405180830381865afa1580156109b1573d6000803e3d6000fd5b505050506040513d601f19601f820116820180604052508101906109d591906113ae565b1015610a375760405162461bcd60e51b815260206004820152602b60248201527f4e6f7420656e6f756768204c494e4b202d2066696c6c20636f6e74726163742060448201526a1dda5d1a0819985d58d95d60aa1b6064820152608401610354565b6008805460ff60a01b1916600160a11b179055600354600454610a5a9190610fdc565b905090565b6000546001600160a01b03163314610a895760405162461bcd60e51b81526004016103549061124d565b6002600854600160a01b900460ff166002811115610aa957610aa96111a4565b14610ac65760405162461bcd60e51b815260040161035490611282565b60006103e8600554610ad891906113c7565b905060008060138311158015610aec575060015b15610afb576000600655505050565b6102398311158015610b0e575060148310155b15610b57575061023a90506014610b2581836113db565b610b2f82856113db565b610b3a906064611307565b610b4491906112f3565b610b4f9060646113f2565b600655505050565b61030b8311158015610b6b575061023a8310155b15610bad575061030c905061023a610b8381836113db565b610b8d82856113db565b610b98906064611307565b610ba291906112f3565b610b4f9060c86113f2565b61030c8310158015610bc1575061036f8311155b15610c045750610370905061030c610bd981836113db565b610be382856113db565b610bee906064611307565b610bf891906112f3565b610b4f9061012c6113f2565b6103708310158015610c1857506103a18311155b15610c5b57506103a29050610370610c3081836113db565b610c3a82856113db565b610c45906064611307565b610c4f91906112f3565b610b4f906101906113f2565b6103a28310158015610c6f57506103bf8311155b15610cb257506103c090506103a2610c8781836113db565b610c9182856113db565b610c9c906064611307565b610ca691906112f3565b610b4f906101f46113f2565b6103c08310158015610cc657506103d38311155b15610d08575061023a90506014610cdd81836113db565b610ce782856113db565b610cf2906064611307565b610cfc91906112f3565b610b4f906102586113f2565b6103d48310158015610d1c57506103dd8311155b15610d5f57506103de90506103d4610d3481836113db565b610d3e82856113db565b610d49906064611307565b610d5391906112f3565b610b4f906102bc6113f2565b6103de8310158015610d7357506103e28311155b15610db657506103e390506103de610d8b81836113db565b610d9582856113db565b610da0906064611307565b610daa91906112f3565b610b4f906103206113f2565b6103e38310158015610dca57506103e68311155b15610e0d57506103e790506103e3610de281836113db565b610dec82856113db565b610df7906064611307565b610e0191906112f3565b610b4f906103846113f2565b826103e703610e1c57600a6006555b505050565b6000546001600160a01b03163314610e4b5760405162461bcd60e51b81526004016103549061124d565b6001600160a01b038116610eb05760405162461bcd60e51b815260206004820152602660248201527f4f776e61626c653a206e6577206f776e657220697320746865207a65726f206160448201526564647265737360d01b6064820152608401610354565b610eb981610ef9565b50565b60098181548110610ecc57600080fd5b60009182526020909120600390910201805460018201546002909201546001600160a01b03909116925083565b600080546001600160a01b038381166001600160a01b0319831681178455604051919092169283917f8be0079c531659141344cd1fd0a4f28419497f9722a3daafe3b4186f6b6457e09190a35050565b6002600854600160a01b900460ff166002811115610f6957610f696111a4565b14610f865760405162461bcd60e51b815260040161035490611282565b60008111610fd65760405162461bcd60e51b815260206004820181905260248201527f7468657265206973206e6f2072616e646f6d206e756d626572207965742121216044820152606401610354565b60055550565b60007f00000000000000000000000000000000000000000000000000000000000000006001600160a01b0316634000aea07f00000000000000000000000000000000000000000000000000000000000000008486600060405160200161104c929190918252602082015260400190565b6040516020818303038152906040526040518463ffffffff1660e01b81526004016110799392919061140a565b6020604051808303816000875af1158015611098573d6000803e3d6000fd5b505050506040513d601f19601f820116820180604052508101906110bc9190611476565b50600083815260016020818152604080842054815180840189905280830186905230606082015260808082018390528351808303909101815260a09091019092528151918301919091209387905290829052611117916113f2565b6000858152600160205260409020556106558482604080516020808201949094528082019290925280518083038201815260609092019052805191012090565b5080546000825560030290600052602060002090810190610eb991905b808211156111a05780546001600160a01b03191681556000600182018190556002820155600301611174565b5090565b634e487b7160e01b600052602160045260246000fd5b60208101600383106111dc57634e487b7160e01b600052602160045260246000fd5b91905290565b600080604083850312156111f557600080fd5b50508035926020909101359150565b60006020828403121561121657600080fd5b5035919050565b60006020828403121561122f57600080fd5b81356001600160a01b038116811461124657600080fd5b9392505050565b6020808252818101527f4f776e61626c653a2063616c6c6572206973206e6f7420746865206f776e6572604082015260600190565b602080825260159082015274626c617374206973206e6f7420656e64656421212160581b604082015260600190565b634e487b7160e01b600052603260045260246000fd5b634e487b7160e01b600052601260045260246000fd5b634e487b7160e01b600052601160045260246000fd5b600082611302576113026112c7565b500490565b6000816000190483118215151615611321576113216112dd565b500290565b600060018201611338576113386112dd565b5060010190565b805169ffffffffffffffffffff8116811461135957600080fd5b919050565b600080600080600060a0868803121561137657600080fd5b61137f8661133f565b94506020860151935060408601519250606086015191506113a26080870161133f565b90509295509295909350565b6000602082840312156113c057600080fd5b5051919050565b6000826113d6576113d66112c7565b500690565b6000828210156113ed576113ed6112dd565b500390565b60008219821115611405576114056112dd565b500190565b60018060a01b038416815260006020848184015260606040840152835180606085015260005b8181101561144c57858101830151858201608001528201611430565b8181111561145e576000608083870101525b50601f01601f19169290920160800195945050505050565b60006020828403121561148857600080fd5b8151801515811461124657600080fdfea2646970667358221220c4ebfb1ca5a2dee6c031172fbced1dc1546f26ba8be2e29a3705799797bc6c8964736f6c634300080e0033","bytecodeSha1":"213905908abdb18d22effb3686224675a1b122b6","compiler":{"evm_version":"istanbul","optimizer":{"enabled":true,"runs":200},"version":"0.8.14+commit.80d49f37"},"contractName":"Blast","language":"Solidity","natspec":{"kind":"dev","methods":{"owner()":{"details":"Returns the address of the current owner."},"renounceOwnership()":{"details":"Leaves the contract without owner. It will not be possible to call `onlyOwner` functions anymore. Can only be called by the current owner. NOTE: Renouncing ownership will leave the contract without an owner, thereby removing any functionality that is only available to the owner."},"transferOwnership(address)":{"details":"Transfers ownership of the contract to a new account (`newOwner`). Can only be called by the current owner."}},"version":1},"opcodes":"PUSH1 0x80 PUSH1 0x40 MSTORE PUSH1 0x4 CALLDATASIZE LT PUSH2 0x114 JUMPI PUSH1 0x0 CALLDATALOAD PUSH1 0xE0 SHR DUP1 PUSH4 0x8DA5CB5B GT PUSH2 0xA0 JUMPI DUP1 PUSH4 0xD56B2889 GT PUSH2 0x64 JUMPI DUP1 PUSH4 0xD56B2889 EQ PUSH2 0x285 JUMPI DUP1 PUSH4 0xDDCA3F43 EQ PUSH2 0x29A JUMPI DUP1 PUSH4 0xEC1EBD7A EQ PUSH2 0x2B0 JUMPI DUP1 PUSH4 0xF2FDE38B EQ PUSH2 0x2C5 JUMPI DUP1 PUSH4 0xF71D96CB EQ PUSH2 0x2E5 JUMPI PUSH1 0x0 DUP1 REVERT JUMPDEST DUP1 PUSH4 0x8DA5CB5B EQ PUSH2 0x1FF JUMPI DUP1 PUSH4 0x94985DDD EQ PUSH2 0x227 JUMPI DUP1 PUSH4 0xA1E0C2C9 EQ PUSH2 0x247 JUMPI DUP1 PUSH4 0xA59F3E0C EQ PUSH2 0x25D JUMPI DUP1 PUSH4 0xBE9A6555 EQ PUSH2 0x270 JUMPI PUSH1 0x0 DUP1 REVERT JUMPDEST DUP1 PUSH4 0x55161913 GT PUSH2 0xE7 JUMPI DUP1 PUSH4 0x55161913 EQ PUSH2 0x1A1 JUMPI DUP1 PUSH4 0x5A88376E EQ PUSH2 0x1A9 JUMPI DUP1 PUSH4 0x61728F39 EQ PUSH2 0x1BF JUMPI DUP1 PUSH4 0x649677E1 EQ PUSH2 0x1D5 JUMPI DUP1 PUSH4 0x715018A6 EQ PUSH2 0x1EA JUMPI PUSH1 0x0 DUP1 REVERT JUMPDEST DUP1 PUSH4 0xE8C66FE EQ PUSH2 0x119 JUMPI DUP1 PUSH4 0x1B06B7A7 EQ PUSH2 0x150 JUMPI DUP1 PUSH4 0x2C410887 EQ PUSH2 0x167 JUMPI DUP1 PUSH4 0x36013189 EQ PUSH2 0x18B JUMPI JUMPDEST PUSH1 0x0 DUP1 REVERT JUMPDEST CALLVALUE DUP1 ISZERO PUSH2 0x125 JUMPI PUSH1 0x0 DUP1 REVERT JUMPDEST POP PUSH1 0x8 SLOAD PUSH2 0x13A SWAP1 PUSH1 0x1 PUSH1 0xA0 SHL SWAP1 DIV PUSH1 0xFF AND DUP2 JUMP JUMPDEST PUSH1 0x40 MLOAD PUSH2 0x147 SWAP2 SWAP1 PUSH2 0x11BA JUMP JUMPDEST PUSH1 0x40 MLOAD DUP1 SWAP2 SUB SWAP1 RETURN JUMPDEST CALLVALUE DUP1 ISZERO PUSH2 0x15C JUMPI PUSH1 0x0 DUP1 REVERT JUMPDEST POP PUSH2 0x165 PUSH2 0x32A JUMP JUMPDEST STOP JUMPDEST CALLVALUE DUP1 ISZERO PUSH2 0x173 JUMPI PUSH1 0x0 DUP1 REVERT JUMPDEST POP PUSH2 0x17D PUSH1 0x2 SLOAD DUP2 JUMP JUMPDEST PUSH1 0x40 MLOAD SWAP1 DUP2 MSTORE PUSH1 0x20 ADD PUSH2 0x147 JUMP JUMPDEST CALLVALUE DUP1 ISZERO PUSH2 0x197 JUMPI PUSH1 0x0 DUP1 REVERT JUMPDEST POP PUSH2 0x17D PUSH1 0x5 SLOAD DUP2 JUMP JUMPDEST PUSH2 0x165 PUSH2 0x52C JUMP JUMPDEST CALLVALUE DUP1 ISZERO PUSH2 0x1B5 JUMPI PUSH1 0x0 DUP1 REVERT JUMPDEST POP PUSH2 0x17D PUSH1 0x6 SLOAD DUP2 JUMP JUMPDEST CALLVALUE DUP1 ISZERO PUSH2 0x1CB JUMPI PUSH1 0x0 DUP1 REVERT JUMPDEST POP PUSH2 0x17D PUSH1 0x3 SLOAD DUP2 JUMP JUMPDEST CALLVALUE DUP1 ISZERO PUSH2 0x1E1 JUMPI PUSH1 0x0 DUP1 REVERT JUMPDEST POP PUSH2 0x17D PUSH2 0x59D JUMP JUMPDEST CALLVALUE DUP1 ISZERO PUSH2 0x1F6 JUMPI PUSH1 0x0 DUP1 REVERT JUMPDEST POP PUSH2 0x165 PUSH2 0x65D JUMP JUMPDEST CALLVALUE DUP1 ISZERO PUSH2 0x20B JUMPI PUSH1 0x0 DUP1 REVERT JUMPDEST POP PUSH1 0x0 SLOAD PUSH1 0x40 MLOAD PUSH1 0x1 PUSH1 0x1 PUSH1 0xA0 SHL SUB SWAP1 SWAP2 AND DUP2 MSTORE PUSH1 0x20 ADD PUSH2 0x147 JUMP JUMPDEST CALLVALUE DUP1 ISZERO PUSH2 0x233 JUMPI PUSH1 0x0 DUP1 REVERT JUMPDEST POP PUSH2 0x165 PUSH2 0x242 CALLDATASIZE PUSH1 0x4 PUSH2 0x11E2 JUMP JUMPDEST PUSH2 0x691 JUMP JUMPDEST CALLVALUE DUP1 ISZERO PUSH2 0x253 JUMPI PUSH1 0x0 DUP1 REVERT JUMPDEST POP PUSH2 0x17D PUSH1 0x7 SLOAD DUP2 JUMP JUMPDEST PUSH2 0x165 PUSH2 0x26B CALLDATASIZE PUSH1 0x4 PUSH2 0x1204 JUMP JUMPDEST PUSH2 0x717 JUMP JUMPDEST CALLVALUE DUP1 ISZERO PUSH2 0x27C JUMPI PUSH1 0x0 DUP1 REVERT JUMPDEST POP PUSH2 0x165 PUSH2 0x8AD JUMP JUMPDEST CALLVALUE DUP1 ISZERO PUSH2 0x291 JUMPI PUSH1 0x0 DUP1 REVERT JUMPDEST POP PUSH2 0x17D PUSH2 0x91B JUMP JUMPDEST CALLVALUE DUP1 ISZERO PUSH2 0x2A6 JUMPI PUSH1 0x0 DUP1 REVERT JUMPDEST POP PUSH2 0x17D PUSH1 0x4 SLOAD DUP2 JUMP JUMPDEST CALLVALUE DUP1 ISZERO PUSH2 0x2BC JUMPI PUSH1 0x0 DUP1 REVERT JUMPDEST POP PUSH2 0x165 PUSH2 0xA5F JUMP JUMPDEST CALLVALUE DUP1 ISZERO PUSH2 0x2D1 JUMPI PUSH1 0x0 DUP1 REVERT JUMPDEST POP PUSH2 0x165 PUSH2 0x2E0 CALLDATASIZE PUSH1 0x4 PUSH2 0x121D JUMP JUMPDEST PUSH2 0xE21 JUMP JUMPDEST CALLVALUE DUP1 ISZERO PUSH2 0x2F1 JUMPI PUSH1 0x0 DUP1 REVERT JUMPDEST POP PUSH2 0x305 PUSH2 0x300 CALLDATASIZE PUSH1 0x4 PUSH2 0x1204 JUMP JUMPDEST PUSH2 0xEBC JUMP JUMPDEST PUSH1 0x40 DUP1 MLOAD PUSH1 0x1 PUSH1 0x1 PUSH1 0xA0 SHL SUB SWAP1 SWAP5 AND DUP5 MSTORE PUSH1 0x20 DUP5 ADD SWAP3 SWAP1 SWAP3 MSTORE SWAP1 DUP3 ADD MSTORE PUSH1 0x60 ADD PUSH2 0x147 JUMP JUMPDEST PUSH1 0x0 SLOAD PUSH1 0x1 PUSH1 0x1 PUSH1 0xA0 SHL SUB AND CALLER EQ PUSH2 0x35D JUMPI PUSH1 0x40 MLOAD PUSH3 0x461BCD PUSH1 0xE5 SHL DUP2 MSTORE PUSH1 0x4 ADD PUSH2 0x354 SWAP1 PUSH2 0x124D JUMP JUMPDEST PUSH1 0x40 MLOAD DUP1 SWAP2 SUB SWAP1 REVERT JUMPDEST PUSH1 0x2 PUSH1 0x8 SLOAD PUSH1 0x1 PUSH1 0xA0 SHL SWAP1 DIV PUSH1 0xFF AND PUSH1 0x2 DUP2 GT ISZERO PUSH2 0x37D JUMPI PUSH2 0x37D PUSH2 0x11A4 JUMP JUMPDEST EQ PUSH2 0x39A JUMPI PUSH1 0x40 MLOAD PUSH3 0x461BCD PUSH1 0xE5 SHL DUP2 MSTORE PUSH1 0x4 ADD PUSH2 0x354 SWAP1 PUSH2 0x1282 JUMP JUMPDEST PUSH1 0x0 JUMPDEST PUSH1 0x9 SLOAD DUP2 LT ISZERO PUSH2 0x502 JUMPI PUSH1 0x6 SLOAD ISZERO PUSH2 0x4F0 JUMPI PUSH1 0x0 PUSH1 0x9 DUP3 DUP2 SLOAD DUP2 LT PUSH2 0x3C4 JUMPI PUSH2 0x3C4 PUSH2 0x12B1 JUMP JUMPDEST SWAP1 PUSH1 0x0 MSTORE PUSH1 0x20 PUSH1 0x0 KECCAK256 SWAP1 PUSH1 0x3 MUL ADD PUSH1 0x2 ADD SLOAD SWAP1 POP PUSH1 0x6 SLOAD DUP2 GT PUSH2 0x4EE JUMPI PUSH1 0x0 PUSH1 0x9 DUP4 DUP2 SLOAD DUP2 LT PUSH2 0x3F6 JUMPI PUSH2 0x3F6 PUSH2 0x12B1 JUMP JUMPDEST SWAP1 PUSH1 0x0 MSTORE PUSH1 0x20 PUSH1 0x0 KECCAK256 SWAP1 PUSH1 0x3 MUL ADD PUSH1 0x2 ADD SLOAD PUSH1 0x64 PUSH1 0x9 DUP6 DUP2 SLOAD DUP2 LT PUSH2 0x41D JUMPI PUSH2 0x41D PUSH2 0x12B1 JUMP JUMPDEST SWAP1 PUSH1 0x0 MSTORE PUSH1 0x20 PUSH1 0x0 KECCAK256 SWAP1 PUSH1 0x3 MUL ADD PUSH1 0x1 ADD SLOAD PUSH2 0x439 SWAP2 SWAP1 PUSH2 0x12F3 JUMP JUMPDEST PUSH2 0x443 SWAP2 SWAP1 PUSH2 0x1307 JUMP JUMPDEST SWAP1 POP PUSH1 0x0 PUSH1 0x9 DUP5 DUP2 SLOAD DUP2 LT PUSH2 0x45A JUMPI PUSH2 0x45A PUSH2 0x12B1 JUMP JUMPDEST PUSH1 0x0 SWAP2 DUP3 MSTORE PUSH1 0x20 DUP3 KECCAK256 PUSH1 0x3 SWAP1 SWAP2 MUL ADD SLOAD PUSH1 0x40 MLOAD PUSH1 0x1 PUSH1 0x1 PUSH1 0xA0 SHL SUB SWAP1 SWAP2 AND SWAP3 POP DUP3 SWAP1 DUP5 ISZERO PUSH2 0x8FC MUL SWAP1 DUP6 SWAP1 DUP5 DUP2 DUP2 DUP2 DUP6 DUP9 DUP9 CALL SWAP4 POP POP POP POP SWAP1 POP DUP1 PUSH2 0x4D5 JUMPI PUSH1 0x40 MLOAD PUSH3 0x461BCD PUSH1 0xE5 SHL DUP2 MSTORE PUSH1 0x20 PUSH1 0x4 DUP3 ADD MSTORE PUSH1 0x11 PUSH1 0x24 DUP3 ADD MSTORE PUSH17 0x73656E64696E67204661696C6564212121 PUSH1 0x78 SHL PUSH1 0x44 DUP3 ADD MSTORE PUSH1 0x64 ADD PUSH2 0x354 JUMP JUMPDEST PUSH1 0x7 DUP1 SLOAD SWAP1 PUSH1 0x0 PUSH2 0x4E5 DUP4 PUSH2 0x1326 JUMP JUMPDEST SWAP2 SWAP1 POP SSTORE POP POP POP POP JUMPDEST POP JUMPDEST DUP1 PUSH2 0x4FA DUP2 PUSH2 0x1326 JUMP JUMPDEST SWAP2 POP POP PUSH2 0x39D JUMP JUMPDEST POP PUSH2 0x50F PUSH1 0x9 PUSH1 0x0 PUSH2 0x1157 JUMP JUMPDEST PUSH1 0x8 DUP1 SLOAD PUSH1 0x1 SWAP2 SWAP1 PUSH1 0xFF PUSH1 0xA0 SHL NOT AND PUSH1 0x1 PUSH1 0xA0 SHL DUP4 JUMPDEST MUL OR SWAP1 SSTORE POP JUMP JUMPDEST PUSH1 0x0 SLOAD PUSH1 0x1 PUSH1 0x1 PUSH1 0xA0 SHL SUB AND CALLER EQ PUSH2 0x556 JUMPI PUSH1 0x40 MLOAD PUSH3 0x461BCD PUSH1 0xE5 SHL DUP2 MSTORE PUSH1 0x4 ADD PUSH2 0x354 SWAP1 PUSH2 0x124D JUMP JUMPDEST PUSH1 0x0 CALLVALUE GT PUSH2 0x59B JUMPI PUSH1 0x40 MLOAD PUSH3 0x461BCD PUSH1 0xE5 SHL DUP2 MSTORE PUSH1 0x20 PUSH1 0x4 DUP3 ADD MSTORE PUSH1 0x12 PUSH1 0x24 DUP3 ADD MSTORE PUSH18 0x697473206E6F742063686172676564212121 PUSH1 0x70 SHL PUSH1 0x44 DUP3 ADD MSTORE PUSH1 0x64 ADD PUSH2 0x354 JUMP JUMPDEST JUMP JUMPDEST PUSH1 0x0 DUP1 PUSH1 0x8 PUSH1 0x0 SWAP1 SLOAD SWAP1 PUSH2 0x100 EXP SWAP1 DIV PUSH1 0x1 PUSH1 0x1 PUSH1 0xA0 SHL SUB AND PUSH1 0x1 PUSH1 0x1 PUSH1 0xA0 SHL SUB AND PUSH4 0xFEAF968C PUSH1 0x40 MLOAD DUP2 PUSH4 0xFFFFFFFF AND PUSH1 0xE0 SHL DUP2 MSTORE PUSH1 0x4 ADD PUSH1 0xA0 PUSH1 0x40 MLOAD DUP1 DUP4 SUB DUP2 DUP7 GAS STATICCALL ISZERO DUP1 ISZERO PUSH2 0x5F3 JUMPI RETURNDATASIZE PUSH1 0x0 DUP1 RETURNDATACOPY RETURNDATASIZE PUSH1 0x0 REVERT JUMPDEST POP POP POP POP PUSH1 0x40 MLOAD RETURNDATASIZE PUSH1 0x1F NOT PUSH1 0x1F DUP3 ADD AND DUP3 ADD DUP1 PUSH1 0x40 MSTORE POP DUP2 ADD SWAP1 PUSH2 0x617 SWAP2 SWAP1 PUSH2 0x135E JUMP JUMPDEST POP POP POP SWAP2 POP POP PUSH1 0x0 DUP2 PUSH5 0x2540BE400 PUSH2 0x630 SWAP2 SWAP1 PUSH2 0x1307 JUMP JUMPDEST SWAP1 POP PUSH1 0x0 DUP2 PUSH1 0x2 SLOAD PUSH8 0xDE0B6B3A7640000 PUSH2 0x64B SWAP2 SWAP1 PUSH2 0x1307 JUMP JUMPDEST PUSH2 0x655 SWAP2 SWAP1 PUSH2 0x12F3 JUMP JUMPDEST SWAP5 SWAP4 POP POP POP POP JUMP JUMPDEST PUSH1 0x0 SLOAD PUSH1 0x1 PUSH1 0x1 PUSH1 0xA0 SHL SUB AND CALLER EQ PUSH2 0x687 JUMPI PUSH1 0x40 MLOAD PUSH3 0x461BCD PUSH1 0xE5 SHL DUP2 MSTORE PUSH1 0x4 ADD PUSH2 0x354 SWAP1 PUSH2 0x124D JUMP JUMPDEST PUSH2 0x59B PUSH1 0x0 PUSH2 0xEF9 JUMP JUMPDEST CALLER PUSH1 0x1 PUSH1 0x1 PUSH1 0xA0 SHL SUB PUSH32 0x0 AND EQ PUSH2 0x709 JUMPI PUSH1 0x40 MLOAD PUSH3 0x461BCD PUSH1 0xE5 SHL DUP2 MSTORE PUSH1 0x20 PUSH1 0x4 DUP3 ADD MSTORE PUSH1 0x1F PUSH1 0x24 DUP3 ADD MSTORE PUSH32 0x4F6E6C7920565246436F6F7264696E61746F722063616E2066756C66696C6C00 PUSH1 0x44 DUP3 ADD MSTORE PUSH1 0x64 ADD PUSH2 0x354 JUMP JUMPDEST PUSH2 0x713 DUP3 DUP3 PUSH2 0xF49 JUMP JUMPDEST POP POP JUMP JUMPDEST PUSH1 0x0 PUSH1 0x8 SLOAD PUSH1 0x1 PUSH1 0xA0 SHL SWAP1 DIV PUSH1 0xFF AND PUSH1 0x2 DUP2 GT ISZERO PUSH2 0x737 JUMPI PUSH2 0x737 PUSH2 0x11A4 JUMP JUMPDEST EQ PUSH2 0x741 JUMPI PUSH1 0x0 DUP1 REVERT JUMPDEST PUSH2 0x749 PUSH2 0x59D JUMP JUMPDEST CALLVALUE LT ISZERO PUSH2 0x798 JUMPI PUSH1 0x40 MLOAD PUSH3 0x461BCD PUSH1 0xE5 SHL DUP2 MSTORE PUSH1 0x20 PUSH1 0x4 DUP3 ADD MSTORE PUSH1 0x1D PUSH1 0x24 DUP3 ADD MSTORE PUSH32 0x6E6F7420656E6F756768206D6F6E657920666F7220626C617374212121000000 PUSH1 0x44 DUP3 ADD MSTORE PUSH1 0x64 ADD PUSH2 0x354 JUMP JUMPDEST PUSH1 0x64 DUP2 GT DUP1 ISZERO PUSH2 0x7AA JUMPI POP PUSH2 0x3E8 DUP2 GT ISZERO JUMPDEST PUSH2 0x7EB JUMPI PUSH1 0x40 MLOAD PUSH3 0x461BCD PUSH1 0xE5 SHL DUP2 MSTORE PUSH1 0x20 PUSH1 0x4 DUP3 ADD MSTORE PUSH1 0x12 PUSH1 0x24 DUP3 ADD MSTORE PUSH18 0x696E636F727265637420726174696F212121 PUSH1 0x70 SHL PUSH1 0x44 DUP3 ADD MSTORE PUSH1 0x64 ADD PUSH2 0x354 JUMP JUMPDEST PUSH1 0x40 DUP1 MLOAD PUSH1 0x60 DUP2 ADD DUP3 MSTORE CALLER DUP2 MSTORE CALLVALUE PUSH1 0x20 DUP3 ADD SWAP1 DUP2 MSTORE SWAP2 DUP2 ADD SWAP3 DUP4 MSTORE PUSH1 0x9 DUP1 SLOAD PUSH1 0x1 DUP2 ADD DUP3 SSTORE PUSH1 0x0 SWAP2 SWAP1 SWAP2 MSTORE SWAP1 MLOAD PUSH32 0x6E1540171B6C0C960B71A7020D9F60077F6AF931A8BBF590DA0223DACF75C7AF PUSH1 0x3 SWAP1 SWAP3 MUL SWAP2 DUP3 ADD DUP1 SLOAD PUSH1 0x1 PUSH1 0x1 PUSH1 0xA0 SHL SUB NOT AND PUSH1 0x1 PUSH1 0x1 PUSH1 0xA0 SHL SUB SWAP1 SWAP3 AND SWAP2 SWAP1 SWAP2 OR SWAP1 SSTORE SWAP1 MLOAD PUSH32 0x6E1540171B6C0C960B71A7020D9F60077F6AF931A8BBF590DA0223DACF75C7B0 DUP3 ADD SSTORE SWAP1 MLOAD PUSH32 0x6E1540171B6C0C960B71A7020D9F60077F6AF931A8BBF590DA0223DACF75C7B1 SWAP1 SWAP2 ADD SSTORE JUMP JUMPDEST PUSH1 0x0 SLOAD PUSH1 0x1 PUSH1 0x1 PUSH1 0xA0 SHL SUB AND CALLER EQ PUSH2 0x8D7 JUMPI PUSH1 0x40 MLOAD PUSH3 0x461BCD PUSH1 0xE5 SHL DUP2 MSTORE PUSH1 0x4 ADD PUSH2 0x354 SWAP1 PUSH2 0x124D JUMP JUMPDEST PUSH1 0x1 PUSH1 0x8 SLOAD PUSH1 0x1 PUSH1 0xA0 SHL SWAP1 DIV PUSH1 0xFF AND PUSH1 0x2 DUP2 GT ISZERO PUSH2 0x8F7 JUMPI PUSH2 0x8F7 PUSH2 0x11A4 JUMP JUMPDEST EQ PUSH2 0x901 JUMPI PUSH1 0x0 DUP1 REVERT JUMPDEST PUSH1 0x8 DUP1 SLOAD PUSH1 0x0 SWAP2 SWAP1 PUSH1 0xFF PUSH1 0xA0 SHL NOT AND PUSH1 0x1 PUSH1 0xA0 SHL DUP4 PUSH2 0x525 JUMP JUMPDEST PUSH1 0x0 DUP1 SLOAD PUSH1 0x1 PUSH1 0x1 PUSH1 0xA0 SHL SUB AND CALLER EQ PUSH2 0x946 JUMPI PUSH1 0x40 MLOAD PUSH3 0x461BCD PUSH1 0xE5 SHL DUP2 MSTORE PUSH1 0x4 ADD PUSH2 0x354 SWAP1 PUSH2 0x124D JUMP JUMPDEST PUSH1 0x4 DUP1 SLOAD PUSH1 0x40 MLOAD PUSH4 0x70A08231 PUSH1 0xE0 SHL DUP2 MSTORE ADDRESS SWAP3 DUP2 ADD SWAP3 SWAP1 SWAP3 MSTORE SWAP1 PUSH1 0x1 PUSH1 0x1 PUSH1 0xA0 SHL SUB PUSH32 0x0 AND SWAP1 PUSH4 0x70A08231 SWAP1 PUSH1 0x24 ADD PUSH1 0x20 PUSH1 0x40 MLOAD DUP1 DUP4 SUB DUP2 DUP7 GAS STATICCALL ISZERO DUP1 ISZERO PUSH2 0x9B1 JUMPI RETURNDATASIZE PUSH1 0x0 DUP1 RETURNDATACOPY RETURNDATASIZE PUSH1 0x0 REVERT JUMPDEST POP POP POP POP PUSH1 0x40 MLOAD RETURNDATASIZE PUSH1 0x1F NOT PUSH1 0x1F DUP3 ADD AND DUP3 ADD DUP1 PUSH1 0x40 MSTORE POP DUP2 ADD SWAP1 PUSH2 0x9D5 SWAP2 SWAP1 PUSH2 0x13AE JUMP JUMPDEST LT ISZERO PUSH2 0xA37 JUMPI PUSH1 0x40 MLOAD PUSH3 0x461BCD PUSH1 0xE5 SHL DUP2 MSTORE PUSH1 0x20 PUSH1 0x4 DUP3 ADD MSTORE PUSH1 0x2B PUSH1 0x24 DUP3 ADD MSTORE PUSH32 0x4E6F7420656E6F756768204C494E4B202D2066696C6C20636F6E747261637420 PUSH1 0x44 DUP3 ADD MSTORE PUSH11 0x1DDA5D1A0819985D58D95D PUSH1 0xAA SHL PUSH1 0x64 DUP3 ADD MSTORE PUSH1 0x84 ADD PUSH2 0x354 JUMP JUMPDEST PUSH1 0x8 DUP1 SLOAD PUSH1 0xFF PUSH1 0xA0 SHL NOT AND PUSH1 0x1 PUSH1 0xA1 SHL OR SWAP1 SSTORE PUSH1 0x3 SLOAD PUSH1 0x4 SLOAD PUSH2 0xA5A SWAP2 SWAP1 PUSH2 0xFDC JUMP JUMPDEST SWAP1 POP SWAP1 JUMP JUMPDEST PUSH1 0x0 SLOAD PUSH1 0x1 PUSH1 0x1 PUSH1 0xA0 SHL SUB AND CALLER EQ PUSH2 0xA89 JUMPI PUSH1 0x40 MLOAD PUSH3 0x461BCD PUSH1 0xE5 SHL DUP2 MSTORE PUSH1 0x4 ADD PUSH2 0x354 SWAP1 PUSH2 0x124D JUMP JUMPDEST PUSH1 0x2 PUSH1 0x8 SLOAD PUSH1 0x1 PUSH1 0xA0 SHL SWAP1 DIV PUSH1 0xFF AND PUSH1 0x2 DUP2 GT ISZERO PUSH2 0xAA9 JUMPI PUSH2 0xAA9 PUSH2 0x11A4 JUMP JUMPDEST EQ PUSH2 0xAC6 JUMPI PUSH1 0x40 MLOAD PUSH3 0x461BCD PUSH1 0xE5 SHL DUP2 MSTORE PUSH1 0x4 ADD PUSH2 0x354 SWAP1 PUSH2 0x1282 JUMP JUMPDEST PUSH1 0x0 PUSH2 0x3E8 PUSH1 0x5 SLOAD PUSH2 0xAD8 SWAP2 SWAP1 PUSH2 0x13C7 JUMP JUMPDEST SWAP1 POP PUSH1 0x0 DUP1 PUSH1 0x13 DUP4 GT ISZERO DUP1 ISZERO PUSH2 0xAEC JUMPI POP PUSH1 0x1 JUMPDEST ISZERO PUSH2 0xAFB JUMPI PUSH1 0x0 PUSH1 0x6 SSTORE POP POP POP JUMP JUMPDEST PUSH2 0x239 DUP4 GT ISZERO DUP1 ISZERO PUSH2 0xB0E JUMPI POP PUSH1 0x14 DUP4 LT ISZERO JUMPDEST ISZERO PUSH2 0xB57 JUMPI POP PUSH2 0x23A SWAP1 POP PUSH1 0x14 PUSH2 0xB25 DUP2 DUP4 PUSH2 0x13DB JUMP JUMPDEST PUSH2 0xB2F DUP3 DUP6 PUSH2 0x13DB JUMP JUMPDEST PUSH2 0xB3A SWAP1 PUSH1 0x64 PUSH2 0x1307 JUMP JUMPDEST PUSH2 0xB44 SWAP2 SWAP1 PUSH2 0x12F3 JUMP JUMPDEST PUSH2 0xB4F SWAP1 PUSH1 0x64 PUSH2 0x13F2 JUMP JUMPDEST PUSH1 0x6 SSTORE POP POP POP JUMP JUMPDEST PUSH2 0x30B DUP4 GT ISZERO DUP1 ISZERO PUSH2 0xB6B JUMPI POP PUSH2 0x23A DUP4 LT ISZERO JUMPDEST ISZERO PUSH2 0xBAD JUMPI POP PUSH2 0x30C SWAP1 POP PUSH2 0x23A PUSH2 0xB83 DUP2 DUP4 PUSH2 0x13DB JUMP JUMPDEST PUSH2 0xB8D DUP3 DUP6 PUSH2 0x13DB JUMP JUMPDEST PUSH2 0xB98 SWAP1 PUSH1 0x64 PUSH2 0x1307 JUMP JUMPDEST PUSH2 0xBA2 SWAP2 SWAP1 PUSH2 0x12F3 JUMP JUMPDEST PUSH2 0xB4F SWAP1 PUSH1 0xC8 PUSH2 0x13F2 JUMP JUMPDEST PUSH2 0x30C DUP4 LT ISZERO DUP1 ISZERO PUSH2 0xBC1 JUMPI POP PUSH2 0x36F DUP4 GT ISZERO JUMPDEST ISZERO PUSH2 0xC04 JUMPI POP PUSH2 0x370 SWAP1 POP PUSH2 0x30C PUSH2 0xBD9 DUP2 DUP4 PUSH2 0x13DB JUMP JUMPDEST PUSH2 0xBE3 DUP3 DUP6 PUSH2 0x13DB JUMP JUMPDEST PUSH2 0xBEE SWAP1 PUSH1 0x64 PUSH2 0x1307 JUMP JUMPDEST PUSH2 0xBF8 SWAP2 SWAP1 PUSH2 0x12F3 JUMP JUMPDEST PUSH2 0xB4F SWAP1 PUSH2 0x12C PUSH2 0x13F2 JUMP JUMPDEST PUSH2 0x370 DUP4 LT ISZERO DUP1 ISZERO PUSH2 0xC18 JUMPI POP PUSH2 0x3A1 DUP4 GT ISZERO JUMPDEST ISZERO PUSH2 0xC5B JUMPI POP PUSH2 0x3A2 SWAP1 POP PUSH2 0x370 PUSH2 0xC30 DUP2 DUP4 PUSH2 0x13DB JUMP JUMPDEST PUSH2 0xC3A DUP3 DUP6 PUSH2 0x13DB JUMP JUMPDEST PUSH2 0xC45 SWAP1 PUSH1 0x64 PUSH2 0x1307 JUMP JUMPDEST PUSH2 0xC4F SWAP2 SWAP1 PUSH2 0x12F3 JUMP JUMPDEST PUSH2 0xB4F SWAP1 PUSH2 0x190 PUSH2 0x13F2 JUMP JUMPDEST PUSH2 0x3A2 DUP4 LT ISZERO DUP1 ISZERO PUSH2 0xC6F JUMPI POP PUSH2 0x3BF DUP4 GT ISZERO JUMPDEST ISZERO PUSH2 0xCB2 JUMPI POP PUSH2 0x3C0 SWAP1 POP PUSH2 0x3A2 PUSH2 0xC87 DUP2 DUP4 PUSH2 0x13DB JUMP JUMPDEST PUSH2 0xC91 DUP3 DUP6 PUSH2 0x13DB JUMP JUMPDEST PUSH2 0xC9C SWAP1 PUSH1 0x64 PUSH2 0x1307 JUMP JUMPDEST PUSH2 0xCA6 SWAP2 SWAP1 PUSH2 0x12F3 JUMP JUMPDEST PUSH2 0xB4F SWAP1 PUSH2 0x1F4 PUSH2 0x13F2 JUMP JUMPDEST PUSH2 0x3C0 DUP4 LT ISZERO DUP1 ISZERO PUSH2 0xCC6 JUMPI POP PUSH2 0x3D3 DUP4 GT ISZERO JUMPDEST ISZERO PUSH2 0xD08 JUMPI POP PUSH2 0x23A SWAP1 POP PUSH1 0x14 PUSH2 0xCDD DUP2 DUP4 PUSH2 0x13DB JUMP JUMPDEST PUSH2 0xCE7 DUP3 DUP6 PUSH2 0x13DB JUMP JUMPDEST PUSH2 0xCF2 SWAP1 PUSH1 0x64 PUSH2 0x1307 JUMP JUMPDEST PUSH2 0xCFC SWAP2 SWAP1 PUSH2 0x12F3 JUMP JUMPDEST PUSH2 0xB4F SWAP1 PUSH2 0x258 PUSH2 0x13F2 JUMP JUMPDEST PUSH2 0x3D4 DUP4 LT ISZERO DUP1 ISZERO PUSH2 0xD1C JUMPI POP PUSH2 0x3DD DUP4 GT ISZERO JUMPDEST ISZERO PUSH2 0xD5F JUMPI POP PUSH2 0x3DE SWAP1 POP PUSH2 0x3D4 PUSH2 0xD34 DUP2 DUP4 PUSH2 0x13DB JUMP JUMPDEST PUSH2 0xD3E DUP3 DUP6 PUSH2 0x13DB JUMP JUMPDEST PUSH2 0xD49 SWAP1 PUSH1 0x64 PUSH2 0x1307 JUMP JUMPDEST PUSH2 0xD53 SWAP2 SWAP1 PUSH2 0x12F3 JUMP JUMPDEST PUSH2 0xB4F SWAP1 PUSH2 0x2BC PUSH2 0x13F2 JUMP JUMPDEST PUSH2 0x3DE DUP4 LT ISZERO DUP1 ISZERO PUSH2 0xD73 JUMPI POP PUSH2 0x3E2 DUP4 GT ISZERO JUMPDEST ISZERO PUSH2 0xDB6 JUMPI POP PUSH2 0x3E3 SWAP1 POP PUSH2 0x3DE PUSH2 0xD8B DUP2 DUP4 PUSH2 0x13DB JUMP JUMPDEST PUSH2 0xD95 DUP3 DUP6 PUSH2 0x13DB JUMP JUMPDEST PUSH2 0xDA0 SWAP1 PUSH1 0x64 PUSH2 0x1307 JUMP JUMPDEST PUSH2 0xDAA SWAP2 SWAP1 PUSH2 0x12F3 JUMP JUMPDEST PUSH2 0xB4F SWAP1 PUSH2 0x320 PUSH2 0x13F2 JUMP JUMPDEST PUSH2 0x3E3 DUP4 LT ISZERO DUP1 ISZERO PUSH2 0xDCA JUMPI POP PUSH2 0x3E6 DUP4 GT ISZERO JUMPDEST ISZERO PUSH2 0xE0D JUMPI POP PUSH2 0x3E7 SWAP1 POP PUSH2 0x3E3 PUSH2 0xDE2 DUP2 DUP4 PUSH2 0x13DB JUMP JUMPDEST PUSH2 0xDEC DUP3 DUP6 PUSH2 0x13DB JUMP JUMPDEST PUSH2 0xDF7 SWAP1 PUSH1 0x64 PUSH2 0x1307 JUMP JUMPDEST PUSH2 0xE01 SWAP2 SWAP1 PUSH2 0x12F3 JUMP JUMPDEST PUSH2 0xB4F SWAP1 PUSH2 0x384 PUSH2 0x13F2 JUMP JUMPDEST DUP3 PUSH2 0x3E7 SUB PUSH2 0xE1C JUMPI PUSH1 0xA PUSH1 0x6 SSTORE JUMPDEST POP POP POP JUMP JUMPDEST PUSH1 0x0 SLOAD PUSH1 0x1 PUSH1 0x1 PUSH1 0xA0 SHL SUB AND CALLER EQ PUSH2 0xE4B JUMPI PUSH1 0x40 MLOAD PUSH3 0x461BCD PUSH1 0xE5 SHL DUP2 MSTORE PUSH1 0x4 ADD PUSH2 0x354 SWAP1 PUSH2 0x124D JUMP JUMPDEST PUSH1 0x1 PUSH1 0x1 PUSH1 0xA0 SHL SUB DUP2 AND PUSH2 0xEB0 JUMPI PUSH1 0x40 MLOAD PUSH3 0x461BCD PUSH1 0xE5 SHL DUP2 MSTORE PUSH1 0x20 PUSH1 0x4 DUP3 ADD MSTORE PUSH1 0x26 PUSH1 0x24 DUP3 ADD MSTORE PUSH32 0x4F776E61626C653A206E6577206F776E657220697320746865207A65726F2061 PUSH1 0x44 DUP3 ADD MSTORE PUSH6 0x646472657373 PUSH1 0xD0 SHL PUSH1 0x64 DUP3 ADD MSTORE PUSH1 0x84 ADD PUSH2 0x354 JUMP JUMPDEST PUSH2 0xEB9 DUP2 PUSH2 0xEF9 JUMP JUMPDEST POP JUMP JUMPDEST PUSH1 0x9 DUP2 DUP2 SLOAD DUP2 LT PUSH2 0xECC JUMPI PUSH1 0x0 DUP1 REVERT JUMPDEST PUSH1 0x0 SWAP2 DUP3 MSTORE PUSH1 0x20 SWAP1 SWAP2 KECCAK256 PUSH1 0x3 SWAP1 SWAP2 MUL ADD DUP1 SLOAD PUSH1 0x1 DUP3 ADD SLOAD PUSH1 0x2 SWAP1 SWAP3 ADD SLOAD PUSH1 0x1 PUSH1 0x1 PUSH1 0xA0 SHL SUB SWAP1 SWAP2 AND SWAP3 POP DUP4 JUMP JUMPDEST PUSH1 0x0 DUP1 SLOAD PUSH1 0x1 PUSH1 0x1 PUSH1 0xA0 SHL SUB DUP4 DUP2 AND PUSH1 0x1 PUSH1 0x1 PUSH1 0xA0 SHL SUB NOT DUP4 AND DUP2 OR DUP5 SSTORE PUSH1 0x40 MLOAD SWAP2 SWAP1 SWAP3 AND SWAP3 DUP4 SWAP2 PUSH32 0x8BE0079C531659141344CD1FD0A4F28419497F9722A3DAAFE3B4186F6B6457E0 SWAP2 SWAP1 LOG3 POP POP JUMP JUMPDEST PUSH1 0x2 PUSH1 0x8 SLOAD PUSH1 0x1 PUSH1 0xA0 SHL SWAP1 DIV PUSH1 0xFF AND PUSH1 0x2 DUP2 GT ISZERO PUSH2 0xF69 JUMPI PUSH2 0xF69 PUSH2 0x11A4 JUMP JUMPDEST EQ PUSH2 0xF86 JUMPI PUSH1 0x40 MLOAD PUSH3 0x461BCD PUSH1 0xE5 SHL DUP2 MSTORE PUSH1 0x4 ADD PUSH2 0x354 SWAP1 PUSH2 0x1282 JUMP JUMPDEST PUSH1 0x0 DUP2 GT PUSH2 0xFD6 JUMPI PUSH1 0x40 MLOAD PUSH3 0x461BCD PUSH1 0xE5 SHL DUP2 MSTORE PUSH1 0x20 PUSH1 0x4 DUP3 ADD DUP2 SWAP1 MSTORE PUSH1 0x24 DUP3 ADD MSTORE PUSH32 0x7468657265206973206E6F2072616E646F6D206E756D62657220796574212121 PUSH1 0x44 DUP3 ADD MSTORE PUSH1 0x64 ADD PUSH2 0x354 JUMP JUMPDEST PUSH1 0x5 SSTORE POP JUMP JUMPDEST PUSH1 0x0 PUSH32 0x0 PUSH1 0x1 PUSH1 0x1 PUSH1 0xA0 SHL SUB AND PUSH4 0x4000AEA0 PUSH32 0x0 DUP5 DUP7 PUSH1 0x0 PUSH1 0x40 MLOAD PUSH1 0x20 ADD PUSH2 0x104C SWAP3 SWAP2 SWAP1 SWAP2 DUP3 MSTORE PUSH1 0x20 DUP3 ADD MSTORE PUSH1 0x40 ADD SWAP1 JUMP JUMPDEST PUSH1 0x40 MLOAD PUSH1 0x20 DUP2 DUP4 SUB SUB DUP2 MSTORE SWAP1 PUSH1 0x40 MSTORE PUSH1 0x40 MLOAD DUP5 PUSH4 0xFFFFFFFF AND PUSH1 0xE0 SHL DUP2 MSTORE PUSH1 0x4 ADD PUSH2 0x1079 SWAP4 SWAP3 SWAP2 SWAP1 PUSH2 0x140A JUMP JUMPDEST PUSH1 0x20 PUSH1 0x40 MLOAD DUP1 DUP4 SUB DUP2 PUSH1 0x0 DUP8 GAS CALL ISZERO DUP1 ISZERO PUSH2 0x1098 JUMPI RETURNDATASIZE PUSH1 0x0 DUP1 RETURNDATACOPY RETURNDATASIZE PUSH1 0x0 REVERT JUMPDEST POP POP POP POP PUSH1 0x40 MLOAD RETURNDATASIZE PUSH1 0x1F NOT PUSH1 0x1F DUP3 ADD AND DUP3 ADD DUP1 PUSH1 0x40 MSTORE POP DUP2 ADD SWAP1 PUSH2 0x10BC SWAP2 SWAP1 PUSH2 0x1476 JUMP JUMPDEST POP PUSH1 0x0 DUP4 DUP2 MSTORE PUSH1 0x1 PUSH1 0x20 DUP2 DUP2 MSTORE PUSH1 0x40 DUP1 DUP5 KECCAK256 SLOAD DUP2 MLOAD DUP1 DUP5 ADD DUP10 SWAP1 MSTORE DUP1 DUP4 ADD DUP7 SWAP1 MSTORE ADDRESS PUSH1 0x60 DUP3 ADD MSTORE PUSH1 0x80 DUP1 DUP3 ADD DUP4 SWAP1 MSTORE DUP4 MLOAD DUP1 DUP4 SUB SWAP1 SWAP2 ADD DUP2 MSTORE PUSH1 0xA0 SWAP1 SWAP2 ADD SWAP1 SWAP3 MSTORE DUP2 MLOAD SWAP2 DUP4 ADD SWAP2 SWAP1 SWAP2 KECCAK256 SWAP4 DUP8 SWAP1 MSTORE SWAP1 DUP3 SWAP1 MSTORE PUSH2 0x1117 SWAP2 PUSH2 0x13F2 JUMP JUMPDEST PUSH1 0x0 DUP6 DUP2 MSTORE PUSH1 0x1 PUSH1 0x20 MSTORE PUSH1 0x40 SWAP1 KECCAK256 SSTORE PUSH2 0x655 DUP5 DUP3 PUSH1 0x40 DUP1 MLOAD PUSH1 0x20 DUP1 DUP3 ADD SWAP5 SWAP1 SWAP5 MSTORE DUP1 DUP3 ADD SWAP3 SWAP1 SWAP3 MSTORE DUP1 MLOAD DUP1 DUP4 SUB DUP3 ADD DUP2 MSTORE PUSH1 0x60 SWAP1 SWAP3 ADD SWAP1 MSTORE DUP1 MLOAD SWAP2 ADD KECCAK256 SWAP1 JUMP JUMPDEST POP DUP1 SLOAD PUSH1 0x0 DUP3 SSTORE PUSH1 0x3 MUL SWAP1 PUSH1 0x0 MSTORE PUSH1 0x20 PUSH1 0x0 KECCAK256 SWAP1 DUP2 ADD SWAP1 PUSH2 0xEB9 SWAP2 SWAP1 JUMPDEST DUP1 DUP3 GT ISZERO PUSH2 0x11A0 JUMPI DUP1 SLOAD PUSH1 0x1 PUSH1 0x1 PUSH1 0xA0 SHL SUB NOT AND DUP2 SSTORE PUSH1 0x0 PUSH1 0x1 DUP3 ADD DUP2 SWAP1 SSTORE PUSH1 0x2 DUP3 ADD SSTORE PUSH1 0x3 ADD PUSH2 0x1174 JUMP JUMPDEST POP SWAP1 JUMP JUMPDEST PUSH4 0x4E487B71 PUSH1 0xE0 SHL PUSH1 0x0 MSTORE PUSH1 0x21 PUSH1 0x4 MSTORE PUSH1 0x24 PUSH1 0x0 REVERT JUMPDEST PUSH1 0x20 DUP2 ADD PUSH1 0x3 DUP4 LT PUSH2 0x11DC JUMPI PUSH4 0x4E487B71 PUSH1 0xE0 SHL PUSH1 0x0 MSTORE PUSH1 0x21 PUSH1 0x4 MSTORE PUSH1 0x24 PUSH1 0x0 REVERT JUMPDEST SWAP2 SWAP1 MSTORE SWAP1 JUMP JUMPDEST PUSH1 0x0 DUP1 PUSH1 0x40 DUP4 DUP6 SUB SLT ISZERO PUSH2 0x11F5 JUMPI PUSH1 0x0 DUP1 REVERT JUMPDEST POP POP DUP1 CALLDATALOAD SWAP3 PUSH1 0x20 SWAP1 SWAP2 ADD CALLDATALOAD SWAP2 POP JUMP JUMPDEST PUSH1 0x0 PUSH1 0x20 DUP3 DUP5 SUB SLT ISZERO PUSH2 0x1216 JUMPI PUSH1 0x0 DUP1 REVERT JUMPDEST POP CALLDATALOAD SWAP2 SWAP1 POP JUMP JUMPDEST PUSH1 0x0 PUSH1 0x20 DUP3 DUP5 SUB SLT ISZERO PUSH2 0x122F JUMPI PUSH1 0x0 DUP1 REVERT JUMPDEST DUP2 CALLDATALOAD PUSH1 0x1 PUSH1 0x1 PUSH1 0xA0 SHL SUB DUP2 AND DUP2 EQ PUSH2 0x1246 JUMPI PUSH1 0x0 DUP1 REVERT JUMPDEST SWAP4 SWAP3 POP POP POP JUMP JUMPDEST PUSH1 0x20 DUP1 DUP3 MSTORE DUP2 DUP2 ADD MSTORE PUSH32 0x4F776E61626C653A2063616C6C6572206973206E6F7420746865206F776E6572 PUSH1 0x40 DUP3 ADD MSTORE PUSH1 0x60 ADD SWAP1 JUMP JUMPDEST PUSH1 0x20 DUP1 DUP3 MSTORE PUSH1 0x15 SWAP1 DUP3 ADD MSTORE PUSH21 0x626C617374206973206E6F7420656E646564212121 PUSH1 0x58 SHL PUSH1 0x40 DUP3 ADD MSTORE PUSH1 0x60 ADD SWAP1 JUMP JUMPDEST PUSH4 0x4E487B71 PUSH1 0xE0 SHL PUSH1 0x0 MSTORE PUSH1 0x32 PUSH1 0x4 MSTORE PUSH1 0x24 PUSH1 0x0 REVERT JUMPDEST PUSH4 0x4E487B71 PUSH1 0xE0 SHL PUSH1 0x0 MSTORE PUSH1 0x12 PUSH1 0x4 MSTORE PUSH1 0x24 PUSH1 0x0 REVERT JUMPDEST PUSH4 0x4E487B71 PUSH1 0xE0 SHL PUSH1 0x0 MSTORE PUSH1 0x11 PUSH1 0x4 MSTORE PUSH1 0x24 PUSH1 0x0 REVERT JUMPDEST PUSH1 0x0 DUP3 PUSH2 0x1302 JUMPI PUSH2 0x1302 PUSH2 0x12C7 JUMP JUMPDEST POP DIV SWAP1 JUMP JUMPDEST PUSH1 0x0 DUP2 PUSH1 0x0 NOT DIV DUP4 GT DUP3 ISZERO ISZERO AND ISZERO PUSH2 0x1321 JUMPI PUSH2 0x1321 PUSH2 0x12DD JUMP JUMPDEST POP MUL SWAP1 JUMP JUMPDEST PUSH1 0x0 PUSH1 0x1 DUP3 ADD PUSH2 0x1338 JUMPI PUSH2 0x1338 PUSH2 0x12DD JUMP JUMPDEST POP PUSH1 0x1 ADD SWAP1 JUMP JUMPDEST DUP1 MLOAD PUSH10 0xFFFFFFFFFFFFFFFFFFFF DUP2 AND DUP2 EQ PUSH2 0x1359 JUMPI PUSH1 0x0 DUP1 REVERT JUMPDEST SWAP2 SWAP1 POP JUMP JUMPDEST PUSH1 0x0 DUP1 PUSH1 0x0 DUP1 PUSH1 0x0 PUSH1 0xA0 DUP7 DUP9 SUB SLT ISZERO PUSH2 0x1376 JUMPI PUSH1 0x0 DUP1 REVERT JUMPDEST PUSH2 0x137F DUP7 PUSH2 0x133F JUMP JUMPDEST SWAP5 POP PUSH1 0x20 DUP7 ADD MLOAD SWAP4 POP PUSH1 0x40 DUP7 ADD MLOAD SWAP3 POP PUSH1 0x60 DUP7 ADD MLOAD SWAP2 POP PUSH2 0x13A2 PUSH1 0x80 DUP8 ADD PUSH2 0x133F JUMP JUMPDEST SWAP1 POP SWAP3 SWAP6 POP SWAP3 SWAP6 SWAP1 SWAP4 POP JUMP JUMPDEST PUSH1 0x0 PUSH1 0x20 DUP3 DUP5 SUB SLT ISZERO PUSH2 0x13C0 JUMPI PUSH1 0x0 DUP1 REVERT JUMPDEST POP MLOAD SWAP2 SWAP1 POP JUMP JUMPDEST PUSH1 0x0 DUP3 PUSH2 0x13D6 JUMPI PUSH2 0x13D6 PUSH2 0x12C7 JUMP JUMPDEST POP MOD SWAP1 JUMP JUMPDEST PUSH1 0x0 DUP3 DUP3 LT ISZERO PUSH2 0x13ED JUMPI PUSH2 0x13ED PUSH2 0x12DD JUMP JUMPDEST POP SUB SWAP1 JUMP JUMPDEST PUSH1 0x0 DUP3 NOT DUP3 GT ISZERO PUSH2 0x1405 JUMPI PUSH2 0x1405 PUSH2 0x12DD JUMP JUMPDEST POP ADD SWAP1 JUMP JUMPDEST PUSH1 0x1 DUP1 PUSH1 0xA0 SHL SUB DUP5 AND DUP2 MSTORE PUSH1 0x0 PUSH1 0x20 DUP5 DUP2 DUP5 ADD MSTORE PUSH1 0x60 PUSH1 0x40 DUP5 ADD MSTORE DUP4 MLOAD DUP1 PUSH1 0x60 DUP6 ADD MSTORE PUSH1 0x0 JUMPDEST DUP2 DUP2 LT ISZERO PUSH2 0x144C JUMPI DUP6 DUP2 ADD DUP4 ADD MLOAD DUP6 DUP3 ADD PUSH1 0x80 ADD MSTORE DUP3 ADD PUSH2 0x1430 JUMP JUMPDEST DUP2 DUP2 GT ISZERO PUSH2 0x145E JUMPI PUSH1 0x0 PUSH1 0x80 DUP4 DUP8 ADD ADD MSTORE JUMPDEST POP PUSH1 0x1F ADD PUSH1 0x1F NOT AND SWAP3 SWAP1 SWAP3 ADD PUSH1 0x80 ADD SWAP6 SWAP5 POP POP POP POP POP JUMP JUMPDEST PUSH1 0x0 PUSH1 0x20 DUP3 DUP5 SUB SLT ISZERO PUSH2 0x1488 JUMPI PUSH1 0x0 DUP1 REVERT JUMPDEST DUP2 MLOAD DUP1 ISZERO ISZERO DUP2 EQ PUSH2 0x1246 JUMPI PUSH1 0x0 DUP1 REVERT INVALID LOG2 PUSH5 0x6970667358 0x22 SLT KECCAK256 0xC4 0xEB 0xFB SHR 0xA5 LOG2 0xDE 0xE6 0xC0 BALANCE OR 0x2F 0xBC 0xED SAR 0xC1 SLOAD PUSH16 0x26BA8BE2E29A3705799797BC6C896473 PUSH16 0x6C634300080E00330000000000000000 ","sha1":"8c21a6f40b7068f5175d661924436624d8820f54","source":"// SPDX-License-Identifier: MIT\npragma solidity ^0.8.0;\n\nimport \"@chainlink/contracts/src/v0.8/interfaces/AggregatorV3Interface.sol\";\nimport \"@openzeppelin/contracts/access/Ownable.sol\";\nimport \"@chainlink/contracts/src/v0.8/VRFConsumerBase.sol\";\n\ncontract Blast is Ownable , VRFConsumerBase{\n    uint256 public entranceFeeAmount;\n    bytes32 public keyHash;\n    uint256 public fee;\n    uint256 public randomness;\n    uint256 public randomRatio; \n    uint256 public winnerCounter;\n    AggregatorV3Interface internal entranceFeeContract;\n    enum BLAST_STATUS{\n        OPEN,\n        CLOSE,\n        CALCULATING\n    }\n    BLAST_STATUS public blast_status;\n\n    event requestIdRandomness(bytes32 requestId);\n\n    constructor(address _entranceFeeAddress , address _vrfcoordinator , address _link , bytes32 _keyhash , uint256 _fee) public VRFConsumerBase(_vrfcoordinator , _link){\n        blast_status = BLAST_STATUS.CLOSE;\n        keyHash = _keyhash;\n        fee = _fee;\n        winnerCounter = 0;\n        entranceFeeAmount = 5 * (10**18);\n        entranceFeeContract = AggregatorV3Interface(_entranceFeeAddress);\n    }\n\n    struct info{\n        address payable account;\n        uint256 money;\n        uint256 ratio;\n    }\n\n    info[] public players;\n\n\n    function entranceFee() public view returns(uint256){\n        ( ,int price, , , ) = entranceFeeContract.latestRoundData();\n        uint256 adjustedPrice = uint256(price) * (10**10); //18 decimal,'price' 8 decimal dare\n        uint256 costToEnter = entranceFeeAmount * (10**18) / adjustedPrice; //vooroodi be wei\n        return costToEnter;\n    }\n    function enter(uint256 _ratio) payable public{\n        require(blast_status == BLAST_STATUS.OPEN);\n        require(msg.value >= entranceFee() , \"not enough money for blast!!!\");\n        require(_ratio > 100 && _ratio <= 1000 , \"incorrect ratio!!!\");\n        players.push(info(payable(msg.sender) , msg.value , _ratio));\n    }\n    function start() public onlyOwner{\n        require(blast_status == BLAST_STATUS.CLOSE);\n        blast_status = BLAST_STATUS.OPEN;\n    }\n\n    function finish() public onlyOwner returns(bytes32 requestId){\n        require(LINK.balanceOf(address(this)) >= fee, \"Not enough LINK - fill contract with faucet\");\n        blast_status = BLAST_STATUS.CALCULATING;\n        requestId = requestRandomness(keyHash, fee);\n        return requestId;\n        emit requestIdRandomness(requestId);\n    }\n\n    function fulfillRandomness(bytes32 _requestId, uint256 _randomness) internal override{\n        require(blast_status == BLAST_STATUS.CALCULATING , \"blast is not ended!!!\");\n        require(_randomness > 0 , \"there is no random number yet!!!\");\n        randomness = _randomness;\n    }\n\n    function charge() payable public onlyOwner{\n        require(msg.value > 0 , \"its not charged!!!\");\n    }\n\n    function getRatio() public onlyOwner{\n        require(blast_status == BLAST_STATUS.CALCULATING, \"blast is not ended!!!\");\n        uint256 modulus = randomness % 1000;\n        uint256 top;\n        uint256 down;\n        if (modulus <= 19 && modulus >= 0 ){\n            randomRatio = 0;\n        }\n        else if (modulus <= 569 && modulus >= 20 ){\n            top = 570;\n            down = 20;\n            randomRatio = (modulus-down)*100/(top-down) + 100;\n        }\n        else if (modulus <= 779 && modulus >= 570 ){\n            top = 780;\n            down = 570;\n            randomRatio = (modulus-down)*100/(top-down) + 200;\n        }\n        else if (modulus >= 780 && modulus <= 879 ){\n            top = 880;\n            down = 780;\n            randomRatio = (modulus-down)*100/(top-down) + 300;\n        }\n        else if (modulus >= 880 && modulus <= 929 ){\n            top = 930;\n            down = 880;\n            randomRatio = (modulus-down)*100/(top-down) + 400;\n        }\n        else if (modulus >= 930 && modulus <= 959 ){\n            top = 960;\n            down = 930;\n            randomRatio = (modulus-down)*100/(top-down) + 500;\n        }\n        else if (modulus >= 960 && modulus <= 979 ){\n            top = 570;\n            down = 20;\n            randomRatio = (modulus-down)*100/(top-down) + 600;\n        }\n        else if (modulus >= 980 && modulus <= 989 ){\n            top = 990;\n            down = 980;\n            randomRatio = (modulus-down)*100/(top-down) + 700;\n        }\n        else if (modulus >= 990 && modulus <= 994 ){\n            top = 995;\n            down = 990;\n            randomRatio = (modulus-down)*100/(top-down) + 800;\n        }\n        else if (modulus >= 995 && modulus <= 998 ){\n            top = 999;\n            down = 995;\n            randomRatio = (modulus-down)*100/(top-down) + 900;\n        }\n        else if (modulus == 999 ){\n            randomRatio = 10;\n        }\n    }\n\n        function blastPayment() public onlyOwner{\n        require(blast_status == BLAST_STATUS.CALCULATING, \"blast is not ended!!!\");\n        for (uint256 i=0 ; i < players.length ; i++){\n            if(randomRatio > 0){\n                uint256 playerRatio = players[i].ratio;\n                if (playerRatio <= randomRatio){\n                    uint256 playerValue = players[i].money / 100 * players[i].ratio;\n                    address payable playerAddress = players[i].account;\n                    bool send_status = playerAddress.send(playerValue);\n                    require(send_status , \"sending Failed!!!\");\n                    winnerCounter++;\n                }\n            }\n        }\n        delete players;\n        blast_status = BLAST_STATUS.CLOSE;\n        }\n        \n    \n}","sourcePath":"contracts/Blast.sol","type":"contract","deployment":{"address":"0xd79fd7b5E784244C1a397C06EAAb338F56Ee375E","chainid":"4","blockHeight":11206800}}